:020000041004E6
:1000000000000120755C0410FD4F04100550041021
:1000100000000000000000000000000000000000E0
:100020000000000000000000000000000D5004105F
:1000300000000000000000001750041021500410C0
:10004000D95C0410D95C0410D95C0410D95C04108C
:10005000D95C0410D95C0410D95C0410D95C04107C
:1000600031500410D95C0410D95C0410D95C041020
:10007000D95C04104950041000000000D95C041041
:10008000D95C0410D95C04108B50041000000000EF
:100090007D500410000000000000000061500410BA
:1000A0006F50041099500410000000000000000080
:1000B0000000000000000000000000000000000040
:1000C00010B5904216D98AB2030C090C0C4659435C
:1000D00080B25343444350431B191A041B0C10189D
:1000E000594180225203002312184B41520DD8026D
:1000F000104310BD4843802252031218520D10467F
:1001000010BDC0468B0707D0013A22D30B780131CE
:10011000037001308B07F7D1830730D0DB4219D051
:100120000138043A08D308C943701B0A43801B0CEA
:1001300003710430043AF6D2D20707D30B88437018
:1001400001D08A78C2701B0A8370704701D00B7887
:1001500043707047043A06D308C903801B0C4380E0
:100160000430043AF8D2D20705D30B88038005D0B7
:100170008B788370704701D00B780370704770B430
:10018000103A03D378C978C0103AFBD2530701D391
:1001900018C918C001D508C908C0D20704D30B88F4
:1001A000038002300231002A01D50B78037070BC45
:1001B0007047C046EFF31482EFF30981154880F3CE
:1001C0001488BFF36F8FF0B543464C4655465E46E4
:1001D0006746F8B4104CEFF30883636006B4BFF3CE
:1001E0004F8F30BFC046C0460B4C646884F308880C
:1001F00082B003BCF8BC9846A146AA46B346BC46AA
:10020000F0BC04BC80F3098881F31488BFF36F8FBE
:100210001047C046000000000400002003B47146EF
:10022000490840004900095E49008E4403BC7047FC
:10023000002243088B4274D303098B425FD3030A25
:100240008B4244D3030B8B4228D3030C8B420DD338
:10025000FF22090212BA030C8B4202D312120902C6
:1002600065D0030B8B4219D300E0090AC30B8B4204
:1002700001D3CB03C01A5241830B8B4201D38B03B2
:10028000C01A5241430B8B4201D34B03C01A524157
:10029000030B8B4201D30B03C01A5241C30A8B429A
:1002A00001D3CB02C01A5241830A8B4201D38B0285
:1002B000C01A5241430A8B4201D34B02C01A524129
:1002C000030A8B4201D30B02C01A5241CDD2C3099B
:1002D0008B4201D3CB01C01A524183098B4201D317
:1002E0008B01C01A524143098B4201D34B01C01A02
:1002F000524103098B4201D30B01C01A5241C3087A
:100300008B4201D3CB00C01A524183088B4201D3E8
:100310008B00C01A524143088B4201D34B00C01AD4
:100320005241411A00D20146524110467047FFE740
:1003300001B5002000F0F0F802BDC0460029F7D05A
:1003400076E7704703460B437FD4002243088B4275
:1003500074D303098B425FD3030A8B4244D3030B4C
:100360008B4228D3030C8B420DD3FF22090212BA11
:10037000030C8B4202D31212090265D0030B8B428D
:1003800019D300E0090AC30B8B4201D3CB03C01A77
:100390005241830B8B4201D38B03C01A5241430B52
:1003A0008B4201D34B03C01A5241030B8B4201D342
:1003B0000B03C01A5241C30A8B4201D3CB02C01AAD
:1003C0005241830A8B4201D38B02C01A5241430A25
:1003D0008B4201D34B02C01A5241030A8B4201D314
:1003E0000B02C01A5241CDD2C3098B4201D3CB01BB
:1003F000C01A524183098B4201D38B01C01A52416A
:1004000043098B4201D34B01C01A524103098B426D
:1004100001D30B01C01A5241C3088B4201D3CB0058
:10042000C01A524183088B4201D38B00C01A52413B
:1004300043088B4201D34B00C01A5241411A00D2EB
:1004400001465241104670475DE0CA0F00D0494254
:10045000031000D34042534000229C4603098B42C4
:100460002DD3030A8B4212D3FC22890112BA030A4C
:100470008B420CD3890192118B4208D389019211CE
:100480008B4204D389013AD0921100E08909C30953
:100490008B4201D3CB01C01A524183098B4201D355
:1004A0008B01C01A524143098B4201D34B01C01A40
:1004B000524103098B4201D30B01C01A5241C308B8
:1004C0008B4201D3CB00C01A524183088B4201D327
:1004D0008B00C01A5241D9D243088B4201D34B0042
:1004E000C01A5241411A00D20146634652415B1084
:1004F000104601D34042002B00D549427047634665
:100500005B1000D3404201B5002000F005F802BDA9
:100510000029F8D016E770477047C04691400300A5
:1005200090409C46203A9340194352426346D34040
:10053000194370478446100062468C461900634692
:1005400000E0C0461FB501F0BBFA002801D400212D
:10055000C8421FBD10B501F0FFF94042013010BD87
:1005600010B501F0ADFA002801DB002010BD01201C
:1005700010BDC04610B501F0A3FA002801DD00202F
:1005800010BD012010BDC04610B501F029FA0028A9
:1005900001DC002010BD012010BDC04610B501F0E7
:1005A0001FFA002801DA002010BD012010BDC0464E
:1005B000844608006146FFE71FB500F0FBFC0028F9
:1005C00001D40021C8421FBD10B500F083FC404299
:1005D000013010BD10B500F0EDFC002801DB00205B
:1005E00010BD012010BDC04610B500F0E3FC00288E
:1005F00001DD002010BD012010BDC04610B500F087
:1006000091FC002801DC002010BD012010BDC04677
:1006100010B500F087FC002801DA002010BD012091
:1006200010BDC0461C2101231B04984201D3000CBD
:1006300010391B0A984201D3000A08391B09984255
:1006400001D30009043902A2105C40187047C0466B
:10065000040302020101010100000000000000008B
:10066000002B11D1002A0FD1002900D1002802D07F
:100670000021C943080007B4024802A140180290B3
:1006800003BDC04695FEFFFF03B4684601B502985E
:1006900000F04CF8019B9E4602B00CBC7047C0466F
:1006A000F0B5CE469946030C9C46130447461B0CF6
:1006B0001D000E0061460404240C80B50700100CD8
:1006C0004B436543414360432C0CC01824188C46AF
:1006D000A34203D980235B029846C4444946794328
:1006E0005643230C2D042D0C8919634424046019EE
:1006F000C918C0BCB946B046F0BDC0469E2110B571
:10070000C905041CFFF784FF002803D1201C01F059
:100710006DF810BD9E21201CC90500F0EDFD01F013
:1007200065F880231B069C466044F2E7F0B5574607
:100730004E464546DE46E0B504000D009246994619
:1007400083B08B4230D82DD04946504602F080F914
:1007500029000600200002F07BF9331A9846203B5E
:1007600034D49B4653465A46934042461F00534654
:1007700093401E00AF423BD8AF4200D179E05B46C8
:10078000A41BBD41002B00DA76E00022002300927A
:10079000019301235A46934001930123424693401B
:1007A000009329E08242CFD90022002300920193D6
:1007B0000C9B002B01D01C605D600098019903B078
:1007C000F0BCBB46B246A946A046F0BD42469B4699
:1007D00020239B1A5246DA40414613004A468A407B
:1007E000170042461F43534693401E00AF42C3D9F1
:1007F00000220023009201934346002BD8D0FB0730
:1008000072081A4346467B080EE0AB4201D1A24271
:100810000CD8A41A9D41012024196D410021013EEC
:1008200024184D41002E06D0AB42EED9013E2419CA
:100830006D41002EF8D1009801995B46001969417D
:10084000002B24DB2B005A464446D3402A00E240CA
:100850001C005B461500002B2ADB26009E4033005F
:1008600026004746BE403200801A9941009001910F
:100870009EE7A342BCD882E74246202300219B1A70
:100880000022009101920122DA40019285E742465E
:1008900020239B1A2A0046469A402300F3404446F0
:1008A00013432A00E2401C005B461500002BD4DAFB
:1008B00042462F002023260097409B1ADE403B0033
:1008C0003343CDE7F8B54B025A0A94464A00C90FA4
:1008D000CE4647468946450046022D0E120E80B58B
:1008E0009909770AC40FB609AB1A4C4520D0002BE2
:1008F0000CDD002A34D100292AD05A1E012B00D148
:100900008FE0FF2B00D1CDE013002FE0002B60D053
:10091000531B002D00D0EEE0002E00D13EE15C1E06
:10092000012B00D16BE1FF2B00D1B9E02300E7E000
:10093000002B00DCA4E0002A69D0FF2D00D1B1E03B
:100940008022D20411431B2B00DCE9E02B0005368A
:10095000F708FF2B00D1A5E07A02520AD8B230E0A6
:10096000FF2D00D19EE08022D204114301201B2BD9
:1009700008DC08002022D840D31A99400B005A1EE8
:1009800093411843361A730100D471E0B601B709D8
:100990003800FFF747FE3B000538834085424DDDB8
:1009A000B44E2D1A1E405A0768D00F221340042B54
:1009B00064D00436730161D5681CFE2D54D1FF202C
:1009C0000022C0051043E4072043C0BCB946B0462E
:1009D000F8BDFE229046681C0200404610426BD1D2
:1009E000002D00D0DDE0002E00D102E10029B3D0BF
:1009F0008022771AD204174200D136E14C468E1B72
:100A000061D00120164230D10023F708A4E7002965
:100A10009ED05A1E012B00D1CAE0FF2B42D01300FA
:100A200091E7711A4B0100D4D1E08F01BF09380062
:100A3000FFF7F8FD3B000538834001252022401BCD
:100A40000130121A1E009340C6405A1E93411E43A5
:100A500039D0730700D11BE10F2300253340042B4D
:100A6000A7D1012072017CD5C0B2B201520AA8E719
:100A7000730703D00F233340042B9AD12B0067E771
:100A8000002B23D0531B002D7BD1002E00D186E0FC
:100A90005D1E012B00D18BE0FF2B02D02B0075E0F7
:100AA0004C466746002F00D189E78022D2033A43A3
:100AB0005202FF20520A84E7771A7B016BD4002F81
:100AC00000D065E70024002000227AE7FE226B1C9C
:100AD0001A4249D1002D00D09FE0002E00D1BAE08B
:100AE000002900D1CFE07218530100D4CDE092016B
:100AF0000120520A65E7FF2AD2D08020C0040643B5
:100B000001201B2B08DC30002024D840E31A9E4033
:100B100033005C1EA34118434C4615000E1A32E701
:100B200008002022D840D31A99400B005A1E934146
:100B30000343F61873019BD50135FF2D00D13EE725
:100B400001234D49720833400A401A4316005307E7
:100B500004D00F231340042B00D02AE7730100D5E3
:100B60002AE72B00F708F7E6FF2B00D127E77118DB
:100B700049084A072FD00F220A40042A2BD00E1D05
:100B8000E6E6FF2A8DD08020C00406431B2B24DD1F
:100B900013004E1DDCE64C468F1BF9E64C460E005A
:100BA000D6E6002E49D1002968D067464C467CE73E
:100BB0007018430174D5304940080140430709D0FB
:100BC0000F230340042B05D002230E1DC0E6012392
:100BD000CF08C1E60223CF08BEE620253000D8406A
:100BE000EB1A9E4033005D1EAB41034315005E18B7
:100BF000A0E7002900D165E74C466746ACE68F1BAD
:100C00007B012ED5BF01BF093800FFF70BFD3B006C
:100C1000053883404C46013510E7002E00D140E7EF
:100C2000002900D141E78023DB039F4200D23CE74B
:100C30009C4500D339E7674637E7002900D134E700
:100C40008023DB039F4200D22FE79C4500D32CE793
:100C50004C46674629E7002900D134E70023CF0836
:100C60007AE64C460123FF0876E6002F00D129E7FB
:100C7000FF0871E6FFFFFFFBFFFFFF7D80220024DE
:100C8000FF20D2039DE6002366E60023D70863E633
:100C90000120720100D5E7E631000023CF085BE6B2
:100CA0000123C70858E6C046F0B546464F46D6462B
:100CB0004502C0B5C30F470098460E1C6D0A3F0E93
:100CC0005BD0FF2F21D08023ED00DB041D430023E8
:100CD00099469A467F3F74027300640A1B0EF60F12
:100CE000002B20D0FF2B43D080220020E400D20430
:100CF00014437F3B4246FF1A4B4672400F2B00D9EC
:100D00009DE071499B00CB589F46002D5AD1082386
:100D10009946063B74029A467300FF27640A1B0E2D
:100D2000F60F002BDED1002C3BD101234246494671
:100D3000724019430E2918D86448890041588F46DB
:100D40005346022B00D1B8E0032B6ED042462C0054
:100D5000012B40D100200024C0052043D2071043BE
:100D6000E0BCBA46B146A846F0BDFF200024F3E738
:100D7000002C20D10223FF3FD8E7002D05D104230A
:100D80009946033B00279A46A5E72800FFF74AFC4F
:100D90007627431F9D4000237F4299469A463F1A7B
:100DA00099E72000FFF73EFC431F9C4076235B42FF
:100DB0001B1A00209EE703234A461A43914603204C
:100DC000FC3397E70C239946093BFF279A4682E7B5
:100DD00003282CD0320038007F30002847DD63071D
:100DE00004D00F232340042B00D00434230103D567
:100DF0003800374B80301C40FE28B6DCA401640A62
:100E0000C0B2A9E780240022FF20E403A4E78023E6
:100E1000DB031D4201D01C420BD08024E4032C4391
:100E200064024246FF20640A96E746462C0080236F
:100E3000DB031C4364023200FF20640A8CE76D016F
:100E4000600185422DD21B230024013F0126290089
:100E500064006D00002901DB854201D32D1A344363
:100E6000013B002BF3D16B1E9D412C43B3E70123C3
:100E70001B1A1B2B00DD6DE721009E37D940BC40BB
:100E80000B00611E8C412343590704D00F211940E8
:100E9000042900D00433590113D49B0100205C0ABB
:100EA0005AE71A2301242D1AD0E7981E43425841CD
:100EB000404232000024C0B24EE74246FF200024E8
:100EC0004AE70120002447E740D1061080D10610F0
:100ED000FFFFFFF770B542004E024C0045026D0A5D
:100EE000120EC30F760A240EC90FFF2A10D0FF2C52
:100EF0000CD00120A2420AD1B54208D18B420FD0BA
:100F0000002A04D12800431E984100E0012070BD52
:100F10000120FF2CFBD13543F9D14B401800F6E7F7
:100F20000020F4E730B5420044024D02C30F4800F0
:100F3000640A120E6D0A000EC90FFF2A18D0FF288E
:100F40000AD0002A1ED100280AD1002D29D0002C59
:100F50002DD14800013830BD002D25D1002A01D106
:100F6000002CF6D08B4219D001205B421843F2E7E7
:100F7000002C19D1FF28F7D1002D15D100208B426C
:100F8000F2D1E8E70028EFD08B42EDD18242EBDCD2
:100F900004DBAC42E8D80020AC42DCD25800013877
:100FA000D9E7002CD7D0DFE702204042D3E78B42BD
:100FB000DAD1EEE730B5420044024D02C30F4800DB
:100FC000640A120E6D0A000EC90FFF2A17D0FF28FF
:100FD0000AD0002A1BD100280AD1002D1DD0002CD8
:100FE0002DD14800013811E0002D0ED1002A01D189
:100FF000002CF6D08B420CD15800013806E0002CB2
:1010000003D1FF2805D1002D15D0022030BD0028C6
:1010100006D101205B421843F8E7002CF6D0F8E730
:101020008B42F6D18242F4DCE6DBAC42F1D8002000
:10103000AC42EBD2E0E700208B42EAD1E6E78B42FC
:10104000E7D1F2E7F0B54F464646D6464400C0B574
:1010500046020F1C760A240EC50F002C00D1DAE0E0
:10106000FF2C74D08023F600DB041E430023994636
:101070009A467F3C7B025B0A98467B001B0EFF0F63
:10108000002B74D0FF2B00D18EE042468021D2008D
:10109000C90411437F3B2A00E4184B467A40884636
:1010A000D2B20A2B75DC4B460020022B0FDD4946DD
:1010B00001238B40A621C9000B4269D190218900F0
:1010C0000B4200D000E18821194200D0F5E04146F2
:1010D0000904090C43460800350C36041B0C360C79
:1010E000704369435E435D437618030C9B19994234
:1010F00003D9802149028C46654400041904000C80
:1011000009188E01701E86411B0C890E5B190E4357
:101110009B011E431B016CD423007F33002B00DC9A
:10112000B1E0150071070BD00F20210030400428DA
:1011300006D00436320103D56E4B1E400B008033BF
:10114000FE2B00DDBDE0B201520ADBB248E0002E0A
:1011500000D092E008239946063B9A467B025B0A40
:1011600098467B00FF241B0EFF0F002B8AD14246BE
:10117000002A64D149460132114389460A2908DC14
:101180007D400120EAB2022991DC1500002227E00F
:1011900015005346022B00D193E0032B1AD0012BEC
:1011A0002CD1002300221BE04346FF34002B55D0F6
:1011B00003214B460B4319000A2B00DC92E00F2B56
:1011C00000D08CE08022D203164203D04346134263
:1011D00000D17DE08022D20332435202520AFF2323
:1011E000D805ED0710432843E0BCBA46B146A846EF
:1011F000F0BD0123150071081E400E43230080330B
:10120000611C002B41DD720794D00F223240042A6A
:1012100000D08EE78EE7002E05D104239946033BCC
:1012200000249A4626E73000FFF7FCF97624431F96
:101230009E400023644299469A46241A1AE7404683
:10124000FFF7F0F94B46241A763C0A2BA1DC434603
:10125000053883407D409846EAB224E74A46023387
:1012600013432A007A40D2B20A2B92DC4946150079
:10127000002926D09946022019E70C239946093BFC
:10128000FF249A46F6E6150021000122D31A1B2BF3
:1012900000DD86E79E3132008E40DA40731E9E41AB
:1012A0003243530704D00F231340042B00D00432E1
:1012B000530110D50123002292E73D0046468246A5
:1012C00067E7FF2300228BE780220025D20386E711
:1012D0003D001A4383E792010023520A80E73D0054
:1012E000464677E72A0001237A408B400320D2B29A
:1012F000E9E6C046FFFFFFF7F8B54746CE46430292
:1013000080B55F0A9B0945004A009C464B02C40F0A
:10131000CE0F2D0E580A120E9909FF2A6BD0012309
:101320005E40AB1AB4424BD0002B00DCFFE0002A39
:1013300000D188E0FF2D00D1EFE08022D2041143DC
:1013400001201B2B08DC08002022D840D31A99402A
:101350000B005A1E9341184363461B1A9C46634672
:101360005B0100D4CDE063469F01BF093800FFF761
:1013700059F93B0005388340854200DCA2E0B74ABA
:101380002D1A1A4094465A0700D1C3E00F22134089
:10139000042B00D1BEE004239846C44463465B019D
:1013A00000D4B7E0681CFE2D00D0A5E0FF2000228D
:1013B000C0051043E4072043C0BCB946B046F8BDA1
:1013C000002B00DCEBE1002A46D0FF2D00D1A4E089
:1013D0008022D20411431B2B00DCFBE0052398463E
:1013E0002B00C4446246D708FF2B00D195E07A0257
:1013F000520AD8B2DCE72B00FF3B9946002918D1EE
:1014000001235E40B44200D1CAE04B46002B2DD0F0
:10141000002D00D03CE1FF236446002C00D15FE1A9
:101420005D1E012B00D174E13400FF2B74D02B0022
:1014300003E1B44200D19CE0002B17D0002DEAD08C
:10144000070034006CE00029CCD05A1E012B2BD0B1
:10145000FF2B62D0130073E70029C3D05A1E012B63
:1014600000D11EE1FF2B58D01300B4E7FE226B1C05
:101470001A420DD1002D60D06346002B00D020E130
:10148000002900D028E180220024FF20D2038FE72A
:1014900063465F1A7B0100D5FEE0002F00D065E7B0
:1014A00000240020002283E76346591A4B0100D430
:1014B00019E18F01BF093800FFF7B4F83B00053888
:1014C000834001252022401B0130121A190093404D
:1014D000C1405A1E934119438C460B1EE1D05B0755
:1014E00000D152E10F2300250B40042B00D052E71E
:1014F00001204A0100D492E0C0B263469A01520A28
:1015000056E763465B0705D00F2362461340042B62
:1015100000D040E72B0065E70700002F00D145E72A
:101520008022D2033A435202FF20520A40E7002BA6
:1015300079D1FE226B1C1A42AAD16346002B00D13E
:10154000F5E0002900D1D1E05F1A8023DB041F42BF
:1015500000D10EE1624601248A1A944600203440EC
:10156000002A00D124E701201A42C6D10023D7085F
:101570003DE7002B17D0002D00D0AFE0FF236546DC
:10158000002D00D1ADE05E1E012B00D189E0FF2BC4
:10159000C2D01B2E00DCABE04B1D9C46130021E7A4
:1015A0004B46002B70D1FE226B1C1A425ED1002DDF
:1015B00000D0C3E06346002B00D1D0E0002900D169
:1015C00094E00A006244530100D4D8E09201012063
:1015D000520AEDE608002022D840D31A99400B00A9
:1015E0005A1E934103439C4463465B0189D50135F0
:1015F000FF2D00D1DAE66246012319491340520853
:101600000A401A43130094465B0704D00F2313408B
:10161000042B00D0BFE663465B0100D5C2E66346FB
:10162000DF082B00E3E6531B002D00D1F4E68020F9
:101630006446C0040443A446340001201B2B09DC8B
:1016400020256046D840EB1A65469D402B005D1E64
:10165000AB4118430B1A9C46150080E6FFFFFFFBC9
:10166000FFFFFF7DFE226B1C1342A3D0FF2B00D196
:101670009CE6614449084A0749D00F220A40042ADF
:1016800045D00A1D9446ADE6002D00D176E78DE6E3
:101690003400FF2000228BE663460124CF1A344039
:1016A00064E661444B016DD5480844490140430755
:1016B0002CD00F230340042B28D00B1D9C46022363
:1016C00090E6002900D12BE78023DB039F4200D264
:1016D00026E7984200D323E70124344007001FE7A0
:1016E00034008C467EE60123CF0880E600237EE6A8
:1016F00020206546801B854063462800F340451E38
:10170000A84103439C4615008C446DE70223CF0893
:101710006DE60F1B7B0128D5BF01BF093800FEF71E
:1017200081FF3B000538834034000125CAE60029CB
:1017300000D1B5E601240700344058E66346002B8B
:1017400000D1E9E6002900D1EAE68023DB039F42CD
:1017500000D2E5E6984200D3E2E60700E0E6002981
:1017600000D19EE60023CF0841E634000123FF08A4
:101770003DE6002F00D193E60023FF0837E6002363
:10178000D70834E60123CF0831E680220B00D204CB
:1017900001201340114200D0AEE6CF0827E6002B0F
:1017A00000D15FE7561B002D01D13300E7E680230F
:1017B0006046DB0418438446EBE6C046FFFFFF7D2E
:1017C00043024A02400049005B0A520A090E000E19
:1017D000FF2806D00020FF2902D1531E9A41100095
:1017E0007047FE38002BFBD1F4E7C04641024200AF
:1017F000C30F490A0020120E7E2A03DD9D2A02DD56
:10180000094A98187047802000040143952A07DC94
:101810009620821AD1404842002BF3D10800F1E70C
:10182000963A9140F7E7C046FFFFFF7F70B500286A
:1018300012D0C317C5185D40C40F2800FEF7F2FE92
:101840009E231B1A962B0FDC082838D008388540B9
:101850006D026D0AD8B202E0002400200025C00508
:101860002843E407204370BD992B14DC421F9540A8
:101870002A001549114055071CD00F252A40042A7B
:1018800018D00431CA08490115D59F235202181AED
:10189000550AC0B2E3E705222900121AD14002001E
:1018A0001B3295402A00551EAA410A4306491140A1
:1018B0005507E2D1CA085202550AD8B2CFE76D02E5
:1018C0006D0A8E30CBE7C046FFFFFFFB10B5041E4C
:1018D0000DD0FEF7A7FE9E231B1A962B0CDC0828C2
:1018E00034D0083884406402640AD8B201E0002091
:1018F0000024C005204310BD992B13DC421F9440E7
:10190000144A224061071CD00F212140042918D01D
:101910000432D408520115D59F236402181A640AB0
:10192000C0B2E6E7020021001B3291400A00511EBE
:101930008A410521091ACC401443064A2240610716
:10194000E2D1D4086402640AD8B2D2E76402640A1D
:101950008E30CEE7FFFFFFFBF0B55746DE464E4622
:101960004546E0B50D000400E80F83460903D80F93
:10197000090B824619488C461F0369005E00490D19
:101980003F0B760D814218D086420FD00120B14224
:101990000DD1BC450BD1944209D1D3451CD00029AF
:1019A00005D160462043431E984100E00120F0BC71
:1019B000BB46B246A946A046F0BD01208E42F6D1F4
:1019C000614639430F0017432743F0D15B46524627
:1019D000981A431E9841EAE70020E8E7FF07000055
:1019E000F0B557464E464546DE46E0B50D000E03BF
:1019F0004900490D8A46DF0FE90FBC4683B02F4FDF
:101A0000040080460191580019039146360B090BDA
:101A1000400DBA451DD0B8420DD05746002F2AD1EF
:101A20003443002824D10A4336D0002C41D16346E8
:101A30005800013815E0114338D15346002B01D12D
:101A40002643F4D0019B634507D1019B5800013820
:101A500007E026432AD1504521D00120019B5F4257
:101A6000384303B0F0BCBB46B246A946A046F0BD21
:101A7000002CDCD0E6E70028EFD0019B6345ECD1D9
:101A80008245EADCE1DB8E42E7D8DED1C845E4D806
:101A90000020C845E5D2D8E7002CE2D0DDE71143AD
:101AA00004D1019B6345D8D10020DAE702204042EF
:101AB000D7E7019B6345E6D0CFE7C046FF070000AC
:101AC000F0B557464E464546DE46E0B50D000E03DE
:101AD0004900490D8A46DF0FE90FBC4683B02E4FFF
:101AE000040080460191580019039146360B090BFA
:101AF000400DBA451ED0B8420DD05746002F27D111
:101B00003443002833D10A4334D0002C40D16346FB
:101B10005800013815E0114312D15346002B01D172
:101B20002643F4D0019B63451DD00120019B5F42F9
:101B3000384306E0264303D15045F6D111431CD06B
:101B4000022003B0F0BCBB46B246A946A046F0BD99
:101B50000028EAD0019B6345E7D18245E5DC02DB42
:101B60008E42E2D80ED0019B58000138E9E7002CE4
:101B7000CDD0D7E7002CE4D0D7E7019B0020634508
:101B8000DFD0D2E7C845D0D80020C845D9D2EAE78F
:101B9000019B6345E4D0C8E7FF070000F0B5574656
:101BA0004E46DE464546E0B51F000B031B0B1600F4
:101BB0009A46CA0F4B000400914685B05B0D00D1D8
:101BC000CFE1CD4A934255D05146420FC9000A4356
:101BD000802109041143C2009046C84A8A469346B0
:101BE0009B440023002502933C037B00FA0F0196DF
:101BF000240B5B0D009200D188E1BF4A934200D1D3
:101C000092E0BE4A944663449B440A2D42DCE400C1
:101C1000730F23438024494624041C43F30001939B
:101C2000009B00205940CBB20393022D00DC94E0CE
:101C30000123AB401D00A6232A00DB001A401D42F1
:101C400000D029E290239B001D4200D14DE20023E9
:101C5000802499462403A84B10004A461B052343C1
:101C6000D2071343190005B0F0BCBB46B246A946E3
:101C7000A046F0BD52460243904600D0ACE19B46E0
:101C80000223924608250293AEE7009BA24699469E
:101C9000019B9846029B022B00D1CAE1032B00D185
:101CA00092E1012B10D1002300240022D4E701226D
:101CB0007B083A4013435246D20713439846534693
:101CC0005B089A46039B99465B46581C8023DB00C1
:101CD0005B44002B00DCB1E1424652070BD00F22DF
:101CE00041460A40042A06D04246111D4145924110
:101CF0008846524292445246D20106D55246804B03
:101D00001A4080239246DB00C3187E4A934200DDCE
:101D10008FE14246D108524652070A4351465B05BD
:101D20004C02240B5B0D97E7734B26439C46E34420
:101D3000002E00D16FE1032349461D43009B59400B
:101D4000CBB203930A2D00DD33E10123AB401D002C
:101D50000323029388222A4297D142464346120423
:101D6000120C160001981D0C030C0004000C4643D5
:101D7000B4461E006E430096160007005E4361469F
:101D8000B0466F430E0CB8444644B74205D9802193
:101D900049028846009F4744009761460904090CA0
:101DA000370C36048C463100614401911100260C39
:101DB0002404240C61438C46210069438946614612
:101DC000090C884672434A4442447543914503D9FD
:101DD0008021490288464544110C88466146090421
:101DE000090C8C4612046244B91802915146090C40
:101DF0008C4651460F043F0C390041434544884608
:101E0000614641438A4641466046090C894658432B
:101E10007B4353444B449A4503D980214902894668
:101E20004844190C894641460904090C8846390082
:101E300061431B044344884661464C4371438C46CE
:101E4000414677430E0C3F19F6194844B44203D972
:101E5000802149028946CC440299009F8946310479
:101E60004F4489464146974292410C04240C4C440D
:101E7000FF1852426419A1189F429B41884682462E
:101E80005B42994690459241AC42A441C244D14440
:101E900052426442144399459B41824592415B42C0
:101EA000524213434A46360CA419E31863445B02BA
:101EB000D20D1A43019992467A020A43501E82417A
:101EC000FF0D17434A4652021743B846DB0100D5BF
:101ED000EDE60D4B039A5B449146002B00DCACE031
:101EE0003A00520700D110E70F2258463A40042A20
:101EF00000D0F9E609E7C046FF07000001FCFFFF3C
:101F0000FFFFFFFEFE070000FF0300002200324338
:101F10006FD0002C00D1C2E02000FEF783FB02004E
:101F200003000B3A1D20821A30001900D0400839F6
:101F30008C400200224334008C405946CB1A86491B
:101F40008B469B440A2D00DDA4E64946009B019484
:101F50005940CBB2140000200393022D00DD67E648
:101F6000FBE65346034398463CD05346002B00D132
:101F7000A3E05046FEF756FB0B235B429C46020053
:101F8000844411005046083988401D23804660462D
:101F90001B1A2000D8400300404603439A46230002
:101FA0008B4098466C4B00259B1A9B46002302935E
:101FB0001AE60F2D00D0C9E0802352461B031A42B7
:101FC00002D01C4200D192E08024534624031C43DB
:101FD00024034246240B3EE69B46032380460C2501
:101FE000029301E600239A469B460133042502939F
:101FF000FAE501210D430A2D00DD4BE64946009824
:102000004140C9B20391022D00DC96E00023002478
:10201000012001930CE649460223009A2B435140CC
:10202000CAB203920A2B00DD34E6002D57D1039B80
:10203000994600240022494B0EE658460121C91A50
:10204000382900DD2FE61F2956DD1F225446524253
:10205000D31ADC40202907D0414B42469C465346C8
:10206000604483401A43904642460721531E9A41DA
:102070000B00224313400024114209D00F231340C8
:10208000042B5DD0111D91429B410A005B425B070E
:10209000D2081A430023DFE5039B9946FAE501982D
:1020A000FEF7C0FA02000300153220331C2A00DCC0
:1020B00038E7019A083882403FE7FEF7B3FA152364
:1020C0009C4684440200634620321C2B00DC58E707
:1020D000002398462300083883409A4662E71D0093
:1020E0000023002402200193A2E5029032E61C4363
:1020F000009B019A9946AEE51A4B5246C3184046DA
:102100009A40C8400243404698400300581E83410D
:1021100054461A43CC40530709D00F231340042BD5
:1021200005D0131D934292415242A4181A00230273
:1021300008D50123002400228EE5894600248BE582
:102140000023A5E763076402240BA1E7009BA246D6
:102150009946019B984637E70DFCFFFFFF070000FB
:102160003E0400001E040000F0B557464E464546AA
:10217000DE46E0B583B0009001910C034D00CE0F18
:10218000610A009C5F00640F0C4300990092019368
:10219000C80019037B0D9946019BCC4FDB0F9C4671
:1021A0004B0A00998046490F1943009B8B46DA0081
:1021B00092466D0DB94500D1BFE0012361465940FB
:1021C0004B468C46EB1A8E4275D0002B00DCA3E206
:1021D0004946002900D1CEE0BD4200D100E20127EE
:1021E000382B19DC802759463F0439438B461F2B77
:1021F00000DDFAE12027F91A8C4659466746B940B6
:102200000F001100D9400F4361468A40511E8A4198
:102210005946D9401743641AC71BB842804140420F
:10222000241A230200D440E16402640A002C00D185
:1022300054E12000FEF7F6F90300083B20213800A6
:10224000CA1AD0409C4002009F4022439D4200DDBC
:10225000A6E1581B0130091A3C008F40C4407B1E88
:102260009F4113008B4027431F43C2403B00140093
:102270000025134300D1F7E17B0700D177E30F235B
:1022800038003B40042B04D0381DB842BF417F4288
:10229000E419230200D468E38C4B01359D4200D140
:1022A000F4E08B4B6D051C406D0D6707C0086402A0
:1022B0000743240BECE0002B00DC29E3494600290E
:1022C00000D0D6E05946114300D12EE1591E012B12
:1022D00000D1E6E1BB4200D182E101270B003829A1
:1022E00014DC1F2B00DD3CE22027F91A8C465946EE
:1022F0006746B9400F001100D9400F4361468A403C
:10230000511E8A415946D940174364183F188742E5
:10231000804140422418230200D4C6E06B4B0135B3
:102320009D4200D1B2E00121694B7A081C4039403E
:102330000A43E707174364089EE7664B11438A4642
:10234000EB18002928D066452CD0002B5BD0002D3F
:1023500000D12CE15B4666465F07D2081743DD08D3
:102360003B002B4300D1E2E0802424032C432403D0
:10237000564D240B8CE05946114300D1D5E0591E2F
:10238000012B00D1B9E1BB4200D1B1E101270B0023
:10239000382900DD40E72AE76146012779408C466D
:1023A0006645D2D1002B00D1C5E0002D00D055E10B
:1023B0004B462500054300D112E2591E8C46012BE5
:1023C00000D149E2414DAB4200D18FE201273829CB
:1023D00011DC63461F2B00DD5BE2614620232700F2
:1023E0005B1A050098409F40CD40431E9841CC4069
:1023F0002F430743A344BF189742924152425A4485
:1024000014004D4687E7344F6B1C3B4200D0B6E0CA
:102410005946230011430F000343002D00D026E14D
:10242000002B00D1C0E1002900D1A1E0831A984619
:102430005B464045AD41E31A6D425B1B80252D0490
:102440002B4200D14BE15B46101A824292411C1B89
:102450000700012663465242A41A27431E40002F5C
:1024600000D142E12C4200D16DE2194B01251C4004
:102470001BE7BD4200D13BE10127382B00DD45E7DA
:10248000802759463F0439438B462AE7002400271A
:102490002D052543F60735433800290003B0F0BC6D
:1024A000BB46B246A946A046F0BD7B0704D00F2329
:1024B0003B40042B00D0E7E62B00F808034A6707EF
:1024C0000743E508934200D14AE7A5E0FF07000073
:1024D000FFFF7FFF01F8FFFFFE0700003800FEF757
:1024E000A1F8030018331F2B00DCA7E63A000838D8
:1024F00082409D4200DD8AE05B1B581C1F2800DCE7
:10250000D8E117001F3BDF40202805D040231B1ACD
:102510009A40531E9A4117430025002F00D1E5E051
:102520007B0700D0ABE62C00C6E7C008C6E7002753
:102530000024D14DACE7D14F6B1C3B4271D123003D
:102540000343002D00D04EE15746002B00D1B5E1EA
:10255000002F0DD08318834280415C4440422418F0
:10256000220200D5C8E11F009846274300D1BCE0F5
:1025700043466707DB081F43E50800234CE0831A46
:1025800098465B464045BF41E31A7F42DB1B1F0272
:102590007CD447461F4300D1A6E01C00474645E6D1
:1025A000B74CED1A14407B0700D080E784E74B4618
:1025B0002500054366D05F1E012B00D1FCE0AE4D27
:1025C000AB4200D15EE16646382F00DCB4E001206A
:1025D000171ABA4292415B4652424D469C1A20E677
:1025E0006707C0080743E508BAE61F005946203FC1
:1025F000F9400F00202B05D04021CB1A59469940B5
:102600000A43924653465A1E93411F4304E6EB1A6F
:102610009B4D15406F07ED082C035D05240B6D0DD8
:1026200036E7954DAB4200D1D6E0821821008242B8
:102630008041594440420818C707520817434408CC
:10264000520700D485E10F221D003A40042A00D031
:102650001AE6FF08640727430509DDE75B46D20851
:102660005F071743DD087BE60027002410E7002BF7
:1026700000D0D6E0002900D02FE1802400267E4D36
:10268000240305E766465C46D00817E75B46171A41
:10269000BA4292411C1B012663465242A41A1E40B4
:1026A000C4E58318834280415C44404225182A02D5
:1026B00000D4DAE0724A5B081540EA071A43690859
:1026C0005B0700D44AE10F231340042B00D1FCE048
:1026D000171D9742A441644202256418ECE6474660
:1026E0001C001F4300D043E7002600250024CFE64E
:1026F000C00867070743E50832E6871A5B46B84219
:102700008041E41A4042241A230228D46307FF08B8
:102710001F43E50801237FE7002B00D173E64B46FA
:102720005F1B3B00002D00D142E7382F00DDECE0BD
:1027300080230E001B041C431F2F25DC20252300B3
:10274000ED1B0100A840AB40F940451EA8410B43DA
:10275000FC4018435B461B1B9B4639E76646012538
:1027600062E51F005946203FF9408C46202B05D0DA
:1027700040275946FB1A99400A43924657467B1E0A
:102780009F4163461F43C1E53B002500203BDD40E0
:10279000202F04D04023DB1B9C4020438046404632
:1027A000431E9841284313E700299DD00126634624
:1027B0005C4690461E40DBE6171A5B46BA429241E1
:1027C0001C1B5242A41A2302C8D46307FF081F43EC
:1027D00066460123E5081FE71D000024002757E691
:1027E0005C46D0086AE6002B00D137E75346C008A4
:1027F00067070743E508002B00D1B1E580231B03E1
:102800001D4208D05946C808184204D1D2084907C9
:102810000A43170005007B0FFF00FF085B071F43FB
:102820009EE5C00863071843E508002953D08023BC
:102830001B031D420AD05946CC081C4206D1012672
:1028400063462500D008490708431E40470FC000D3
:10285000C0087F07074383E58318934292415C4495
:102860005242A5182A0200D524E76F07DB081F4350
:10287000ED080123D0E6C046FF070000FE07000078
:10288000FFFF7FFF5B46D2085F0766461743DD0800
:1028900066E52500203BDD406346202B05D0402324
:1028A00061465B1A9C402043804647467B1E9F4101
:1028B0002F43A0E520210027091AD2E4002F00D1E0
:1028C00013E75C4617000025F6E5D7084907022301
:1028D0000F432D09A0E6070042E55B4601265F078E
:1028E000DD086346D20817431E4039E55B46D2082F
:1028F0005F071743DD0833E51E4ADB082240570710
:10290000520201251F43140BC2E50E0001205FE6B1
:10291000002B0DD04B465B1B9C46002D00D148E59B
:102920000127382B00DD66E580231B041C4350E59E
:102930006B1C114D2B4200D073E659462300114306
:102940008A46034300E66707C00800230743E508FB
:1029500062E66407FF08274305095DE6D2084907D8
:1029600011430F0002232D0956E60700A4E53800A5
:102970008FE4C046FFFF7FFFFE0700000B00020050
:1029800070B5164D0C0382B04900002000920193EF
:10299000240B490DDE0FA94204DD1148814203DDFD
:1029A000104BF01802B070BD8020400320430E4C45
:1029B000641A1F2C08DD0D4B5B1AD84003005842E7
:1029C000002EEFD11800EDE7094B009A9C4603005A
:1029D00061448B40E2401343F1E7C046FE03000030
:1029E0001D040000FFFFFF7F3304000013040000FC
:1029F000EDFBFFFF70B5002816D0C317C5185D406A
:102A0000C40F2800FDF70EFE104B1B1A5B055B0D73
:102A10000A2814DC02002E00153296400B22121AEE
:102A2000D5402D032D0B03E00024002300250026B4
:102A30001B052B43E40723433000190070BD0B38FE
:102A400085402D0300262D0BF2E7C0461E04000032
:102A500010B5002903D1FDF7E5FD203002E00800A4
:102A6000FDF7E0FD10BDC04680B582B000AF254B3C
:102A70003B603B68A8220021180028F07FF83B68E3
:102A800003221A613B6803225A613B681E4A9A611D
:102A90003B681E4ADA613B68802252011A623B6839
:102AA00000229A623B6800225A623B680022DA6286
:102AB0003B68154A1A663B68154A5A663B681022FD
:102AC0009A663B6800221A673B680022DA663B6818
:102AD00000225A6700237B600CE07B680F22D31A28
:102AE0000C4AD15C3A687B68D3180A1C1A707B6860
:102AF00001337B607B680F2BEFD9C046C046BD46D3
:102B000002B080BD7C0100204CBF061024020020D2
:102B100024120020BCD1061080B58AB000AFF86046
:102B2000B9607A6000233B62FB68DB68FB61FB688D
:102B30001B69BB61BA69FB699A4205D9BA69FB692D
:102B4000D31A013B7B6207E0FB689A68B969FB69AD
:102B5000CB1AD318013B7B62FB689A68FB69D21AD7
:102B60007B6A934200D913007B627A6A7B68934246
:102B700000D913007B62FB685A68FB69D3187B613C
:102B80007A6AB9687B69180028F05BF83A6A7B6A50
:102B9000D3183B62BA687B6AD318BB607A687B6AD9
:102BA000D31A7B60FA697B6AD318FB61FB689B6868
:102BB000FA699A4201D10023FB61FB68FA69DA6085
:102BC0007B68002BB3D13B6A1800BD460AB080BDBC
:102BD00080B588B000AFF860B9607A60FB68DB68E8
:102BE000FB61FB689A68FB69D31ABB61BA697B68B1
:102BF0009A4210D9FB685A68FB69D3183B617A681E
:102C0000B9683B69180028F01CF8FA697B68D2188B
:102C1000FB68DA601EE0BB697B61FB685A68FB6990
:102C2000D3183B617A69B9683B69180028F009F844
:102C30007A68BB69D31A7B61FB685B683B61BA68E1
:102C4000BB69D1187A693B69180027F0FAFFFB6865
:102C50007A69DA60C046BD4608B080BD80B586B0EE
:102C600000AF78607B681B693B617B68DB68FB6059
:102C70003A69FB689A4208D87B689A68FB68D21A5E
:102C80003B69D318013B7B6104E03A69FB68D31AC6
:102C9000013B7B617B691800BD4606B080BD00002A
:102CA00080B588B000AFF860B9607A60BB68BB617E
:102CB000FB685A1C13005B009B18DB00234A9B181F
:102CC0007B617B695B69022B2ED036D8002B02D04A
:102CD000012B16D031E07B691800FFF7BFFF03001E
:102CE0003B613A697B689A4202D20023FB6127E08C
:102CF0007B68FB617A68B9697B691800FFF768FF38
:102D00001EE07B691800FFF7A9FF03003B613A69E9
:102D10007B68934200D91300FB61FA69B9697B694A
:102D20001800FFF755FF0BE07A68B9697B69180056
:102D3000FFF7F2FE0300FB6102E00023FB61C046E7
:102D4000FB691800BD4608B080BDC0467C0100206C
:102D500080B588B000AFF860B9607A600F4BFB6156
:102D6000FB691B78DBB2532B01D0FFF77DFEEFF33D
:102D70001083012181F31088BB617A68B968FB6810
:102D80001800FFF78DFF03007B61BB6983F3108898
:102D90007B691800BD4608B080BDC0467C0100209C
:102DA00080B584B000AF78600A00FB1C1A707B68A5
:102DB0009B68FB60FB685A1C7B685B689A420FD873
:102DC0007B681A68FB68D318FA1C12781A70FB68C3
:102DD0005A1C7B689A607B68DB685A1C7B68DA60E7
:102DE0007B689A687B685B689A4215D17B68186932
:102DF0007B6819687B689B681A00FFF7A9FF0200CF
:102E00007B689B689A4204D07B6801225242DA6058
:102E100002E07B6800229A60C046BD4604B080BDD7
:102E200080B58AB000AFF860B9607A603B60BB687B
:102E30003B6201237B620123FB6108E07968386A09
:102E4000FDF7F6F903003B62FB690133FB613A6A67
:102E50007B689A42F2D23A68FB699A4201D93B6890
:102E6000FB617B6B012213402BD13B6B002B28D0E5
:102E70007B6B0222134007D03B68002B04D11B233D
:102E8000FB1830221A7003E01B23FB1820221A7053
:102E90000EE03B6B013B3B631B23FB181A78FB687E
:102EA00011001800FFF77CFFFB68DB68002B07DBD5
:102EB0003B6B002B05D0FA693B6B9A42E9D300E0EB
:102EC000C046FB68DB68002B57DB3B68012B03D94E
:102ED0003B68013B3B600AE0796AB868FDF7A8F9F6
:102EE00003007B617A697B689A4200D204E07B6AC6
:102EF0007A6853437B62E8E7796AB868FDF798F926
:102F000003007B617B697A6A5343BA68D31ABB605A
:102F10001C4A7B69D3181A78FB6811001800FFF768
:102F20003FFFFB68DB68002B09DB7968786AFDF7F7
:102F30007FF903007B627B6A002BDDD100E0C04695
:102F40007B6B0122134018D03B6B002B15D00BE09C
:102F50003B6B013B3B63FB6820211800FFF720FF20
:102F6000FB68DB68002B07DB3B6B002B05D0FA69A5
:102F70003B6B9A42ECD300E0C046C046BD460AB067
:102F800080BDC04654D2061090B589B002AFF8603B
:102F9000B9607A603B60BB68DA179B1853403B61AD
:102FA00001237B6109E07B6819003869FDF7CAF9E4
:102FB00003003B617B6901337B617B683A699A421C
:102FC000F1DA3A687B699A4201D93B687B61BB6A56
:102FD000002B09D0BB68002B03DBFB6A04221340E3
:102FE00002D0BB6A013BBB62FB6A0222134002D0E3
:102FF0003B68002B1CD0FB6A0122134018D1BB6A2E
:10300000002B15D00BE0BB6A013BBB62FB682021A3
:103010001800FFF7C5FEFB68DB68002B07DBBB6A07
:10302000002B05D07A69BB6A9A42ECD300E0C04617
:10303000FB68DB68002B4BDBBB68002B08DABB6846
:103040005B42BB60FB682D211800FFF7A9FE08E07A
:10305000FB6A0422134004D0FB682B211800FFF701
:103060009FFEFB68DB68002B32DBFB6A0222134009
:103070001FD0FB6A012213401BD13B68002B18D1E3
:10308000BB6A002B15D00BE0BB6A013BBB62FB683F
:1030900030211800FFF784FEFB68DB68002B07DB9C
:1030A000BB6A002B05D07A69BB6A9A42ECD300E078
:1030B000C046FB68DB68002B0ADBB9683C687A68AD
:1030C000F868FB6A0193BB6A00932300FFF7A8FE30
:1030D000C046BD4607B090BD90B5A5B002AFF86040
:1030E000B9607A6054217B181422BA181A607B18D0
:1030F00040225A607B1800229A607B18FA681A6195
:103100007B180022DA6087217B18BA6812781A705F
:10311000BB680133BB607B181B78002B00D1A2E198
:103120007B181B78252B00D08DE100237B670123C2
:103130008022BA18136087217B18BA6812781A7037
:103140007B181B78302B10D027DC2D2B05D024DCEE
:10315000232B1AD02B2B10D01FE07B6F012213439F
:103160007B67BB680133BB601CE07B6F02221343AB
:103170007B67BB680133BB6014E07B6F04221343A1
:103180007B67BB680133BB600CE07B6F0822134395
:103190007B67BB680133BB6004E000238022BA1860
:1031A0001360C0468023FB181B68002BC3D100238B
:1031B0003B6787217B18BA6812781A707B181B78D6
:1031C0002F2B12D97B181B78392B0ED8BB680133F3
:1031D000BB603A6F13009B009B185B001A007B18C2
:1031E0001B78D318303B3B67E3E77F217B18002235
:1031F0001A700023BB6787203B18BA6812781A70D0
:103200003B181B782E2B34D1BB680133BB60BB68E5
:103210001B782A2B0DD1BB680133BB607B180122C0
:103220001A707B681B68191D7A6811601B68BB6780
:103230001FE087217B18BA6812781A707B181B78F8
:103240002F2B16D97B181B78392B12D87F23FB180C
:1032500001221A70BB680133BB60BA6F13009B0078
:103260009B185B001A007B181B78D318303BBB6798
:10327000DFE78723FB18BA6812781A708722BB1819
:103280001B786C2B03D0BB181B78682B08D1BB684C
:103290000133BB608723FB18BA6812781A70EDE718
:1032A0008723FB181B78252B00D1C0E000DAC5E08E
:1032B000782B00DDC2E0582B00DABFE0583B202B12
:1032C00000D9BBE09A00784BD3181B689F467B68F7
:1032D0001B68191D7A6811601B688022B9180B6081
:1032E0006B217B18BA1812681A707B181A7854234D
:1032F000FB1811001800FFF753FDA0E07B681B6866
:10330000191D7A6811601B6880217A181360BA6FE2
:103310007B1819685423F8187B6F01933B6F009357
:1033200013000A22FFF730FE89E07B681B68191D35
:103330007A6811601B688022B9180B60BB18196885
:10334000BA6F5423F8187B6F01933B6F00931300FF
:103350000A22FFF765FD72E07B681B68191D7A6819
:1033600011601B688022B9180B60BB181968BA6F0E
:103370005423F8187B6F01933B6F009313001022C6
:10338000FFF74EFD5BE07B681B68191D7A681160D2
:103390001B68FB66FB6E002B05D1444BFB667F234D
:1033A000FB1800221A7087217B18FA6E12781A70A7
:1033B000FB6E0133FB667B181B78002B1DD07F232F
:1033C000FB181B78002B02D0BB6F002B17D0872374
:1033D000FB181A7854243B1911001800FFF7E0FC81
:1033E000BB6F013BBB673B19DB687F217A187918FB
:1033F00009781170002BD6DA21E0C0461FE0C046E4
:103400001DE07B681B68191D7A6811601B688022AB
:10341000B9180B60BB1819685423F81800230193DE
:103420000823009308231022FFF7FAFC07E0542337
:10343000FB1825211800FFF7B3FC00E0C046BB686D
:103440000133BB6008E08723FB181A785423FB186C
:1034500011001800FFF7A4FC5423FB18DB68002BB5
:1034600000DB50E600E0C0465422BB18DB68002BAE
:1034700013DDBB189B68002B07D0BB189A68142378
:10348000F918FB681800FFF763FC54217B18DA6811
:103490007B189B68D2187B18DA605423FB18DB6812
:1034A0001800BD4623B090BDD0D1061058BF0610FD
:1034B0000EB480B585B000AF78602023FB18BB60E8
:1034C0000823FA18F9697B681800FFF705FE030066
:1034D000FB60FB681800BD4605B080BC08BC03B0AB
:1034E000184780B582B000AF7860002011F04EFE22
:1034F00012F058FA012012F00DFB01235B42180074
:1035000012F018FB0BF090FA031E01D001F09EFBA5
:103510000BF068F80BF0B4F90EF05AFD11F068FFEB
:103520000021012011F074FF0121012011F0A0FF02
:10353000002011F035FE00231800BD4602B080BD0A
:1035400080B582B000AFFB1D02221A70FB1D1B78F4
:103550001800BD4602B080BD80B500AF01235B42BC
:10356000180012F00DF8C046BD4680BD80B500AF12
:10357000C046BD4680BDF0B593B000AF4723FB18F1
:1035800000221A700CE047203B181A783B1D92006D
:103590000021D150C0463B181A783B1801321A70EE
:1035A0004723FB181B78092BEDD913F00BFA031EE8
:1035B0005AD046257C19FFF7C3FF030023707B19FF
:1035C0001B78002B50D04526BC1905F045FE0300A2
:1035D00023704423FC180BF069F903002370432384
:1035E000FA187B19B9190C781B78D8B2E1B2884265
:1035F00000D9231C13704323FA18FB1844217918AF
:103600000C781B78D8B2E1B2884200D9231C137021
:103610004323FB181B78032B19D021DC022B0DD080
:103620001EDC002B1FD0012B1AD10121012011F02B
:10363000EFFE0121012011F01BFF11E0002101200C
:1036400011F0E6FE0121012011F012FF08E0002137
:10365000012011F0DDFE0021012011F009FFC0461C
:1036600011F036FF00E0C046BD4613B0F0BD0000CB
:1036700080B584B000AF7860074B196D064B7A684F
:103680000A431A65044B1B6D7A681340FB60FB68A4
:10369000C046BD4604B080BD0000404880B586B03D
:1036A00000AF3B1D180014231A00002127F066FA12
:1036B0000820FFF7DDFF0420FFF7DAFF1F4B002291
:1036C0000821180003F036FA3B1D08221A603B1D42
:1036D00001225A603B1D00229A603B1D0022DA60E5
:1036E0003B1D164A1900100002F09CFF3B1D0422EE
:1036F0001A603B1D02225A603B1D01229A603B1D4D
:103700000022DA603B1D05221A613A1D9023DB0579
:103710001100180002F086FF0821012004F07EFB52
:103720000821012004F0E2FB0421002004F03CFB0E
:1037300011F040FDC046BD4606B080BD00001048F7
:1037400080B584B000AF7860074B196D064B7A687E
:103750000A431A65044B1B6D7A681340FB60FB68D3
:10376000C046BD4604B080BD0000404880B584B06E
:1037700000AF7860074B996D064B7A680A439A65EB
:10378000044B9B6D7A681340FB60FB68C046BD46E6
:1037900004B080BD0000404880B500AF1C4B8222C1
:1037A000D2051A601A4B1B4A5A60194B00229A60C4
:1037B000174B0122DA60164B00221A61144B0022CB
:1037C0005A61134B00229A61114B0022DA61104BAF
:1037D00000221A620E4B180003F0E4F9031E01D018
:1037E00001F034FA0A4B0021180003F0DFFF031E3A
:1037F00001D001F02BFA064B0021180004F022F84A
:10380000031E01D001F022FAC046BD4680BDC0466D
:10381000341200205B3D300090B589B000AF786075
:103820000C243B19180014231A00002127F0A6F9D4
:103830007B681A688223DB059A422AD10820FFF7A9
:103840007FFF3B19C02212011A6021007B1812224F
:103850005A607B1800229A607B180022DA607B187D
:1038600002221A617B180D4A1900100002F0DAFEDC
:10387000C0231B011900012004F0D0FAC0231B0152
:103880001900012004F032FB80239B031800FFF78E
:103890006DFFC046BD4609B090BDC046000010484F
:1038A00080B584B000AF78602F4B304A1A602E4B41
:1038B0002F4A5A602C4B2F4A9A602B4B7A68DA6059
:1038C0000F217B1800221A707A18274B110018005C
:1038D00000F061FE031E02D001235B4240E0224B58
:1038E000180000F0EDFD204B9B68142098471E4BFC
:1038F0000221180000F061FE1B4B0021180001F0AE
:1039000025F8194B0421180000F0C5FE164B0221C2
:10391000180000F0F0FE144B0321180000F0E6FF41
:10392000114B0521180000F056FF0C203B18002217
:103930001A703B181A7801210A431A703B181A783A
:1039400002218A431A703B181A78074B111C180081
:1039500000F071FF031E02D002235B4200E000234F
:103960001800BD4604B080BD88120020C53B04107D
:10397000193C04106D3C041080B582B000AF786033
:103980007A68054B1100180001F065F80300180073
:10399000BD4602B080BDC0468812002080B582B00E
:1039A00000AF78607A68054B1100180000F0FEFF48
:1039B00003001800BD4602B080BDC046881200203A
:1039C00090B58BB000AF78600C243B19180006232B
:1039D0001A00002127F0D2F83B191800FFF7CCFF9E
:1039E000031E02D001235B427BE00C243B19002222
:1039F0009B5E1800FDF71AFF031C3C49181CFDF7DD
:103A000021FB031C3B623B1902229B5E1800FDF761
:103A10000DFF031C3549181CFDF714FB031CFB614B
:103A20003B1904229B5E1800FDF700FF031C2F4981
:103A3000181CFDF707FB031CBB61396A386AFDF7E8
:103A400001FB031C1C1CF969F869FDF7FBFA031C58
:103A5000191C201CFCF736FF031C1C1CB969B86933
:103A6000FDF7F0FA031C191C201CFCF72BFF031CAC
:103A7000181C27F08FFE031C7B61FC2189057869E7
:103A8000FCF7A8FD031E04D07B6800221A60002307
:103A900027E07969B869FDF707F9031C7B62FE210D
:103AA0008905786AFCF7AAFD031E02D0FE239B0558
:103AB0007B620F49786AFCF78DFD031E01D00C4B29
:103AC0007B627B6A5B005B08181C27F043FE031CCB
:103AD0000849181CFDF7B6FA031C1A1C7B681A600B
:103AE00000231800BD460BB090BDC04640DA7F38B9
:103AF000000080BFE02E654290B589B000AF7860CD
:103B00000C243B19180006231A00002127F036F870
:103B10003B191800FFF742FF031E02D001235B424E
:103B200049E00C243B1900229B5E1800FDF77EFE45
:103B3000031C2349181CFDF785FA031CFB613B1984
:103B400002229B5E1800FDF771FE031C1C49181C25
:103B5000FDF778FA031CBB613B1904229B5E180039
:103B6000FDF764FE031C1649181CFDF76BFA031CD5
:103B70007B61F969F869FDF765FA031C1C1CB969DA
:103B8000B869FDF75FFA031C191C201CFCF79AFEAC
:103B9000031C1C1C79697869FDF754FA031C191C75
:103BA000201CFCF78FFE031C181C27F0F3FD021CE1
:103BB0007B681A6000231800BD4609B090BDC0465E
:103BC000295C0F3DB0B58AB004AFF86008007A6098
:103BD00019000B243B19021C1A7008257B190A1CBA
:103BE0001A80FB687B613B191B789AB27869642361
:103BF00002937B191B8801937B6800930123D421D6
:103C000003F076F8031E01D1002301E001235B429B
:103C10001800BD4606B0B0BDB0B58AB004AFF860BC
:103C200008007A6019000B243B19021C1A70082541
:103C30007B190A1C1A80FB687B613B191B789AB2BE
:103C40007869642302937B191B8801937B68009336
:103C50000123D42103F07AF9031E01D1002301E0EE
:103C600001235B421800BD4606B0B0BD80B582B0EE
:103C700000AF78607B68180002F0B4F8C046BD461B
:103C800002B080BD80B500AF034B5B8801339BB2AF
:103C90001800BD4680BDC0469C12002080B500AF14
:103CA000034B5B8802339BB21800BD4680BDC04603
:103CB0009C12002080B500AF034B9B8801339BB260
:103CC0001800BD4680BDC0469C12002080B500AFE4
:103CD000034B9B8802339BB21800BD4680BDC04693
:103CE0009C12002080B500AF034BDB8801339BB2F0
:103CF0001800BD4680BDC0469C12002080B500AFB4
:103D0000034BDB8802339BB21800BD4680BDC04622
:103D10009C120020B0B596B000AFB94B082200212C
:103D2000180026F02BFFB74B012252421A80B64BE7
:103D300000221A70B54B00221A70B54B00221A707F
:103D4000B44B00221A70B44B02220021180026F056
:103D500015FFB24B0E220021180026F00FFFB04BCA
:103D600028220021180026F009FFAE4B6C2200210A
:103D7000180026F003FFAB4B12221A70A94B002249
:103D80009A70A84B00225A70A64BA74A043313CA54
:103D900013C303CA03C3A34BA44A1A62A14B012253
:103DA0001A76A04BA24ADA619E4B24221221995422
:103DB0009C4B2622002199549A4B2522002199548C
:103DC000984B9C4A283313CA13C303CA03C3954BA9
:103DD000994A5A64934B3C2201219954914B974A3A
:103DE0001A64904B4822122199548E4B4A2200218A
:103DF00099548C4B4922002199548A4B904A4C3358
:103E000013CA13C303CA03C3864B8E4A9A66854BF3
:103E1000602201219954834B8B4A5A66804B0122C0
:103E20001A757F4B894A13CA13C303CA03C37C4B59
:103E30002022032199547A4B7A4A5A62784B002205
:103E40001A76774B0022DA61814B19000020FFF7C8
:103E50002FFB744B1B781A007E4B19000020FFF7D4
:103E600027FB704B24229B5C1A007B4B190000201F
:103E7000FFF71EFB6B4B48229B5C1A00774B190027
:103E80000020FFF715FB674B1B7E1A00744B1900CF
:103E90000020FFF70DFB634B3C229B5C1A00714B2B
:103EA00019000020FFF704FB5E4B60229B5C1A00A8
:103EB0006D4B19000020FFF7FBFA6C4B1900002036
:103EC000FFF7F6FA57257C19554B18000AF0A3F9AD
:103ED000030023707B191B78002B02D07B191B7801
:103EE0008AE04F4B18000AF0A3F903001A00444B74
:103EF0001A804C4B18000AF0BBF903001A00404B23
:103F00005A805B4B18000AF0B3F903001A003C4BCF
:103F10009A80584B18000AF0ABF903001A00384B8E
:103F2000DA80554B19000020FFF7C2FA344B1B888A
:103F30001A00524B19000020FFF7BAFA504B190033
:103F40000020FFF7B5FA2E4B5B881A004D4B190085
:103F50000020FFF7ADFAFFF795FE03001A004A4B69
:103F600019000020FFF7A4FAFFF798FE03001A00DB
:103F7000464B19000020FFF79BFA454B1900002023
:103F8000FFF796FA1E4B9B881A003E4B1900002043
:103F9000FFF78EFAFFF78EFE03001A003A4B190066
:103FA0000020FFF785FAFFF791FE03001A00374B58
:103FB00019000020FFF77CFA364B19000020FFF7AC
:103FC00077FA0F4BDB881A002E4B19000020FFF701
:103FD0006FFAFFF787FE03001A002B4B1900002031
:103FE000FFF766FAFFF78AFE03001A00274B190055
:103FF0000020FFF75DFA00231800BD4616B0B0BDE3
:104000009C120020AC2E0020A4120020A51200203B
:10401000A6120020A7120020A8120020AC12002037
:1040200028130020BC1200200CC10610B02E002066
:10403000D42E002020C10610BC2E0020F02E00201F
:1040400034C10610C82E00200C2F002048C10610D5
:1040500060BF061080BF0610A4BF0610C4BF0610C4
:10406000E4BF061004C0061020C006103CC00610B5
:10407000E01200200413002060C0061080C006106B
:104080009CC00610ACC00610C0C00610D4C00610FC
:10409000E8C00610F8C0061080B582B000AF02007C
:1040A000BB1D1A80084BBA1D12881A80074B0022CC
:1040B0001A70074B00221A70064B00221A70C04675
:1040C000BD4602B080BDC046AC2E0020A412002028
:1040D000A5120020A612002080B500AF074B0122D8
:1040E00052421A80064B00221A70064B00221A70A8
:1040F000054B00221A70C046BD4680BDAC2E002084
:10410000A4120020A5120020A612002080B584B0C1
:1041100000AF39601100BB1D021C1A807B1D0A1CF8
:104120001A703B68002B00D18EE07B1D1B78012BA1
:1041300000D889E03B681B781AB23B6801331B78D2
:104140001BB21B021BB213431AB20E217B181A803A
:104150007B181B88DAB20D23FB1801210A401A7064
:10416000FFF79CFD03001A00BB1D1B88934217D06C
:10417000FFF7ACFD03001A00BB1D1B8893420FD054
:10418000FFF7BCFD03001A00BB1D1B88934207D03C
:10419000BB1D1A882E4B19000020FFF789F954E047
:1041A000FFF77CFD03001A00BB1D1B88934211D151
:1041B000284B0D217A1812781A707B181B78002B67
:1041C00001D0254B00E0254B25491A000020FFF7C0
:1041D0006FF93AE0FFF77AFD03001A00BB1D1B8858
:1041E000934211D11F4B0D217A1812781A707B1847
:1041F0001B78002B01D0184B00E0184B1A491A000D
:104200000020FFF755F920E0FFF778FD03001A00C2
:10421000BB1D1B88934211D1144B0D217A181278C3
:104220001A707B181B78002B01D00B4B00E00B4B56
:104230000F491A000020FFF73BF906E00D4B19006B
:104240000020FFF735F900E0C046BD4604B080BD50
:104250005CC10610A412002070C1061078C10610BF
:1042600084C10610A5120020A8C10610A6120020C5
:10427000C8C10610E8C1061090B585B002AF0200B3
:10428000FB1D1A70114BFA1D12781A70104B1B8807
:10429000104A934214D0104B1B78002B10D00C4BBB
:1042A0001C88FFF7EFFC03001A00084B0193012361
:1042B000009300230421200009F0E7FF030000E041
:1042C00000231800BD4603B090BDC046A7120020D1
:1042D000AC2E0020FFFF0000A412002090B585B096
:1042E00002AF0200FB1D1A70BB1D0A1C1A70134B93
:1042F000FA1D12781A70114BBA1D12785A70104BB1
:104300001B88104A934214D00F4B1B78002B10D0FF
:104310000B4B1C88FFF7CEFC03001A00074B0193E0
:104320000223009300230421200009F0AEFF0300C4
:1043300000E000231800BD4603B090BDA812002085
:10434000AC2E0020FFFF0000A5120020B0B588B001
:1043500002AF0200BB1D1A8010243B19180006236F
:104360001A00002126F00AFC08257B1918000623F4
:104370001A00002126F002FC3B191800FFF7FCFA96
:104380007B191800FFF70AFB3B1900229A5E1F4BAE
:104390001A803B1902229A5E1C4B5A803B19042258
:1043A0009A5E1A4B9A807B1900229A5E174BDA802C
:1043B0007B1902229A5E154B1A817B1904229A5EA0
:1043C000124B5A81114BBA1D12889A81104B1B88CF
:1043D000104A934214D0104B1B78002B10D00C4B7A
:1043E0001C88FFF77FFC03001A00084B01930E2383
:1043F000009300230421200009F047FF030000E0A0
:1044000000231800BD4606B0B0BDC046AC12002067
:10441000AC2E0020FFFF0000A6120020B0B586B031
:1044200000AFF86008007A6019000B23FB18021C2B
:104430001A700823FB180A1C1A80FB68002B02D193
:1044400001235B420FE0FB685C68FB68D8680823C7
:10445000FB181D887A680B23FB1819782B00A047DE
:1044600003007B617B691800BD4606B0B0BDB0B5E6
:1044700086B000AFF86008007A6019000B23FB18C3
:10448000021C1A700823FB180A1C1A80FB68002BF8
:1044900002D101235B420FE0FB681C68FB68D8680F
:1044A0000823FB181D887A680B23FB1819782B004A
:1044B000A04703007B617B691800BD4606B0B0BD14
:1044C00090B587B000AF78600C23FB1800221A70FB
:1044D0001723FB1800221A707B689B68002B03D1FE
:1044E00001235B423B6151E07B680021180000F032
:1044F00064F803003B617B680021180000F0FBF8C2
:1045000002003B699B183B613B69002B3BD10C20AF
:104510003B181A7801210A431A703A187868012367
:104520001221FFF7A4FF03003B610C243A197868BD
:1045300001231221FFF772FF02003B699B183B61C8
:104540003B69002B21D17B689B68012098473B1970
:104550001B7801221340DBB2002B07D01722BB18B7
:104560001B78BA18591C1170022BDED90C23FB18CA
:104570001B7801221340DBB2002B01D1002306E09F
:1045800001235B4203E0C04600E0C0463B691800DF
:10459000BD4607B090BD80B584B000AF786039608B
:1045A0003A68786801230F21FFF738FF0300FB60AA
:1045B000FB681800BD4604B080BD90B587B000AF61
:1045C00078600A00FB1C1A701023FA18786801231F
:1045D0001021FFF723FF03007B617B69002B01D0D3
:1045E0007B6954E0FB1C1B780F221340DAB21024C5
:1045F0003B190F210A4010001A780F218A43111C21
:10460000021C0A431A703A19786801231021FFF737
:104610002EFF03007B617B69002B01D07B6936E0B4
:1046200013217B18FA1C127812091A707B181B7858
:10463000002B2BD00C23FA18786801236221FFF796
:10464000EDFE02007B699B187B617B69002B01D02A
:104650007B691CE01323FB181B7803221340DAB29A
:104660000C243B1903210A4010001A7803218A43C5
:10467000111C021C0A431A703A197868012362213E
:10468000FFF7F5FE02007B699B187B617B691800D0
:10469000BD4607B090BD90B585B000AF78600A0008
:1046A000FB1C1A7008243A19786801231021FFF7BF
:1046B000B5FE0300FB60FB68002B17D1FB1C1B78C9
:1046C00007221340DAB23B1907210A4010011A7879
:1046D00070218A43111C021C0A431A703A19786827
:1046E00001231021FFF7C3FE0300FB60FB681800E5
:1046F000BD4605B090BD90B587B000AF78600A00A8
:10470000FB1C1A701023FA18786801231121FFF797
:1047100085FE03007B617B69002B01D07B6956E03D
:10472000FB1C1B780F221340DAB210243B190F2117
:104730000A4010001A780F218A43111C021C0A43F8
:104740001A703A19786801231121FFF790FE0200D0
:104750007B699B187B617B69002B01D07B6936E00C
:1047600013217B18FA1C127812091A707B181B7817
:10477000002B2BD00C23FA18786801236221FFF755
:104780004DFE02007B699B187B617B69002B01D089
:104790007B691CE01323FB181B7803221340DAB259
:1047A0000C243B1903210A4010001A7803218A4384
:1047B000111C021C0A431A703A19786801236221FD
:1047C000FFF755FE02007B699B187B617B6918002F
:1047D000BD4607B090BD90B585B000AF78600A00C7
:1047E000FB1C1A7008243A19786801231121FFF77D
:1047F00015FE0300FB60FB68002B17D1FB1C1B7828
:1048000007221340DAB23B1907210A4010011A7837
:1048100070218A43111C021C0A431A703A197868E5
:1048200001231121FFF723FE0300FB60FB68180042
:10483000BD4605B090BD90B587B000AF78603B0035
:1048400019700C23FA18786801235021FFF7E6FD50
:1048500003007B617B69002B01D07B6942E03B0058
:104860001B78DB07DB0FDAB20C243B19D0011A7876
:104870007F210A40111C021C0A431A703A197868F9
:1048800001235021FFF7F3FD03007B611023FA1889
:10489000786801235621FFF7C1FD02007B699B1850
:1048A0007B617B69002B01D07B691BE03B001B789F
:1048B0009B07DB0FDAB210243B1901210A401000DC
:1048C0001A7801218A43111C021C0A431A703A19F2
:1048D000786801235621FFF7CAFD02007B699B1807
:1048E0007B617B691800BD4607B090BD90B585B06F
:1048F00000AF78600A00FB1C1A7008243A19786827
:1049000001231521FFF78AFD0300FB60FB68002BE4
:1049100017D1FB1C1B780F221340DAB23B190F2171
:104920000A4010001A780F218A43111C021C0A4306
:104930001A703A19786801231521FFF798FD0300D2
:10494000FB60FB681800BD4605B090BD90B585B012
:1049500000AF78600A00FB1C1A7008243A197868C6
:1049600001231721FFF75AFD0300FB60FB68002BB2
:1049700017D1FB1C1B7803221340DAB23B19032129
:104980000A4010001A7803218A43111C021C0A43B2
:104990001A703A19786801231721FFF768FD0300A0
:1049A000FB60FB681800BD4605B090BD80B586B0C1
:1049B00000AF786039600C23FA187868062322214A
:1049C000FFF72CFD03007B617B69002B01D07B6925
:1049D0003DE00C217B185B781AB23B681A803B687B
:1049E00000229B5E9BB21B029BB27A1812789B1826
:1049F0009BB21AB23B681A807B18DA783B680233A4
:104A000012B21A803B68023300229B5E9BB21B02EB
:104A10009BB27A1892789B189AB23B68023312B212
:104A20001A807B185A793B68043312B21A803B68AB
:104A3000043300229B5E9BB21B029BB27A18127950
:104A40009B189AB23B68043312B21A807B69180033
:104A5000BD4606B080BD80B586B000AF78603960D5
:104A60000C23FA18786806232821FFF7D7FC0300E7
:104A70007B617B69002B01D07B693DE00C217B18B9
:104A80005B781AB23B681A803B6800229B5E9BB23F
:104A90001B029BB27A1812789B189BB21AB23B6821
:104AA0001A807B18DA783B68023312B21A803B68AE
:104AB000023300229B5E9BB21B029BB27A18927853
:104AC0009B189AB23B68023312B21A807B185A794B
:104AD0003B68043312B21A803B68043300229B5EA9
:104AE0009BB21B029BB27A1812799B189AB23B6850
:104AF000043312B21A807B691800BD4606B080BD2F
:104B000080B500AF204B19000020FEF7D1FC01F06A
:104B1000E4F800F047F81D4B180001F063F900F0CD
:104B200078F8FEF7BBFDFEF737FE00F01FFA00F045
:104B300025F900F0D1F900F0A5F80020FEF7D1FC2E
:104B4000134B1800FEF7ACFE031E0ED0114B0821CC
:104B5000180002F00CF8104B19000020FEF7A8FC1A
:104B6000C82001F03FF9C046F0E70C4B19000020C7
:104B7000FEF79EFC00F0E0FC094B19000020FEF758
:104B800097FCFEF7E9FCFCE70CC206108813000056
:104B9000341200200000104814C2061028C206106B
:104BA0003CC2061090B589B000AF08243B1918002C
:104BB00018231A00002125F0E1FF3B00180008230C
:104BC0001A00002125F0DAFF3B1903221A603B1975
:104BD000802252025A603B191022DA603B191800F9
:104BE00006F052F8031E01D000F030F83B0000221E
:104BF0001A603B0020225A603B001021180006F08A
:104C000093F9031E01D000F021F8C046BD4609B05B
:104C100090BD80B586B000AF3B00180018231A0085
:104C2000002125F0ABFF3B0002221A603B008022EE
:104C300052015A613B00180006F098FA031E01D099
:104C400000F004F8C046BD4606B080BD80B500AF98
:104C500072B6C046C046FDE780B584B000AF78604C
:104C6000074B196D064B7A680A431A65044B1B6D96
:104C70007A681340FB60FB68C046BD4604B080BD47
:104C80000000404880B500AF064B074A1A60054B4C
:104C9000180002F023FE031E01D0FFF7D7FFC04625
:104CA000BD4680BD5C1300200000304880B582B056
:104CB00000AF78607B681B68094A93420CD180235F
:104CC0005B021800FFF7C8FF002201210D2001F050
:104CD00097F90D2001F0A9F9C046BD4602B080BD8C
:104CE0000000304880B584B000AF7860074B196E83
:104CF000064B7A680A431A66044B1B6E7A681340A7
:104D0000FB60FB68C046BD4604B080BD0000404863
:104D100080B582B000AF7860064B1B6E7A68134096
:104D20007A689A4201D1012300E000231800BD46B1
:104D300002B080BD0000404880B582B000AF78600E
:104D4000044B196C034B7A680A431A64C046BD468B
:104D500002B080BD0000404880B582B000AF7860EE
:104D6000054B1A6C7B68D943034B0A401A64C04652
:104D7000BD4602B080BDC0460000404880B582B04C
:104D800000AF00237B600120FFF7C2FF031E08D1A4
:104D90000120FFF7D1FF0120FFF7DEFF0120FFF721
:104DA000A1FFC023DB057B603B1D180003F05CFA0C
:104DB000C046BD4602B080BD90B589B000AF7860F6
:104DC00008243B19180018231A00002125F0D6FEEC
:104DD0007B681A68C023DB059A4222D13B19012265
:104DE0001A603B1902221A613B19180006F0BEF93D
:104DF000031E01D0FFF72AFF0120FFF773FF10F019
:104E0000D9F900220021122001F0FAF8122001F055
:104E10000CF900220021192001F0F2F8192001F00C
:104E200004F9C046BD4609B090BD80B582B000AF60
:104E300078607B681B691800BD4602B080BD000029
:104E400080B584B000AF7860074B196E064B7A6866
:104E50000A431A66044B1B6E7A681340FB60FB68BA
:104E6000C046BD4604B080BD0000404880B582B059
:104E700000AF7860064B1B6E7A6813407A689A42DE
:104E800001D1012300E000231800BD4602B080BD1F
:104E90000000404880B582B000AF7860044B196CC8
:104EA000034B7A680A431A64C046BD4602B080BD0F
:104EB0000000404880B582B000AF7860054B1A6CA6
:104EC0007B68D943034B0A401A64C046BD4602B012
:104ED00080BDC0460000404880B582B000AF3B00B6
:104EE000180008231A00002125F048FE0120FFF7D2
:104EF000BDFF031E08D10120FFF7CCFF0120FFF703
:104F0000D9FF0120FFF79CFFC0460C4B1800FFF7AC
:104F10008CFF03000F2BF8D93B00A02252001A800F
:104F20003B0000229A703B0000225A603B001800B0
:104F300003F0CEFEC046BD4602B080BD0018006042
:104F400080B584B000AF7860074B196D064B7A6866
:104F50000A431A65044B1B6D7A681340FB60FB68BB
:104F6000C046BD4604B080BD0000404880B500AFDB
:104F7000064B074A1A60054B180006F032F9031E6B
:104F800001D0FFF763FEC046BD4680BD6813002018
:104F90000000604880B582B000AF78607B681B6815
:104FA000054A934204D18023DB021800FFF7C8FFB3
:104FB000C046BD4602B080BD0000604880B584B0E8
:104FC00000AF7860074B596D064B7A680A435A6503
:104FD000044B5B6D7A681340FB60FB68C046BD46BE
:104FE00004B080BD0000404880B500AF80235B0066
:104FF0001800FFF7E3FFC046BD4680BD80B500AF97
:10500000C046FDE780B500AFC046FDE780B500AF04
:10501000C046BD4680BD80B500AFC046BD4680BD20
:1050200080B500AF00F0B8FEC046BD4680BD0000B0
:1050300080B500AF034B180006F03CFBC046BD46F0
:1050400080BDC046CC13002080B500AF034B1800D4
:1050500002F08DFCC046BD4680BDC0465C130020FA
:1050600080B500AF05F012FCC046BD4680BD80B5DE
:1050700000AF05F014FCC046BD4680BD80B500AF52
:1050800005F016FCC046BD4680BD80B500AF03F0FC
:105090001BFCC046BD4680BD80B500AF03F035FCAB
:1050A000C046BD4680BD80B586B000AFF860B9602F
:1050B0007A6000237B610AE000E000BF0100BB686A
:1050C0005A1CBA60CAB21A707B6901337B617A6973
:1050D0007B689A42F0DB7B681800BD4606B080BD55
:1050E00080B586B000AFF860B9607A6000237B615C
:1050F00009E0BB685A1CBA601B78180000E000BFCA
:105100007B6901337B617A697B689A42F1DB7B685A
:105110001800BD4606B080BD80B582B000AF786093
:1051200001235B421800BD4602B080BD80B582B04D
:1051300000AF786039603B68802292015A6000239A
:105140001800BD4602B080BD80B582B000AF786067
:1051500001231800BD4602B080BD80B584B000AF09
:10516000F860B9607A6000231800BD4604B080BDC5
:1051700080B586B000AF7860144A154BD31A7B61B6
:105180007B693B61134B1B68002B02D1114B124A08
:105190001A60104B1A687B68D3183A699A4207D292
:1051A00025F042FD03000C221A6001235B4209E056
:1051B000084B1B68FB60074B1A687B68D218054BCD
:1051C0001A60FB681800BD4606B080BD00000120D3
:1051D000000C00007C1300206C54002090B583B0BC
:1051E00000AF02003960FB1D1A70FB1D1B787F2B7E
:1051F00028D82F4AFB1D1B785BB29B08C0339B004D
:105200009B58FA1D1278110003220A40D200FF2198
:1052100091400A00D2431A4011003B689B01FF22D3
:105220001A40FB1D1B78180003230340DB009A4043
:105230001F48FB1D1B785BB29B080A43C0339B00D1
:105240001A5031E01B4AFB1D1B7819000F230B403D
:10525000083B9B0806339B00D31804331B68FA1DD8
:105260001278110003220A40D200FF2191400A0067
:10527000D2431A4011003B689B01FF221A40FB1DDC
:105280001B78180003230340DB009A400948FB1DEC
:105290001B781C000F232340083B9B080A4306335E
:1052A0009B00C31804331A60C046BD4603B090BDCE
:1052B00000E100E000ED00E080B500AFBFF34F8FEC
:1052C000C046044B044ADA60BFF34F8FC046C04665
:1052D000FDE7C04600ED00E00400FA0590B587B098
:1052E00000AF644A9423D358002B0ED1624B1B6944
:1052F000002B03D1604B9B6B002B06D05F4B012230
:105300009A60FAF771FFFFF7D7FF5D4B5D4A9A602D
:105310005B4B9A68594B1A61574B5A68564B202180
:105320000A435A60544B5A68534B40210A435A600F
:10533000514B5A68504B80210A435A60C0464E4B2D
:105340005B6904221340042BF9D14B4BDB693022FB
:1053500093431A00484B20210A43DA61464BDA692D
:10536000454B49490A40DA61434BDA69424B802197
:1053700049000A43DA61454B1B68454A93425BD0BA
:105380001E233B610823FB600323BB6008237B6073
:10539000394A9423D3581E2293431A007B685B003A
:1053A0001E210B403449134394228B50324A9423DC
:1053B000D35831490122134394228B502D4BDB6883
:1053C000344A134019003B691A062A4B0A43DA6033
:1053D000284BDA68274B802109040A43DA60264A01
:1053E0009423D3582C4A1A40FB689901F0239B0060
:1053F0000B402149134394228B501F4A9423D358C6
:105400001D492022134394228B501B4A9423D358C6
:10541000224A1A40BB68D902E0239B010B4016497F
:10542000134394228B50144A9423D3581249802258
:10543000D200134394228B501723FB1800221A70BA
:105440000DE017243B191B785BB203211800FFF70E
:10545000C5FE21007B181A787B1801321A701723B9
:10546000FB181B781F2BECD962B6C046C046BD4660
:1054700007B090BD000040480000504804000020E4
:1054800000ED00E000000410FFFBFFFFF81E00101D
:10549000CCECBCFCFFFFFFC03FFCFFFFFFC7FFFFE2
:1054A00080B582B000AF134B9B685B08DAB2FB1D7E
:1054B00001210A401A700F4B9B685B09DAB2BB1DD1
:1054C00007210A401A70FB1D1B78002B07D0BB1D5B
:1054D0001B78013B084ADA40084B1A6005E0BB1D07
:1054E0001B78074ADA40054B1A60C046BD4602B039
:1054F00080BDC046000040480048E801282F002039
:105500000090D00380B582B000AF0200FB1D1A707E
:10551000064BFA1D12781A70054B00221A70054BC3
:1055200000221A70C046BD4602B080BD8C13002018
:105530008D1300208E13002080B582B000AF1A4B6F
:1055400000221A60194B00221A60194B00221A60BF
:10555000184B00221A70184B00221A70174B0022A9
:105560001A70174B00221A60164B00221A60164B55
:1055700000221A70FB1D00221A700AE0FB1D1A7827
:10558000124B92000021D150FB1D1A78FB1D0132F5
:105590001A70FB1D1B780B2BF0D90D4B00221A70D3
:1055A000C046BD4602B080BD801300208413002099
:1055B000881300208C1300208D1300208E130020F0
:1055C0009013002094130020C8130020981300208B
:1055D000C913002090B589B000AF78603960CD4B19
:1055E0001B78002B46D1CC4B1B687968181CFBF745
:1055F00069F9031C1A1CC84B1A60C84B1B685A1C5B
:10560000C64B1A600023BB60C54B1B781A00C54B04
:105610009200B968D150C24B1B7801330C2118009D
:10562000FAF78CFE0B00DAB2BD4B1A70BE4B1B783A
:105630000B2B05D8BC4B1B780133DAB2BA4B1A706E
:10564000B64B1B68312B12D9B34B1C68B34B1B688C
:105650001800FCF73BF9031C191C201CFBF724FB6A
:10566000031C1A1CB14B1A600120FFF74BFFA94B1A
:105670001B7892E1AE493868FAF7CAFF031E09D0D9
:10568000A44B1B78012B05D10220FFF73BFFA14B58
:105690001B7882E1A54B1B68191C7868FBF72CFE70
:1056A000031CBB610021B869FAF794FF031E04D004
:1056B000BB69802212065A4000E0BA699D4B1A600D
:1056C000974B1B781A009B4B1968964B9200D15050
:1056D000934B1B7801330C211800FAF72FFE0B00B7
:1056E000DAB28F4B1A70904B1B780B2B09D88E4B6C
:1056F0001B780133DAB28C4B1A708F4B00221A6080
:105700002BE0874B1B781A00864B9200D3587B61A5
:10571000884B1B687969181CFBF7EEFD031CFB61C5
:105720000021F869FAF756FF031E04D0FB698022B6
:1057300012065340FB61814B3B6100213869FAF747
:105740005DFF031E06D03969F869FBF7ADFA031C4B
:105750001A1C00E00022784B1A60764B1B687849CF
:10576000181CFAF755FF031E13D0724B1B688121DA
:10577000C905181CFAF74CFF031E0AD06E4B1B68B4
:105780008021C905181CFAF743FF031E01D001222E
:1057900000E000220F23FB181A70664B1B68812162
:1057A000C905181CFAF716FF031E0AD0624B1B68C6
:1057B0008021C905181CFAF70DFF031E01D0012234
:1057C00000E000220E23FB181A705A4B1B6881213F
:1057D000C905181CFAF71CFF031E11D0554B1B6896
:1057E000FC218905181CFAF713FF031E08D0524B41
:1057F0001B68FC218905181CFAF70AFF031E05D156
:105800004B493868FAF704FF031E01D0012200E07B
:1058100000220D23FB181A70464B1B688121C90515
:10582000181CFAF7D7FE031E0AD0434B1B68FC2155
:105830008905181CFAF7CEFE031E01D0012200E0F4
:1058400000220C23FB181A70324B1B78032B00D15B
:1058500082E000DD9AE0012B02D0022B20D095E0FF
:105860000F23FB181B78002B04D10D23FB181B788A
:10587000002B10D0334B1B780133DAB2314B1A7046
:10588000314B00221A702F4B1B78012B07D90220B5
:10589000FFF738FE03E02B4B00221A707BE07AE022
:1058A000244B1B682949181CFAF7B2FE031E05D0C9
:1058B0000320FFF727FE174B1B786EE00F23FB1822
:1058C0001B78002B10D01F4B1B780133DAB21D4B15
:1058D0001A701D4B00221A701A4B1B78012B57D9D6
:1058E0000320FFF70FFE53E00C23FB181B78002B5F
:1058F0002ED0154B1B780133DAB2134B1A70114BB3
:1059000000221A70104B1B78022B41D90120FFF79F
:10591000F9FD3DE08C13002084130020801300204B
:10592000C813002098130020C913002088130020FA
:105930000000204290130020941300209A99193FF0
:10594000000020418D1300208E1300200000A04194
:10595000144B00221A701BE00E23FB181B78002B3F
:1059600010D0114B1B780133DAB20F4B1A700D4B6C
:1059700000221A700C4B1B78032B0BD90220FFF767
:10598000C1FD07E0084B00221A7003E0C04602E0A8
:10599000C04600E0C046054B1B781800BD4609B064
:1059A00090BDC0468D1300208E1300208C13002064
:1059B00080B500AF024B1B781800BD4680BDC046C5
:1059C0008C13002080B500AF024B1B68181CBD462D
:1059D00080BDC0469013002080B500AF024B1B680D
:1059E000181CBD4680BDC0468813002080B500AF9E
:1059F000024B1B68181CBD4680BDC0469413002096
:105A000080B500AF094B1B78002B01D0642309E05F
:105A1000074B1B686422534332211800FAF708FC35
:105A20000300DBB21800BD4680BDC0468C130020C9
:105A30008013002080B584B000AF7860074B196DEB
:105A4000064B7A680A431A65044B1B6D7A6813404B
:105A5000FB60FB68C046BD4604B080BD0000404806
:105A600080B584B000AF7860074B996D064B7A68BB
:105A70000A439A65044B9B6D7A681340FB60FB6890
:105A8000C046BD4604B080BD0000404880B582B02D
:105A900000AF7860054B9A6D7B68D943034B0A4091
:105AA0009A65C046BD4602B080BDC0460000404871
:105AB00080B500AF234B244A1A60224BE1225202E8
:105AC0005A60204B00229A601E4B0022DA601D4B68
:105AD00000221A611B4B0C225A611A4B00229A6158
