:020000041004E6
:1000000000000120B5390410913404109934041013
:1000100000000000000000000000000000000000E0
:10002000000000000000000000000000A1340410E7
:100030000000000000000000AB340410B5340410D0
:10004000193A0410193A0410193A0410193A041014
:10005000193A0410193A0410193A0410193A041004
:10006000C5340410193A0410193A0410193A04104E
:10007000193A0410DD34041000000000193A04108D
:10008000F5340410193A04103B3504100000000048
:100090002D35041000000000000000001135041090
:1000A0001F35041049350410000000000000000056
:1000B0000000000000000000000000000000000040
:1000C00010B5904216D98AB2030C090C0C4659435C
:1000D00080B25343444350431B191A041B0C10189D
:1000E000594180225203002312184B41520DD8026D
:1000F000104310BD4843802252031218520D10467F
:1001000010BDC0468B0707D0013A22D30B780131CE
:10011000037001308B07F7D1830730D0DB4219D051
:100120000138043A08D308C943701B0A43801B0CEA
:1001300003710430043AF6D2D20707D30B88437018
:1001400001D08A78C2701B0A8370704701D00B7887
:1001500043707047043A06D308C903801B0C4380E0
:100160000430043AF8D2D20705D30B88038005D0B7
:100170008B788370704701D00B780370704770B430
:10018000103A03D378C978C0103AFBD2530701D391
:1001900018C918C001D508C908C0D20704D30B88F4
:1001A000038002300231002A01D50B78037070BC45
:1001B0007047C046EFF31482EFF30981154880F3CE
:1001C0001488BFF36F8FF0B543464C4655465E46E4
:1001D0006746F8B4104CEFF30883636006B4BFF3CE
:1001E0004F8F30BFC046C0460B4C646884F308880C
:1001F00082B003BCF8BC9846A146AA46B346BC46AA
:10020000F0BC04BC80F3098881F31488BFF36F8FBE
:100210001047C046000000000400002003B47146EF
:10022000490840004900095E49008E4403BC7047FC
:10023000002243088B4274D303098B425FD3030A25
:100240008B4244D3030B8B4228D3030C8B420DD338
:10025000FF22090212BA030C8B4202D312120902C6
:1002600065D0030B8B4219D300E0090AC30B8B4204
:1002700001D3CB03C01A5241830B8B4201D38B03B2
:10028000C01A5241430B8B4201D34B03C01A524157
:10029000030B8B4201D30B03C01A5241C30A8B429A
:1002A00001D3CB02C01A5241830A8B4201D38B0285
:1002B000C01A5241430A8B4201D34B02C01A524129
:1002C000030A8B4201D30B02C01A5241CDD2C3099B
:1002D0008B4201D3CB01C01A524183098B4201D317
:1002E0008B01C01A524143098B4201D34B01C01A02
:1002F000524103098B4201D30B01C01A5241C3087A
:100300008B4201D3CB00C01A524183088B4201D3E8
:100310008B00C01A524143088B4201D34B00C01AD4
:100320005241411A00D20146524110467047FFE740
:1003300001B5002000F006F802BDC0460029F7D044
:1003400076E770477047C0469140030090409C4656
:10035000203A9340194352426346D34019437047B1
:100360008446100062468C461900634600E0C04691
:100370001FB500F033F9002801D40021C8421FBD89
:1003800010B500F077F84042013010BD10B500F014
:1003900025F9002801DB002010BD012010BDC0465A
:1003A00010B500F01BF9002801DD002010BD012070
:1003B00010BDC04610B500F0A1F8002801DC0020F7
:1003C00010BD012010BDC04610B500F097F8002800
:1003D00001DA002010BD012010BDC0461C21012300
:1003E0001B04984201D3000C10391B0A984201D318
:1003F000000A08391B09984201D30009043902A2F6
:10040000105C40187047C04604030202010101015C
:100410000000000000000000F0B5CE469946030C35
:100420009C46130447461B0C1D000E006146040445
:10043000240C80B50700100C4B43654341436043D7
:100440002C0CC01824188C46A34203D980235B02CD
:100450009846C444494679435643230C2D042D0C39
:100460008919634424046019C918C0BCB946B04650
:10047000F0BDC046F0B55746DE464E464546E0B5AF
:100480000D000400E80F83460903D80F090B8246CC
:1004900019488C461F0369005E00490D3F0B760D1D
:1004A000814218D086420FD00120B1420DD1BC4507
:1004B0000BD1944209D1D3451CD0002905D1604607
:1004C0002043431E984100E00120F0BCBB46B246E9
:1004D000A946A046F0BD01208E42F6D161463943BF
:1004E0000F0017432743F0D15B465246981A431E2C
:1004F0009841EAE70020E8E7FF070000F0B557461B
:100500004E464546DE46E0B50D000E034900490D56
:100510008A46DF0FE90FBC4683B02F4F04008046A8
:100520000191580019039146360B090B400DBA454D
:100530001DD0B8420DD05746002F2AD13443002891
:1005400024D10A4336D0002C41D1634658000138EB
:1005500015E0114338D15346002B01D12643F4D086
:10056000019B634507D1019B5800013807E02643F2
:100570002AD1504521D00120019B5F42384303B06E
:10058000F0BCBB46B246A946A046F0BD002CDCD06C
:10059000E6E70028EFD0019B6345ECD18245EADC19
:1005A000E1DB8E42E7D8DED1C845E4D80020C8455B
:1005B000E5D2D8E7002CE2D0DDE7114304D1019B5E
:1005C0006345D8D10020DAE702204042D7E7019BFB
:1005D0006345E6D0CFE7C046FF070000F0B55746B9
:1005E0004E464546DE46E0B50D000E034900490D76
:1005F0008A46DF0FE90FBC4683B02E4F04008046C9
:100600000191580019039146360B090B400DBA456C
:100610001ED0B8420DD05746002F27D134430028B2
:1006200033D10A4334D0002C40D1634658000138FE
:1006300015E0114312D15346002B01D12643F4D0CB
:10064000019B63451DD00120019B5F42384306E0BA
:10065000264303D15045F6D111431CD0022003B0EC
:10066000F0BCBB46B246A946A046F0BD0028EAD081
:10067000019B6345E7D18245E5DC02DB8E42E2D88F
:100680000ED0019B58000138E9E7002CCDD0D7E708
:10069000002CE4D0D7E7019B00206345DFD0D2E7F0
:1006A000C845D0D80020C845D9D2EAE7019B6345A8
:1006B000E4D0C8E7FF070000F0B557464E46DE46D7
:1006C0004546E0B51F000B031B0B16009A46CA0FE8
:1006D0004B000400914685B05B0D00D1CFE1CD4ABF
:1006E000934255D05146420FC9000A438021090464
:1006F0001143C2009046C84A8A4693469B44002351
:10070000002502933C037B00FA0F0196240B5B0D3E
:10071000009200D188E1BF4A934200D192E0BE4AE4
:10072000944663449B440A2D42DCE400730F234348
:100730008024494624041C43F3000193009B0020BD
:100740005940CBB20393022D00DC94E00123AB406F
:100750001D00A6232A00DB001A401D4200D029E21A
:1007600090239B001D4200D14DE200238024994636
:100770002403A84B10004A461B052343D20713430A
:10078000190005B0F0BCBB46B246A946A046F0BD74
:1007900052460243904600D0ACE19B46022392466B
:1007A00008250293AEE7009BA2469946019B984616
:1007B000029B022B00D1CAE1032B00D192E1012B55
:1007C00010D1002300240022D4E701227B083A4004
:1007D00013435246D2071343984653465B089A4642
:1007E000039B99465B46581C8023DB005B44002B2F
:1007F00000DCB1E1424652070BD00F2241460A40CD
:10080000042A06D04246111D414592418846524273
:1008100092445246D20106D55246804B1A4080235C
:100820009246DB00C3187E4A934200DD8FE14246C8
:10083000D108524652070A4351465B054C02240B2D
:100840005B0D97E7734B26439C46E344002E00D193
:100850006FE1032349461D43009B5940CBB20393EC
:100860000A2D00DD33E10123AB401D000323029379
:1008700088222A4297D1424643461204120C16009F
:1008800001981D0C030C0004000C4643B4461E00E6
:100890006E430096160007005E436146B0466F4304
:1008A0000E0CB8444644B74205D980214902884617
:1008B000009F4744009761460904090C370C360431
:1008C0008C463100614401911100260C2404240C53
:1008D00061438C462100694389466146090C88467C
:1008E00072434A4442447543914503D980214902E9
:1008F00088464544110C884661460904090C8C461B
:1009000012046244B91802915146090C8C465146B2
:100910000F043F0C3900414345448846614641433A
:100920008A4641466046090C894658437B435344F6
:100930004B449A4503D98021490289464844190C01
:10094000894641460904090C8846390061431B0465
:100950004344884661464C4371438C464146774345
:100960000E0C3F19F6194844B44203D980214902BC
:100970008946CC440299009F894631044F448946F8
:100980004146974292410C04240C4C44FF185242B9
:100990006419A1189F429B41884682465B42994652
:1009A00090459241AC42A441C244D1445242644277
:1009B000144399459B41824592415B425242134305
:1009C0004A46360CA419E31863445B02D20D1A435D
:1009D000019992467A020A43501E8241FF0D174345
:1009E0004A4652021743B846DB0100D5EDE60D4BEF
:1009F000039A5B449146002B00DCACE03A005207BE
:100A000000D110E70F2258463A40042A00D0F9E6F8
:100A100009E7C046FF07000001FCFFFFFFFFFFFEE4
:100A2000FE070000FF030000220032436FD0002CBD
:100A300000D1C2E02000FFF7D1FC020003000B3A16
:100A40001D20821A30001900D04008398C40020065
:100A5000224334008C405946CB1A86498B469B442E
:100A60000A2D00DDA4E64946009B01945940CBB213
:100A7000140000200393022D00DD67E6FBE65346D9
:100A8000034398463CD05346002B00D1A3E0504688
:100A9000FFF7A4FC0B235B429C4602008444110038
:100AA0005046083988401D23804660461B1A2000A6
:100AB000D8400300404603439A4623008B409846A3
:100AC0006C4B00259B1A9B46002302931AE60F2DC0
:100AD00000D0C9E0802352461B031A4202D01C42B8
:100AE00000D192E08024534624031C432403424651
:100AF000240B3EE69B46032380460C25029301E629
:100B000000239A469B46013304250293FAE501210E
:100B10000D430A2D00DD4BE6494600984140C9B21D
:100B20000391022D00DC96E00023002401200193B4
:100B30000CE649460223009A2B435140CAB2039265
:100B40000A2B00DD34E6002D57D1039B9946002483
:100B50000022494B0EE658460121C91A382900DD0A
:100B60002FE61F2956DD1F2254465242D31ADC407D
:100B7000202907D0414B42469C465346604483405F
:100B80001A43904642460721531E9A410B002243C6
:100B900013400024114209D00F231340042B5DD0D1
:100BA000111D91429B410A005B425B07D2081A4328
:100BB0000023DFE5039B9946FAE50198FFF70EFC59
:100BC00002000300153220331C2A00DC38E7019AAA
:100BD000083882403FE7FFF701FC15239C46844418
:100BE0000200634620321C2B00DC58E700239846A5
:100BF0002300083883409A4662E71D000023002442
:100C000002200193A2E5029032E61C43009B019A68
:100C10009946AEE51A4B5246C31840469A40C84022
:100C20000243404698400300581E834154461A43ED
:100C3000CC40530709D00F231340042B05D0131DBC
:100C4000934292415242A4181A00230208D501236C
:100C5000002400228EE5894600248BE50023A5E7C9
:100C600063076402240BA1E7009BA2469946019BFF
:100C7000984637E70DFCFFFFFF0700003E04000029
:100C80001E040000F0B557464E464546DE46E0B528
:100C900083B0009001910C034D00CE0F610A009CBF
:100CA0005F00640F0C43009900920193C800190380
:100CB0007B0D9946019BCC4FDB0F9C464B0A00995C
:100CC0008046490F1943009B8B46DA0092466D0D12
:100CD000B94500D1BFE00123614659404B468C46DF
:100CE000EB1A8E4275D0002B00DCA3E249460029A6
:100CF00000D1CEE0BD4200D100E20127382B19DC43
:100D0000802759463F0439438B461F2B00DDFAE10B
:100D10002027F91A8C4659466746B9400F00110042
:100D2000D9400F4361468A40511E8A415946D940F5
:100D30001743641AC71BB84280414042241A230259
:100D400000D440E16402640A002C00D154E1200088
:100D5000FFF744FB0300083B20213800CA1AD040AB
:100D60009C4002009F4022439D4200DDA6E1581BAB
:100D70000130091A3C008F40C4407B1E9F41130084
:100D80008B4027431F43C2403B0014000025134300
:100D900000D1F7E17B0700D177E30F2338003B4018
:100DA000042B04D0381DB842BF417F42E41923020E
:100DB00000D468E38C4B01359D4200D1F4E08B4BAD
:100DC0006D051C406D0D6707C00864020743240BC6
:100DD000ECE0002B00DC29E34946002900D0D6E0F6
:100DE0005946114300D12EE1591E012B00D1E6E1F5
:100DF000BB4200D182E101270B00382914DC1F2BF4
:100E000000DD3CE22027F91A8C4659466746B94076
:100E10000F001100D9400F4361468A40511E8A419C
:100E20005946D940174364183F18874280414042D1
:100E30002418230200D4C6E06B4B01359D4200D13B
:100E4000B2E00121694B7A081C4039400A43E707A8
:100E5000174364089EE7664B11438A46EB18002946
:100E600028D066452CD0002B5BD0002D00D12CE182
:100E70005B4666465F07D2081743DD083B002B43FD
:100E800000D1E2E0802424032C432403564D240B9C
:100E90008CE05946114300D1D5E0591E012B00D1F9
:100EA000B9E1BB4200D1B1E101270B00382900DDD7
:100EB00040E72AE76146012779408C466645D2D152
:100EC000002B00D1C5E0002D00D055E14B46250098
:100ED000054300D112E2591E8C46012B00D149E294
:100EE000414DAB4200D18FE20127382911DC634626
:100EF0001F2B00DD5BE26146202327005B1A050003
:100F000098409F40CD40431E9841CC402F4307431B
:100F1000A344BF189742924152425A4414004D468E
:100F200087E7344F6B1C3B4200D0B6E059462300A4
:100F300011430F000343002D00D026E1002B00D108
:100F4000C0E1002900D1A1E0831A98465B464045E4
:100F5000AD41E31A6D425B1B80252D042B4200D16D
:100F60004BE15B46101A824292411C1B070001268E
:100F700063465242A41A27431E40002F00D142E18B
:100F80002C4200D16DE2194B01251C401BE7BD42EC
:100F900000D13BE10127382B00DD45E7802759468A
:100FA0003F0439438B462AE7002400272D052543BB
:100FB000F60735433800290003B0F0BCBB46B24603
:100FC000A946A046F0BD7B0704D00F233B40042B6D
:100FD00000D0E7E62B00F808034A67070743E50857
:100FE000934200D14AE7A5E0FF070000FFFF7FFF23
:100FF00001F8FFFFFE0700003800FFF7EFF90300DC
:1010000018331F2B00DCA7E63A00083882409D42C7
:1010100000DD8AE05B1B581C1F2800DCD8E11700AC
:101020001F3BDF40202805D040231B1A9A40531E47
:101030009A4117430025002F00D1E5E07B0700D03F
:10104000ABE62C00C6E7C008C6E700270024D14D58
:10105000ACE7D14F6B1C3B4271D123000343002D01
:1010600000D04EE15746002B00D1B5E1002F0DD046
:101070008318834280415C4440422418220200D5F8
:10108000C8E11F009846274300D1BCE043466707EC
:10109000DB081F43E50800234CE0831A98465B46B3
:1010A0004045BF41E31A7F42DB1B1F027CD4474609
:1010B0001F4300D1A6E01C00474645E6B74CED1A99
:1010C00014407B0700D080E784E74B4625000543AA
:1010D00066D05F1E012B00D1FCE0AE4DAB4200D1CB
:1010E0005EE16646382F00DCB4E00120171ABA42F0
:1010F00092415B4652424D469C1A20E66707C00863
:101100000743E508BAE61F005946203FF9400F00A3
:10111000202B05D04021CB1A594699400A439246CC
:1011200053465A1E93411F4304E6EB1A9B4D15404C
:101130006F07ED082C035D05240B6D0D36E7954D0B
:10114000AB4200D1D6E0821821008242804159444E
:1011500040420818C707520817434408520700D4F2
:1011600085E10F221D003A40042A00D01AE6FF084C
:10117000640727430509DDE75B46D2085F0717438D
:10118000DD087BE60027002410E7002B00D0D6E026
:10119000002900D02FE1802400267E4D240305E79E
:1011A00066465C46D00817E75B46171ABA4292417A
:1011B0001C1B012663465242A41A1E40C4E5831834
:1011C000834280415C44404225182A0200D4DAE080
:1011D000724A5B081540EA071A4369085B0700D4A6
:1011E0004AE10F231340042B00D1FCE0171D974266
:1011F000A441644202256418ECE647461C001F43E4
:1012000000D043E7002600250024CFE6C00867078A
:101210000743E50832E6871A5B46B8428041E41A84
:101220004042241A230228D46307FF081F43E5081D
:1012300001237FE7002B00D173E64B465F1B3B0089
:10124000002D00D142E7382F00DDECE080230E00B6
:101250001B041C431F2F25DC20252300ED1B010050
:10126000A840AB40F940451EA8410B43FC40184341
:101270005B461B1B9B4639E76646012562E51F005E
:101280005946203FF9408C46202B05D0402759462F
:10129000FB1A99400A43924657467B1E9F4163467C
:1012A0001F43C1E53B002500203BDD40202F04D03B
:1012B0004023DB1B9C40204380464046431E984110
:1012C000284313E700299DD0012663465C469046DB
:1012D0001E40DBE6171A5B46BA4292411C1B524283
:1012E000A41A2302C8D46307FF081F4366460123DC
:1012F000E5081FE71D000024002757E65C46D008DC
:101300006AE6002B00D137E75346C008670707435A
:10131000E508002B00D1B1E580231B031D4208D056
:101320005946C808184204D1D20849070A43170091
:1013300005007B0FFF00FF085B071F439EE5C00809
:1013400063071843E508002953D080231B031D427F
:101350000AD05946CC081C4206D101266346250016
:10136000D008490708431E40470FC000C0087F0748
:10137000074383E58318934292415C445242A51887
:101380002A0200D524E76F07DB081F43ED0801237D
:10139000D0E6C046FF070000FE070000FFFF7FFF0A
:1013A0005B46D2085F0766461743DD0866E5250001
:1013B000203BDD406346202B05D0402361465B1A6D
:1013C0009C402043804647467B1E9F412F43A0E51B
:1013D00020210027091AD2E4002F00D113E75C4630
:1013E00017000025F6E5D708490702230F432D090A
:1013F000A0E6070042E55B4601265F07DD0863467D
:10140000D20817431E4039E55B46D2085F071743F1
:10141000DD0833E51E4ADB0822405707520201254A
:101420001F43140BC2E50E0001205FE6002B0DD018
:101430004B465B1B9C46002D00D148E50127382B0D
:1014400000DD66E580231B041C4350E56B1C114D39
:101450002B4200D073E65946230011438A460343CA
:1014600000E66707C00800230743E50862E6640753
:10147000FF08274305095DE6D208490711430F001D
:1014800002232D0956E60700A4E538008FE4C04684
:10149000FFFF7FFFFE0700000B00020070B5164D36
:1014A0000C0382B04900002000920193240B490DE7
:1014B000DE0FA94204DD1148814203DD104BF01814
:1014C00002B070BD8020400320430E4C641A1F2CD4
:1014D00008DD0D4B5B1AD84003005842002EEFD1B7
:1014E0001800EDE7094B009A9C46030061448B40CD
:1014F000E2401343F1E7C046FE0300001D04000074
:10150000FFFFFF7F3304000013040000EDFBFFFF2B
:1015100070B5002816D0C317C5185D40C40F280049
:10152000FEF75CFF104B1B1A5B055B0D0A2814DCF1
:1015300002002E00153296400B22121AD5402D03C0
:101540002D0B03E000240023002500261B052B4360
:10155000E40723433000190070BD0B3885402D038C
:1015600000262D0BF2E7C0461E04000080B582B0B5
:1015700000AF786000200DF09BFA08F04DFA031ED2
:1015800001D001F0ADFD08F031F808F07DF90AF066
:1015900083FD00200DF096FA00231800BD4602B02E
:1015A00080BD80B500AF01235B4218000DF09AFAB0
:1015B000C046BD4680BD80B500AFC046BD4680BDBB
:1015C00080B500AFC046BD4680BD000080B584B088
:1015D00000AF7860074B196D064B7A680A431A65AD
:1015E000044B1B6D7A681340FB60FB68C046BD4628
:1015F00004B080BD0000404880B586B000AF3B1D00
:10160000180014231A0000211FF014FF0820FFF710
:10161000DDFF0420FFF7DAFF2C4B00220821180021
:1016200002F007FF3B1D08221A603B1D01225A6091
:101630003B1D00229A603B1D0022DA603B1D234ABD
:101640001900100002F050FD3B1D04221A603B1DE2
:1016500002225A603B1D01229A603B1D0022DA6083
:101660003B1D05221A613A1D9023DB05110018006D
:1016700002F03AFD3B1D802292001A603B1D82223F
:10168000D2035A603B1D00229A603B1D0F4A19008D
:10169000100002F029FD0821012003F0E1FE0821DD
:1016A000012003F00BFF0421002003F09FFE0DF04A
:1016B00013FA00220121102002F004FB102002F096
:1016C00016FBC046BD4606B080BDC04600001048AF
:1016D00080B584B000AF7860074B196D064B7A680F
:1016E0000A431A65044B1B6D7A681340FB60FB6864
:1016F000C046BD4604B080BD0000404880B584B0FF
:1017000000AF7860074B996D064B7A680A439A657B
:10171000044B9B6D7A681340FB60FB68C046BD4676
:1017200004B080BD0000404880B500AF1C4B822251
:10173000D2051A601A4B1B4A5A60194B00229A6054
:10174000174B0122DA60164B00221A61144B00225B
:101750005A61134B00229A61114B0022DA61104B3F
:1017600000221A620E4B180002F0DAFE031E01D0AE
:1017700001F0B6FC0A4B0021180003F0D5FC031E53
:1017800001D001F0ADFC064B0021180003F018FD5C
:10179000031E01D001F0A4FCC046BD4680BDC0467A
:1017A0007C0100205B3D300090B589B000AF7860CF
:1017B0000C243B19180014231A0000211FF03AFED4
:1017C0007B681A688223DB059A422AD10820FFF73A
:1017D0007FFF3B19C02212011A6021007B181222E0
:1017E0005A607B1800229A607B180022DA607B180E
:1017F00002221A617B180D4A1900100002F074FCD5
:10180000C0231B011900012003F02AFEC0231B0185
:101810001900012003F052FE80239B031800FFF7FC
:101820006DFFC046BD4609B090BDC04600001048DF
:1018300080B584B000AF7860284B294A1A60274BE6
:10184000284A5A60254B284A9A60244B7A68DA6005
:101850000F217B1800221A707A18204B11001800F3
:1018600000F033FA031E02D001235B4231E01B4B30
:10187000180000F07CF9194B9B6814209847174B0F
:101880000421180000F033FA144B0021180000F076
:1018900097FB124B0421180000F097FA0C203B181C
:1018A00000221A703B181A7801210A431A703B185B
:1018B0001A7802218A431A703B181A78074B111CB8
:1018C000180000F022FB031E02D002235B4200E05E
:1018D00000231800BD4604B080BDC046D0010020E2
:1018E000E5190410391A04108D1A041090B587B048
:1018F00000AF0200FB1D1A70BB1D0A1C1A701021DC
:101900007B1800221A607B18FA1D12789A707B18D7
:10191000BA1D1278DA707A181C4B1100180001F009
:1019200042FA03007B617B69002B01D07B6928E0D0
:101930000C243B19180003231A0000211FF07AFD24
:101940003A19124B1100180000F082FC03007B6171
:101950007B69002B01D07B6913E00C203B189A783F
:1019600001210A439A703A18084B1100180000F040
:1019700057FB03007B617B69002B01D07B6900E092
:1019800000231800BD4607B090BDC046D00100201E
:1019900090B587B000AF78600C243B19180008237D
:1019A0001A0000211FF046FD3A190D4B11001800D6
:1019B00000F055FD03007B617B69002B01D07B6942
:1019C0000AE00C23FB185B785B08DBB201221340B2
:1019D000DAB27B681A7000231800BD4607B090BDCC
:1019E000D0010020B0B58AB004AFF86008007A607A
:1019F00019000B243B19021C1A7008257B190A1CBC
:101A00001A80FB687B613B191B789AB27869642362
:101A100002937B191B8801937B6800930123D421D7
:101A200002F024FE031E01D1002301E001235B42EA
:101A30001800BD4606B0B0BDB0B58AB004AFF860BE
:101A400008007A6019000B243B19021C1A70082543
:101A50007B190A1C1A80FB687B613B191B789AB2C0
:101A60007869642302937B191B8801937B68009338
:101A70000123D42102F028FF031E01D1002301E03D
:101A800001235B421800BD4606B0B0BD80B582B0F0
:101A900000AF78607B68180002F044F8C046BD468D
:101AA00002B080BDB0B586B000AFF86008007A60C3
:101AB00019000B23FB18021C1A700823FB180A1CC0
:101AC0001A80FB68002B02D101235B420FE0FB6808
:101AD0005C68FB68D8680823FB181D887A680B23AC
:101AE000FB1819782B00A04703007B617B69180065
:101AF000BD4606B0B0BDB0B586B000AFF860080016
:101B00007A6019000B23FB18021C1A700823FB18BB
:101B10000A1C1A80FB68002B02D101235B420FE0F4
:101B2000FB681C68FB68D8680823FB181D887A6866
:101B30000B23FB1819782B00A04703007B617B69FE
:101B40001800BD4606B0B0BD80B582B000AF786069
:101B500039607B68002B06D03B68002B03D03B68C4
:101B60001A787B681A70C046BD4602B080BD90B539
:101B700087B000AF78600C23FB1800221A7017237F
:101B8000FB1800221A707B689B68002B03D101238D
:101B90005B423B6151E07B680021180000F0A7F830
:101BA00003003B617B680021180000F03EF9020051
:101BB0003B699B183B613B69002B3BD10C203B18D8
:101BC0001A7801210A431A703A1878680123122101
:101BD000FFF791FF03003B610C243A197868012359
:101BE0001221FFF75FFF02003B699B183B613B69D5
:101BF000002B21D17B689B68012098473B191B78FB
:101C000001221340DBB2002B07D01722BB181B7830
:101C1000BA18591C1170022BDED90C23FB181B7843
:101C200001221340DBB2002B01D1002306E0012387
:101C30005B4203E0C04600E0C0463B691800BD4679
:101C400007B090BD90B585B000AF78600A00FB1C6E
:101C50001A700823FA18786801230121FFF722FF80
:101C60000300FB60FB68002B01D0FB6829E0FB1C34
:101C70001B785B081A1C01231340DAB208243B19B5
:101C800001210A4090011A7840218A43111C021C4C
:101C90000A431A70FB1C1B7801221340DAB23B196D
:101CA000D0011A787F210A40111C021C0A431A70C5
:101CB0003A19786801230121FFF71DFF0300FB603B
:101CC000FB681800BD4605B090BD80B584B000AF7C
:101CD000786039603A68786801230F21FFF7E2FEE7
:101CE0000300FB60FB681800BD4604B080BD90B5E2
:101CF00087B000AF78600A00FB1C1A701023FA1836
:101D0000786801231021FFF7CDFE03007B617B691A
:101D1000002B01D07B6954E0FB1C1B780F22134081
:101D2000DAB210243B190F210A4010001A780F2153
:101D30008A43111C021C0A431A703A19786801235D
:101D40001021FFF7D8FE03007B617B69002B01D0D7
:101D50007B6936E013217B18FA1C127812091A707D
:101D60007B181B78002B2BD00C23FA1878680123E2
:101D70006221FFF797FE02007B699B187B617B69FC
:101D8000002B01D07B691CE01323FB181B78032276
:101D90001340DAB20C243B1903210A4010001A78D0
:101DA00003218A43111C021C0A431A703A197868ED
:101DB00001236221FFF79FFE02007B699B187B6174
:101DC0007B691800BD4607B090BD90B585B000AFE7
:101DD00078600A00FB1C1A7008243A1978680123FD
:101DE0001021FFF75FFE0300FB60FB68002B17D19B
:101DF000FB1C1B7807221340DAB23B1907210A406B
:101E000010011A7870218A43111C021C0A431A70AF
:101E10003A19786801231021FFF76DFE0300FB607B
:101E2000FB681800BD4605B090BD90B587B000AF07
:101E300078600A00FB1C1A701023FA1878680123D6
:101E40001121FFF72FFE03007B617B69002B01D07E
:101E50007B6956E0FB1C1B780F221340DAB210247A
:101E60003B190F210A4010001A780F218A43111CD8
:101E7000021C0A431A703A19786801231121FFF7EE
:101E80003AFE02007B699B187B617B69002B01D0C5
:101E90007B6936E013217B18FA1C127812091A703C
:101EA0007B181B78002B2BD00C23FA1878680123A1
:101EB0006221FFF7F7FD02007B699B187B617B695C
:101EC000002B01D07B691CE01323FB181B78032235
:101ED0001340DAB20C243B1903210A4010001A788F
:101EE00003218A43111C021C0A431A703A197868AC
:101EF00001236221FFF7FFFD02007B699B187B61D4
:101F00007B691800BD4607B090BD90B587B000AFA3
:101F100078603B0019700C23FA187868012350216F
:101F2000FFF7C0FD03007B617B69002B01D07B695B
:101F300042E03B001B78DB07DB0FDAB20C243B19D5
:101F4000D0011A787F210A40111C021C0A431A7022
:101F50003A19786801235021FFF7CDFD03007B611A
:101F60001023FA18786801235621FFF79BFD020021
:101F70007B699B187B617B69002B01D07B691BE02F
:101F80003B001B789B07DB0FDAB210243B190121C1
:101F90000A4010001A7801218A43111C021C0A43CE
:101FA0001A703A19786801235621FFF7A4FD020040
:101FB0007B699B187B617B691800BD4607B090BDAB
:101FC00090B585B000AF78600A00FB1C1A70082439
:101FD0003A19786801231721FFF764FD0300FB60BD
:101FE000FB68002B17D1FB1C1B7803221340DAB2CD
:101FF0003B1903210A4010001A7803218A43111C5F
:10200000021C0A431A703A19786801231721FFF756
:1020100072FD0300FB60FB681800BD4605B090BD73
:1020200090B587B000AF786039601023FA187868EF
:1020300001230D21FFF736FD03007B617B69002B37
:1020400001D07B6900E13B681B78DB07DB0FDAB26C
:1020500010243B1901210A4010001A7801218A43FB
:10206000111C021C0A431A703B681B789B07DB0F8C
:10207000DAB23B1901210A4090181A7802218A43EA
:10208000111C021C0A431A703B681B789B06DB0F6D
:10209000DAB23B1901210A40D0001A7808218A439C
:1020A000111C021C0A431A703B681B785B06DB0F8D
:1020B000DAB23B1901210A4010011A7810218A4333
:1020C000111C021C0A431A703B681B781B06DB0FAD
:1020D000DAB23B1901210A4050011A7820218A43C3
:1020E000111C021C0A431A703B685B78DB07DB0F8C
:1020F000DAB23B1901210A4090011A7840218A4343
:10210000111C021C0A431A703A19786801230D2128
:10211000FFF7F1FC03007B610C23FA1878680123B8
:102120005E21FFF7BFFC02007B699B187B617B6926
:10213000002B01D07B6987E03B685B781B07DB0FD6
:10214000DAB20C243B1901210A4010001A7801214F
:102150008A43111C021C0A431A703B685B78DB0639
:10216000DB0FDAB23B1901210A4090181A780221DC
:102170008A43111C021C0A431A703B685B789B0659
:10218000DB0FDAB23B1901210A4090001A780421D2
:102190008A43111C021C0A431A703B685B785B0679
:1021A000DB0FDAB23B1901210A4090011A78402175
:1021B0008A43111C021C0A431A703B685B781B0699
:1021C000DB0FDAB23B1901210A40D0001A7808214E
:1021D0008A43111C021C0A431A703B689B78DB0778
:1021E000DB0FDAB23B1901210A4050011A78202195
:1021F0008A43111C021C0A431A703B689B789B0798
:10220000DB0FDAB23B1901210A4010011A781021C4
:102210008A43111C021C0A431A703B689B785B07B7
:10222000DB0FDAB23B19D0011A787F210A40111C6A
:10223000021C0A431A703A19786801235E21FFF7DD
:102240005AFC03007B617B691800BD4607B090BD56
:1022500090B587B000AF786039603B6803220021F9
:1022600018001FF0E7F81023FA18786801230D21F1
:10227000FFF718FC03007B610C23FA187868012330
:102280005E21FFF70FFC02007B699B187B617B6975
:10229000002B01D07B69DEE010243B191B78DB07A3
:1022A000DB0FDAB23B6801210A4010001A780121E5
:1022B0008A43111C021C0A431A703B191B789B07A6
:1022C000DB0FDAB23B6801210A4090181A7802212C
:1022D0008A43111C021C0A431A703B191B781B0706
:1022E000DB0FDAB23B6801210A4050011A78202145
:1022F0008A43111C021C0A431A703B191B78DB0627
:10230000DB0FDAB23B6801210A4090011A784021C4
:102310008A43111C021C0A431A703B191B789B0646
:10232000DB0FDAB23B68D0011A787F210A40111C1A
:10233000021C0A431A703B191B785B06DB0FDAB2EA
:102340003B6801210A4010005A7801218A43111C80
:10235000021C0A435A700C243B191B78DB07DB0F65
:10236000DAB23B6801210A40D0005A7808218A433A
:10237000111C021C0A435A703B191B789B07DB0F88
:10238000DAB23B6801210A4010015A7810218A43D1
:10239000111C021C0A435A703B191B785B07DB0FA8
:1023A000DAB23B6801210A4050015A7820218A4361
:1023B000111C021C0A435A703B191B785B06DB0F89
:1023C000DAB23B6801210A4090015A7840218A43E1
:1023D000111C021C0A435A703B191B781B07DB0FA8
:1023E000DAB23B68D0015A787F210A40111C021CE6
:1023F0000A435A703B191B789B06DB0FDAB23B6825
:1024000001210A4010009A7801218A43111C021C04
:102410000A439A703B191B78DB06DB0FDAB23B6884
:1024200001210A4090189A7802218A43111C021C4B
:102430000A439A703B191B781B06DB0FDAB23B6824
:1024400001210A4090009A7804218A43111C021C41
:102450000A439A707B691800BD4607B090BDF0B57D
:1024600095B000AF786039603823FA187868012396
:102470005021FFF717FB0300FB64FB6C002B02D01D
:10248000FB6C00F08CFC38257B191A7808210A4374
:102490001A707A19786801235021FFF72CFB03008A
:1024A000FB640C243A19786804231B21FFF7FAFA1D
:1024B0000200FB6C9B18FB643B195A1C3026BB19AD
:1024C00011001800FFF740FB3B199A1C2C23FB1846
:1024D00011001800FFF738FB3B19DA1C24243B19C4
:1024E00011001800FFF730FBBB191B785B06DB0FF0
:1024F000DAB23B6801210A409018DA7902218A4356
:10250000111C021C0A43DA71BB191B78DB06DB0FB6
:10251000DAB23B68D0019A797F210A40111C021C73
:102520000A439A71BB191B789B06DB0FDAB23B6832
:1025300001210A401000DA7901218A43111C021C92
:102540000A43DA71BB191B781B06DB0FDAB23B6852
:1025500001210A409000DA7904218A43111C021CEF
:102560000A43DA712C26BB191B78DB07DB0FDAB2C2
:102570003B6801210A4010005A7801218A43111C4E
:10258000021C0A435A70BB191B789B07DB0FDAB297
:102590003B6801210A4090185A7802218A43111C95
:1025A000021C0A435A70BB191B78DB06DB0FDAB238
:1025B0003B6801210A40D0009A7808218A43111C07
:1025C000021C0A439A703B191B78DB07DB0FDAB257
:1025D0003B6801210A4010001A7801218A43111C2E
:1025E000021C0A431A703B191B789B07DB0FDAB2F7
:1025F0003B6801210A4090181A7802218A43111C75
:10260000021C0A431A703B191B785B07DB0FDAB216
:102610003B6801210A4090001A7804218A43111C6A
:10262000021C0A431A703B191B781B07DB0FDAB236
:102630003B6801210A40D0001A7808218A43111C06
:10264000021C0A431A703B191B78DB06DB0FDAB257
:102650003B6801210A4010011A7810218A43111C9D
:10266000021C0A431A703B191B789B06DB0FDAB277
:102670003B6801210A4050011A7820218A43111C2D
:10268000021C0A431A703B191B781B06DB0FDAB2D7
:102690003B68D0011A787F210A40111C021C0A43B2
:1026A0001A707A19786801235021FFF7FBF90300AB
:1026B000FB647B191A7808218A431A707A197868A2
:1026C00001235021FFF717FA0200FB6C9B18FB64F3
:1026D000FB6C002B01D0FB6C61E30C23FA187868CB
:1026E00008234421FFF7DEF90300FB64FB6C002B99
:1026F00001D0FB6C53E30C257A191823FB18110049
:102700001800FFF721FA7B195A1C2823FB18110027
:102710001800FFF719FA7B199A1C1C26BB19110027
:102720001800FFF711FA7B19DA1C2023FB1811009F
:102730001800FFF709FA7B195A1D48217B18110070
:102740001800FFF701FA7B199A1D40243B1911006C
:102750001800FFF7F9F97B19DA1D3C203B1811002E
:102760001800FFF7F1F91822BB181B785B07DB0F85
:10277000DAB23B6801210A4090011A7840218A436D
:10278000111C021C0A431A7028221500BB181B7862
:102790005B06DB0FDAB23B6801210A409000DA7871
:1027A00004218A43111C021C0A43DA707B191B782E
:1027B0005B07DB0FDAB23B6801210A4010015A784F
:1027C00010218A43111C021C0A435A707B191B7882
:1027D0009B07DB0FDAB23B6801210A40D0005A7830
:1027E00008218A43111C021C0A435A707B191B786A
:1027F000DB07DB0FDAB23B6801210A4090005A7810
:1028000004218A43111C021C0A435A702A00BB1877
:102810001B78DB06DB0FDAB23B6801210A40D000EF
:10282000DA7808218A43111C021C0A43DA70BB19AA
:102830001B785B07DB0FDAB23B6801210A40901876
:102840009A7802218A43111C021C0A439A70BB1910
:102850001B789B07DB0FDAB23B6801210A401000AE
:102860009A7801218A43111C021C0A439A70BB19F1
:102870001B78DB07DB0FDAB23B68D0015A787F2187
:102880000A40111C021C0A435A703500BB191B7800
:102890001B07DB0FDAB23B6801210A4090009A78EF
:1028A00004218A43111C021C0A439A707B191B786D
:1028B000DB06DB0FDAB23B6801210A4090015A784F
:1028C00040218A43111C021C0A435A707B191B7851
:1028D0009B06DB0FDAB23B6801210A4050015A78AF
:1028E00020218A43111C021C0A435A7020257B199F
:1028F0001B78DB06DB0FDAB23B6801210A401000CF
:10290000DA7801218A43111C021C0A43DA707B1910
:102910001B789B06DB0FDAB23B6801210A40901856
:10292000DA7802218A43111C021C0A43DA707B19EF
:102930001B785B07DB0FDAB23B6801210A4090018C
:102940009A7840218A43111C021C0A439A707B1911
:102950001B781B07DB0FDAB23B68D0019A787F2126
:102960000A40111C021C0A439A707B191B78DB0772
:10297000DB0FDAB23B6801210A4010019A7810217E
:102980008A43111C021C0A439A707B191B789B070F
:10299000DB0FDAB23B6801210A4050019A7820210E
:1029A0008A43111C021C0A439A7048257B191B7824
:1029B0001B07DB0FDAB23B6801210A401001DA780D
:1029C00010218A43111C021C0A43DA707B191B7800
:1029D000DB06DB0FDAB23B6801210A4090001A796E
:1029E00004218A43111C021C0A431A717B191B78AB
:1029F0009B06DB0FDAB23B6801210A40D0001A794E
:102A000008218A43111C021C0A431A717B191B7886
:102A10001B06DB0FDAB23B6801210A4010011A796C
:102A200010218A43111C021C0A431A713B191B789E
:102A3000DB07DB0FDAB23B6801210A4050011A794B
:102A400020218A43111C021C0A431A713B191B786E
:102A50009B07DB0FDAB23B6801210A4090011A792B
:102A600040218A43111C021C0A431A713B191B782E
:102A70005B07DB0FDAB23B68D0011A797F210A408D
:102A8000111C021C0A431A713B191B781B07DB0F30
:102A9000DAB23B6801210A4010005A7901218A43C9
:102AA000111C021C0A435A713B191B78DB06DB0F11
:102AB000DAB23B6801210A4090185A7902218A4310
:102AC000111C021C0A435A713B191B789B06DB0F31
:102AD000DAB23B6801210A4090005A7904218A4306
:102AE000111C021C0A435A713B191B785B06DB0F51
:102AF000DAB23B6801210A40D0005A7908218A43A2
:102B0000111C021C0A435A713B191B781B06DB0F70
:102B1000DAB23B6801210A4010015A7910218A4338
:102B2000111C021C0A435A713C243B191B78DB0719
:102B3000DB0FDAB23B6801210A4050015A792021AB
:102B40008A43111C021C0A435A713B191B789B07CC
:102B5000DB0FDAB23B6801210A4090015A7940212B
:102B60008A43111C021C0A435A713B191B785B07EC
:102B7000DB0FDAB23B68D0015A797F210A40111C81
:102B8000021C0A435A713B191B781B07DB0FDAB290
:102B90003B6801210A4010009A7901218A43111CE7
:102BA000021C0A439A717B6801211800FFF74AF85A
:102BB0000300FB64FB6C002B13D14423FA187868E4
:102BC00001230721FEF76EFF0300FB643423FA188C
:102BD000786801236421FEF765FF0200FB6C9B18F7
:102BE000FB647B6800211800FFF72CF80200FB6CE7
:102BF0009B18FB64FB6C002B01D0FB6CCFE04424E2
:102C00003B191B78DB07DB0FDAB23B6801210A4076
:102C100010001A7901218A43111C021C0A431A71FF
:102C20003B191B789B07DB0FDAB23B6801210A4096
:102C300090181A7902218A43111C021C0A431A7146
:102C400034243B191B785B07DB0FDAB23B680121A8
:102C50000A405001DA7820218A43111C021C0A43E1
:102C6000DA703B191B781B07DB0FDAB23B680121D6
:102C70000A409001DA7840218A43111C021C0A4361
:102C8000DA703B191B78DB06DB0FDAB23B68D00148
:102C9000DA787F210A40111C021C0A43DA703B19C2
:102CA0001B789B06DB0FDAB23B6801210A4010015A
:102CB000DA7810218A43111C021C0A43DA701423AB
:102CC000FA18786801234821FEF7ECFE0300FB6444
:102CD000FB6C002B01D0FB6C61E014243B191B78CA
:102CE000DB07DB0FDAB23B6801210A4090189A79C2
:102CF00002218A43111C021C0A439A713B191B785A
:102D00001B06DB0FDAB23B6801210A4090019A7979
:102D100040218A43111C021C0A439A713B191B78FB
:102D20005B06DB0FDAB23B6801210A4050019A7959
:102D300020218A43111C021C0A439A713B191B78FB
:102D40009B06DB0FDAB23B6801210A4010019A7939
:102D500010218A43111C021C0A439A713B191B78EB
:102D6000DB06DB0FDAB23B6801210A40D0009A791A
:102D700008218A43111C021C0A439A713B191B78D3
:102D80001B07DB0FDAB23B6801210A4090009A79F9
:102D900004218A43111C021C0A439A71FB6C18001F
:102DA000BD4615B0F0BDF0B589B000AF78603960B0
:102DB0001423FA18786801235421FEF773FE0300E8
:102DC000FB611823FA18786801235521FEF76AFE83
:102DD0000200FB699B18FB611023FA187868012335
:102DE0005B21FEF75FFE0200FB699B18FB610C2371
:102DF000FA18786801235C21FEF754FE0200FB6993
:102E00009B18FB61FB69002B01D0FB6990E03B68DC
:102E10001B785B065B0FDAB214243B1907210A40CA
:102E200010011A7870218A43111C021C0A431A707F
:102E30003B681B781B079B0FDAB23B1903210A4042
:102E400090001A780C218A43111C021C0A431A7044
:102E50003B681B789B079B0FDAB23B1903210A40A2
:102E600010001A7803218A43111C021C0A431A70AD
:102E70003B685B781A1C3F231340DAB218257B1994
:102E80003F210A4010001A783F218A43111C021C7E
:102E90000A431A703B689B781A1C3F231340DAB22E
:102EA0001026BB193F210A4010001A783F218A439F
:102EB000111C021C0A431A703B68DB781A1C03239E
:102EC0001340DAB20C23FB1803210A4050011A7890
:102ED00060218A43111C021C0A431A703A1978684F
:102EE00001235421FEF707FE0200FB699B18FB61DA
:102EF0007A19786801235521FEF7FDFD0200FB6970
:102F00009B18FB61BA19786801235B21FEF7F3FD7A
:102F10000200FB699B18FB610C23FA1878680123F7
:102F20005C21FEF7E8FD0200FB699B18FB61FB6971
:102F30001800BD4609B0F0BD80B500AF024B0122BC
:102F40001A70C046BD4680BDE401002080B582B045
:102F500000AF00F062FD00F06FF800F0A4F8FEF79B
:102F60004BFBFEF7E1FB00F04BFA00F051F900F0EB
:102F7000FDF900F0D1F80020FEF7F8FA1E4B18001A
:102F8000FEF756FC031E09D01C4B0821180001F067
:102F90006DFAC82000F0C6FDC046F5E703212220E7
:102FA000FEF7A4FCFEF7FDFA09F0E0FD144B1B78D8
:102FB000DBB2002BF6D0124B00221A70FB1D002250
:102FC0001A70FB1D1800FEF7E3FCFB1D1B78002B9D
:102FD0000FD00A4B0821180001F048FAFB1D1B789E
:102FE0001900012009F05AFDFA235B00180000F0D7
:102FF00099FD02F0EDF9D5E77C01002000001048B2
:10300000E401002080B582B000AF78600A00BB1CEC
:103010001A807B68074A934207D1BB1C1A88802319
:103020009B009A4201D1FFF787FFC046BD4602B020
:1030300080BDC0460000104890B589B000AF08249C
:103040003B19180018231A0000211EF0F3F93B0069
:10305000180008231A0000211EF0ECF93B19032286
:103060001A603B19802252025A603B191022DA6022
:103070003B19180004F06EFF031E01D000F030F879
:103080003B0000221A603B0000225A603B001021E6
:10309000180005F0AFF8031E01D000F021F8C0467B
:1030A000BD4609B090BD80B586B000AF3B001800AA
:1030B00018231A0000211EF0BDF93B0002221A60FD
:1030C0003B00802252015A613B00180005F0B4F920
:1030D000031E01D000F004F8C046BD4606B080BD16
:1030E00080B500AF72B6C046C046FDE780B584B07B
:1030F00000AF7860074B196D064B7A680A431A6572
:10310000044B1B6D7A681340FB60FB68C046BD46EC
:1031100004B080BD0000404880B500AF064B074AB0
:103120001A60054B180002F097F8031E01D0FFF754
:10313000D7FFC046BD4680BDE801002000003048F2
:1031400080B582B000AF78607B681B68094A934203
:103150000CD180235B021800FFF7C8FF0022012179
:103160000D2000F0AFFD0D2000F0C1FDC046BD46B2
:1031700002B080BD0000304880B584B000AF7860F8
:10318000074B196E064B7A680A431A66044B1B6E8E
:103190007A681340FB60FB68C046BD4604B080BD42
:1031A0000000404880B582B000AF7860064B1B6ECF
:1031B0007A6813407A689A4201D1012300E0002323
:1031C0001800BD4602B080BD0000404880B582B006
:1031D00000AF7860044B196C034B7A680A431A6499
:1031E000C046BD4602B080BD0000404880B582B0F8
:1031F00000AF7860054B1A6C7B68D943034B0A40DB
:103200001A64C046BD4602B080BDC04600004048BA
:1032100080B582B000AF00237B600120FFF7C2FFC2
:10322000031E08D10120FFF7D1FF0120FFF7DEFFC9
:103230000120FFF7A1FFC023DB057B603B1D1800C9
:1032400002F0FAFAC046BD4602B080BD90B589B022
:1032500000AF786008243B19180018231A000021D9
:103260001EF0E8F87B681A68C023DB059A4222D179
:103270003B1901221A603B1902221A613B191800FE
:1032800005F0DAF8031E01D0FFF72AFF0120FFF74F
:1032900073FF0BF021FC00220021122000F012FD30
:1032A000122000F024FD00220021192000F00AFD68
:1032B000192000F01CFDC046BD4609B090BD80B588
:1032C00082B000AF78607B681B691800BD4602B011
:1032D00080BD000080B584B000AF7860074B196EE8
:1032E000064B7A680A431A66044B1B6E7A681340D1
:1032F000FB60FB68C046BD4604B080BD000040488E
:1033000080B582B000AF7860064B1B6E7A681340C0
:103310007A689A4201D1012300E000231800BD46DB
:1033200002B080BD0000404880B582B000AF786038
:10333000044B196C034B7A680A431A64C046BD46B5
:1033400002B080BD0000404880B582B000AF786018
:10335000054B1A6C7B68D943034B0A401A64C0467C
:10336000BD4602B080BDC0460000404880B582B076
:1033700000AF3B00180008231A0000211EF05AF885
:103380000120FFF7BDFF031E08D10120FFF7CCFF8E
:103390000120FFF7D9FF0120FFF79CFFC0460C4B2F
:1033A0001800FFF78CFF03000F2BF8D93B00A02279
:1033B00052001A803B0000229A703B0000225A60A3
:1033C0003B00180002F044FFC046BD4602B080BD7D
:1033D0000018006080B584B000AF7860074B196DAD
:1033E000064B7A680A431A65044B1B6D7A681340D2
:1033F000FB60FB68C046BD4604B080BD000040488D
:1034000080B500AF064B074A1A60054B180005F05F
:103410004EF8031E01D0FFF763FEC046BD4680BDD7
:10342000F40100200000604880B582B000AF7860F1
:103430007B681B68054A934204D18023DB02180095
:10344000FFF7C8FFC046BD4602B080BD000060481F
:1034500080B584B000AF7860074B596D064B7A6831
:103460000A435A65044B5B6D7A681340FB60FB6846
:10347000C046BD4604B080BD0000404880B500AFE6
:1034800080235B001800FFF7E3FFC046BD4680BD08
:1034900080B500AFC046FDE780B500AFC046FDE790
:1034A00080B500AFC046BD4680BD80B500AFC04608
:1034B000BD4680BD80B500AF00F00EFBC046BD46E6
:1034C00080BD000080B500AF034B180005F02AF85E
:1034D000C046BD4680BDC0460C02002080B500AF8E
:1034E000034B180001F001FFC046BD4680BDC04639
:1034F000E801002080B500AF80239B00034A19003B
:10350000100000F0CEFFC046BD4680BD0000104850
:1035100080B500AF04F020FBC046BD4680BD80B53D
:1035200000AF04F022FBC046BD4680BD80B500AFB1
:1035300004F024FBC046BD4680BD80B500AF02F05C
:10354000ABFCC046BD4680BD80B500AF02F0C5FCF7
:10355000C046BD4680BD80B586B000AFF860B9609A
:103560007A6000237B610AE000E000BF0100BB68D5
:103570005A1CBA60CAB21A707B6901337B617A69DE
:103580007B689A42F0DB7B681800BD4606B080BDC0
:1035900080B586B000AFF860B9607A6000237B61C7
:1035A00009E0BB685A1CBA601B78180000E000BF35
:1035B0007B6901337B617A697B689A42F1DB7B68C6
:1035C0001800BD4606B080BD80B582B000AF7860FF
:1035D00001235B421800BD4602B080BD80B582B0B9
:1035E00000AF786039603B68802292015A60002306
:1035F0001800BD4602B080BD80B582B000AF7860D3
:1036000001231800BD4602B080BD80B584B000AF74
:10361000F860B9607A6000231800BD4604B080BD30
:1036200080B586B000AF7860144A154BD31A7B6121
:103630007B693B61134B1B68002B02D1114B124A73
:103640001A60104B1A687B68D3183A699A4207D2FD
:103650001DF046FF03000C221A6001235B4209E0C3
:10366000084B1B68FB60074B1A687B68D218054B38
:103670001A60FB681800BD4606B080BD000001203E
:10368000000C000008020020182A002090B583B02A
:1036900000AF02003960FB1D1A70FB1D1B787F2BE9
:1036A00028D82F4AFB1D1B785BB29B08C0339B00B8
:1036B0009B58FA1D1278110003220A40D200FF2104
:1036C00091400A00D2431A4011003B689B01FF223F
:1036D0001A40FB1D1B78180003230340DB009A40AF
:1036E0001F48FB1D1B785BB29B080A43C0339B003D
:1036F0001A5031E01B4AFB1D1B7819000F230B40A9
:10370000083B9B0806339B00D31804331B68FA1D43
:103710001278110003220A40D200FF2191400A00D2
:10372000D2431A4011003B689B01FF221A40FB1D47
:103730001B78180003230340DB009A400948FB1D57
:103740001B781C000F232340083B9B080A430633C9
:103750009B00C31804331A60C046BD4603B090BD39
:1037600000E100E000ED00E080B500AFBFF34F8F57
:10377000C046044B044ADA60BFF34F8FC046C046D0
:10378000FDE7C04600ED00E00400FA0590B587B003
:1037900000AF644A9423D358002B0ED1624B1B69AF
:1037A000002B03D1604B9B6B002B06D05F4B01229B
:1037B0009A60FCF719FDFFF7D7FF5D4B5D4A9A60F1
:1037C0005B4B9A68594B1A61574B5A68564B2021EC
:1037D0000A435A60544B5A68534B40210A435A607B
:1037E000514B5A68504B80210A435A60C0464E4B99
:1037F0005B6904221340042BF9D14B4BDB69302267
:1038000093431A00484B20210A43DA61464BDA6998
:10381000454B49490A40DA61434BDA69424B802102
:1038200049000A43DA61454B1B68454A93425BD025
:103830001E233B610823FB600323BB6008237B60DE
:10384000394A9423D3581E2293431A007B685B00A5
:103850001E210B403449134394228B50324A942347
:10386000D35831490122134394228B502D4BDB68EE
:10387000344A134019003B691A062A4B0A43DA609E
:10388000284BDA68274B802109040A43DA60264A6C
:103890009423D3582C4A1A40FB689901F0239B00CB
:1038A0000B402149134394228B501F4A9423D35831
:1038B0001D492022134394228B501B4A9423D35832
:1038C000224A1A40BB68D902E0239B010B401649EB
:1038D000134394228B50144A9423D35812498022C4
:1038E000D200134394228B501723FB1800221A7026
:1038F0000DE017243B191B785BB203211800FFF77A
:10390000C5FE21007B181A787B1801321A70172324
:10391000FB181B781F2BECD962B6C046C046BD46CB
:1039200007B090BD0000404800005048040000204F
:1039300000ED00E000000410FFFBFFFFF81E001088
:10394000CCECBCFCFFFFFFC03FFCFFFFFFC7FFFF4D
:1039500080B582B000AF134B9B685B08DAB2FB1DE9
:1039600001210A401A700F4B9B685B09DAB2BB1D3C
:1039700007210A401A70FB1D1B78002B07D0BB1DC6
:103980001B78013B084ADA40084B1A6005E0BB1D72
:103990001B78074ADA40054B1A60C046BD4602B0A4
:1039A00080BDC046000040480048E80144070020B0
:1039B0000090D00310488546FFF7E8FE002103E0A1
:1039C0000E4B5B58435004310D480E4B42189A423F
:1039D000F6D30D4A02E00023136004320B4B9A42E7
:1039E000F9D30B4A02E0002313600432094B9A42D8
:1039F000F9D3FFF7ABFAFEE700000120843306108D
:103A000044070020140900207C0100204407002006
:103A1000C00000207C010020FEE780B582B000AF2E
:103A2000FB1D00221A70032000F00EF8031E03D0C5
:103A3000FB1D01221A7001E0FFF720FDFB1D1B7822
:103A40001800BD4602B080BD90B585B000AF78606B
:103A50000F23FB1800221A701D4B1B78002B2CD053
:103A600004F074FC04001A4B1B781900FA23980028
:103A7000FCF7DEFB030019002000FCF7D9FB030074
:103A8000180000F044F9031E12D17B68032B0AD8FA
:103A9000796801235B420022180000F013F90D4BF6
:103AA0007A681A600DE00F23FB1801221A7008E0F3
:103AB0000F23FB1801221A7003E00F23FB180122C9
:103AC0001A700F23FB181B781800BD4605B090BD77
:103AD0004C0700204807002080B500AF054B1B783D
:103AE0001A00054B1B68D218034B1A60C046BD462E
:103AF00080BDC0464C070020A002002080B500AF6A
:103B0000024B1B681800BD4680BDC046A0020020C5
:103B100080B500AF024B1B681800BD4680BDC04693
:103B20004807002080B584B000AF7860FFF7E6FF5B
:103B30000300BB607B68FB60FB68013305D00A4B68
:103B40001B781A00FB689B18FB60C046FFF7D6FF86
:103B50000200BB68D31AFA689A42F7D8C046C0463A
:103B6000BD4604B080BDC0464C07002080B582B081
:103B700000AF0200FB1D1A70FB1D1B787F2B09D8BC
:103B8000FB1D1B781A001F231A40044B0121914092
:103B90000A001A60C046BD4602B080BD00E100E0E8
:103BA00090B583B000AF02003960FB1D1A70FB1D99
:103BB0001B787F2B28D82F4AFB1D1B785BB29B08F4
:103BC000C0339B009B58FA1D1278110003220A4053
:103BD000D200FF2191400A00D2431A4011003B68F5
:103BE0009B01FF221A40FB1D1B7818000323034092
:103BF000DB009A401F48FB1D1B785BB29B080A4301
:103C0000C0339B001A5031E01B4AFB1D1B78190082
:103C10000F230B40083B9B0806339B00D31804334B
:103C20001B68FA1D1278110003220A40D200FF21FE
:103C300091400A00D2431A4011003B689B01FF22C9
:103C40001A40FB1D1B78180003230340DB009A4039
:103C50000948FB1D1B781C000F232340083B9B08D1
:103C60000A4306339B00C31804331A60C046BD469E
:103C700003B090BD00E100E000ED00E080B582B04F
:103C800000AF78607B685A1E80235B049A4201D3A0
:103C9000012310E00A4B7A68013A5A6001235B4223
:103CA00003211800FFF77CFF054B00229A60044BAC
:103CB00007221A6000231800BD4602B080BDC0462E
:103CC00010E000E080B584B000AFB9607A600F21E9
:103CD0007B18021C1A70BA687B181B785BB2110043
:103CE0001800FFF75DFFC046BD4604B080BD80B53B
:103CF00082B000AF0200FB1D1A70FB1D1B785BB287
:103D00001800FFF733FFC046BD4602B080BD80B546
:103D100082B000AF78607B681800FFF7AFFF030048
:103D20001800BD4602B080BD80B582B000AF78609B
:103D30007B68002B01D1012331E07B6825229B5C4D
:103D4000DBB2022B08D07B680422DA637B68242272
:103D500000219954012322E07B681B681A687B6864
:103D60001B680E218A431A607B681B681A687B688F
:103D70001B6801218A431A607B685B6C3C221A40F5
:103D80007B681B6C012191400A005A607B682522E8
:103D9000012199547B6824220021995400231800A2
:103DA000BD4602B080BD80B584B000AF78600F2101
:103DB0007B1800221A707B6825229B5CDBB2022BE9
:103DC00006D07B680422DA637B1801221A702AE08D
:103DD0007B681B681A687B681B680E218A431A601F
:103DE0007B681B681A687B681B6801218A431A601C
:103DF0007B685B6C3C221A407B681B6C0121914004
:103E00000A005A607B682522012199547B6824228C
:103E1000002199547B689B6B002B04D07B689B6BC3
:103E20007A68100098470F23FB181B781800BD46CE
:103E300004B080BDB0B586B000AFF860B9607A60FC
:103E40001D4B1B78012B01D1022331E01A4B0122BB
:103E50001A70194B00225A6017257C19FA239B000F
:103E6000180000F02BF8030023707B191B78002B3F
:103E700018D1FB68002B06D17A68BB6811001800C6
:103E800000F056F805E07A68BB681100180000F0F1
:103E900071F81723FC18FA239B00180000F00EF8A5
:103EA00003002370044B00221A701723FB181B78A1
:103EB0001800BD4606B0B0BDA402002080B584B095
:103EC00000AF7860FFF71AFE0300FB600CE07B6830
:103ED000013309D0FFF712FE0200FB68D31A7A689B
:103EE0009A4201D803231BE00F4B1B6901221340A8
:103EF000012BECD10C4B1B690C2213400C2B0ED167
:103F0000094B9A68094B5B681A43084B5A60064B89
:103F10001A69054B0C210A431A61012300E00023B2
:103F20001800BD4604B080BD00100040A40200206F
:103F300080B582B000AF786039600C4B1A690B4BCA
:103F40000F210A431A617B68094A944663449A0820
:103F5000064B1204120C9A61044B3A681A64034B24
:103F600033221A60C046BD4602B080BD001000403A
:103F70000000FCEF80B584B000AF786039603B682A
:103F8000FB60174B1A69164B0F210A431A617B68B5
:103F9000144A944663449A08114B1204120C9A6115
:103FA0000F4AFB681B681364FB680433FB600C4A10
:103FB000FB681B685364FB680433FB60084AFB68BA
:103FC0001B689364FB680433FB60054AFB681B684D
:103FD000D364034BCC221A60C046BD4604B080BDFA
:103FE000001000400000FCEFB0B584B000AF786076
:103FF0003960274B1B78012B01D1022343E0244B6E
:1040000001221A70224B00225A607B681B68FF2B2A
:104010000BD100F03FF80F23FC18FA239B00180087
:10402000FFF74CFF0300237027E03B680122524258
:104030001A607B685B68BB6017E0BB68180000F023
:1040400039F80F257C19FA239B001800FFF736FF7B
:10405000030023707B191B78002B03D03B68BA68E0
:104060001A600AE0BB680133BB607B685A687B68F2
:104070009B68D318BA689A42DFD3054B00221A70A6
:104080000F23FB181B781800BD4604B0B0BDC04616
:10409000A402002080B500AF054B1A69044B0F2124
:1040A0000A431A61024B22221A60C046BD4680BDF7
:1040B0000010004080B582B000AF7860094B1A69EB
:1040C000084B0F210A431A617B68DB029A08054BF3
:1040D0001204120C9A61034B11221A60C046BD46AD
:1040E00002B080BD0010004080B586B000AF78609F
:1040F000396000237B6190E13B681B6801217A698C
:1041000091400A001340FB60FB68002B00D181E165
:104110003B685B6803221340012B05D03B685B685A
:1041200003221340022B30D17B689B683B617B6983
:104130005B0003229A401300DA433B6913403B6162
:104140003B68DA687B695B009A4013003A69134365
:104150003B617B683A699A607B685B683B610122DE
:104160007B699A401300DA433B6913403B613B682B
:104170005B681B0901221A407B699A4013003A6967
:1041800013433B617B683A695A603B685B68032272
:104190001340032B17D07B68DB683B617B695B00B6
:1041A00003229A401300DA433B6913403B613B68AA
:1041B0009A687B695B009A4013003A6913433B613C
:1041C0007B683A69DA603B685B6803221340022B24
:1041D00023D17B69DA087B6808329200D3583B61AF
:1041E0007B69072213409B000F229A401300DA4399
:1041F0003B6913403B613B681A697B6907210B40AF
:104200009B009A4013003A6913433B617B69DA08CB
:104210007B68083292003969D1507B681B683B612A
:104220007B695B0003229A401300DA433B69134029
:104230003B613B685B6803221A407B695B009A40E4
:1042400013003A6913433B617B683A691A603B6823
:104250005A68C0239B02134000D1DBE03B685A68D8
:104260008023DB02134030D08023DB05DB683B6119
:104270007A689023DB059A4211D101227B699A402A
:104280001300DB431A003B6913403B6101227B6949
:104290009A4013001A003B6913433B6111E001226D
:1042A0007B699A4013001B04DB431A003B691340EF
:1042B0003B6101227B699A4013001B043A69134356
:1042C0003B618023DB053A69DA603B685A688023EA
:1042D0005B03134030D08023DB051B693B617A68A8
:1042E0009023DB059A4211D101227B699A40130089
:1042F000DB431A003B6913403B6101227B699A4012
:1043000013001A003B6913433B6111E001227B69F2
:104310009A4013001B04DB431A003B6913403B61C6
:1043200001227B699A4013001B043A6913433B61E5
:104330008023DB053A691A613B685A688023DB03F6
:10434000134030D08023DB055B693B617A689023A2
:10435000DB059A4211D101227B699A401300DB43AD
:104360001A003B6913403B6101227B699A401300AC
:104370001A003B6913433B6111E001227B699A40BB
:1043800013001B04DB431A003B6913403B6101220D
:104390007B699A4013001B043A6913433B618023F5
:1043A000DB053A695A613B685A6880235B02134017
:1043B00030D08023DB059B693B617A689023DB0565
:1043C0009A4211D101227B699A401300DB431A0003
:1043D0003B6913403B6101227B699A4013001A003C
:1043E0003B6913433B6111E001227B699A40130052
:1043F0001B04DB431A003B6913403B6101227B69CC
:104400009A4013001B043A6913433B618023DB0588
:104410003A699A617B6901337B613B681A687B6901
:10442000DA40131E00D067E6C046C046BD4606B05F
:1044300080BD80B582B000AF786008001100BB1C61
:10444000021C1A807B1C0A1C1A707B1C1B78002B18
:1044500004D0BB1C1A887B689A6103E0BB1C1A88D5
:104460007B689A62C046BD4602B080BD80B584B00C
:1044700000AF78600A00BB1C1A807B685B69FB6038
:10448000BB1C1B88FA6813401A04FB68DB43B91C89
:1044900009880B401A437B689A61C046BD4604B048
:1044A00080BD80B582B000AF78600A00BB1C1A8066
:1044B0007A689023DB059A4209D18023DB05DB690A
:1044C000BA1C128813405A1E9341DBB209E08023C4
:1044D000DB05DB69BA1C1288120413405A1E934193
:1044E000DBB2002B17D07A689023DB059A4205D106
:1044F0008023DB05BA1C1288DA6105E0BB1C1A8830
:104500008023DB051204DA61BB1C1A887B6811006A
:104510001800FEF777FDC046BD4602B080BD000022
:1045200080B582B000AF78607B68002B01D1012399
:104530008FE07B6841229B5CDBB2002B07D17B685C
:104540004022002199547B681800FDF72DF97B6803
:104550004122242199547B681B681A687B681B6878
:1045600001218A431A607B685A687B681B683B4953
:104570000A401A617B681B689A687B681B68384927
:104580000A409A607B68DB68012B08D17B689A68D7
:104590007B681B68802109020A439A6007E07B68F8
:1045A0009A687B681B68842109020A439A607B68C9
:1045B000DB68022B09D17B681B685A687B681B6823
:1045C000802109010A435A6007E07B681B685A682A
:1045D0007B681B6823490A405A607B681B685A68DD
:1045E0007B681B6820490A435A607B681B68DA684D
:1045F0007B681B681A490A40DA607B681A697B6825
:104600005B691A4311007B689B691A027B681B680F
:104610000A43DA607B68D9697B681A6A7B681B6821
:104620000A431A607B681B681A687B681B68012153
:104630000A431A607B6800225A647B684122202169
:1046400099547B6800221A637B68422200219954A6
:1046500000231800BD4602B080BDC046FFFFFFF03A
:10466000FF7FFFFFFFF7FFFF0080000290B589B0DA
:1046700002AFF8600C00100019000A23FB18221C7E
:104680001A800823FB18021C1A80BB1D0A1C1A8002
:10469000FB6841229B5CDBB2202B00D00CE1BB6AA3
:1046A000002B04D02C23FB181B88002B05D1FB68A2
:1046B000802292005A640123FFE0FB6840229B5C49
:1046C000012B01D10223F8E0FB684022012199541B
:1046D000FFF714FA03007B6180231902F8687B69F5
:1046E00000931923012200F00BFB031E01D00123CC
:1046F000E3E0FB68412221219954FB6842224021DA
:104700009954FB6800225A64FB68BA6A5A62FB68D3
:104710002C22BA1812885A85FB6800225A63BB1DE6
:104720001C880823FB181A880A23FB181988F868C4
:104730007B6901933B6B0093230000F0F9F9031EA2
:1047400005D0FB684022002199540123B5E0FB68A5
:104750005B8D9BB2FF2B11D9FB68FF221A85FB688A
:104760001B8DDAB280235C040A23FB181988F868D1
:1047700000230093230000F09DFC12E0FB685B8D9A
:104780009AB2FB681A85FB681B8DDAB280239C0401
:104790000A23FB181988F86800230093230000F00F
:1047A00089FC7A69396BFB68180000F001FB031E75
:1047B00001D0012381E0FB685B6A1A78FB681B6803
:1047C0009A62FB685B6A5A1CFB685A62FB685B8DE5
:1047D0009BB2013B9AB2FB685A85FB681B8D013B7B
:1047E0009AB2FB681A85FB685B8D9BB2002B3AD0AE
:1047F000FB681B8D002B36D13A6BF8687B69009300
:1048000013000022802100F07BFA031E01D0012357
:1048100053E0FB685B8D9BB2FF2B11D9FB68FF2235
:104820001A85FB681B8DDAB280235C040A23FB180F
:104830001988F86800230093230000F03BFC12E085
:10484000FB685B8D9AB2FB681A85FB681B8DDAB238
:1048500080239C040A23FB181988F868002300931E
:10486000230000F027FCFB685B8D9BB2002B98D1E6
:104870007A69396BFB68180000F0E0FA031E01D07A
:1048800001231AE0FB681B682022DA61FB681B68C1
:104890005A68FB681B680B490A405A60FB68412252
:1048A00020219954FB68422200219954FB68402240
:1048B00000219954002300E002231800BD4607B0F0
:1048C00090BDC04600E800FE90B589B002AFF86028
:1048D0000C00100019000A23FB18221C1A80082360
:1048E000FB18021C1A80BB1D0A1C1A80FB6841229F
:1048F0009B5CDBB2202B00D010E1BB6A002B04D004
:104900002C23FB181B88002B05D1FB68802292000A
:104910005A64012303E1FB6840229B5C012B01D117
:104920000223FCE0FB68402201219954FFF7E6F8DE
:1049300003007B6180231902F8687B6900931923C7
:10494000012200F0DDF9031E01D00123E7E0FB683E
:10495000412222219954FB68422240219954FB684C
:1049600000225A64FB68BA6A5A62FB682C22BA18A1
:1049700012885A85FB6800225A63BB1D1C880823D5
:10498000FB181A880A23FB181988F8687B690193B9
:104990003B6B0093230000F02FF9031E05D0FB684A
:1049A0004022002199540123B9E0FB685B8D9BB242
:1049B000FF2B11D9FB68FF221A85FB681B8DDAB229
:1049C00080235C040A23FB181988F868564B00936F
:1049D000230000F06FFB12E0FB685B8D9AB2FB686E
:1049E0001A85FB681B8DDAB280239C040A23FB180E
:1049F0001988F8684C4B0093230000F05BFB3A6B7E
:104A0000F8687B69009313000022042100F078F914
:104A1000031E01D0012382E0FB681B685A6AFB6811
:104A20005B6AD2B21A70FB685B6A5A1CFB685A62F6
:104A3000FB681B8D013B9AB2FB681A85FB685B8D96
:104A40009BB2013B9AB2FB685A85FB685B8D9BB2B7
:104A5000002B3AD0FB681B8D002B36D13A6BF868DF
:104A60007B69009313000022802100F049F9031EA6
:104A700001D0012353E0FB685B8D9BB2FF2B11D962
:104A8000FB68FF221A85FB681B8DDAB280235C0469
:104A90000A23FB181988F86800230093230000F00C
:104AA00009FB12E0FB685B8D9AB2FB681A85FB6814
:104AB0001B8DDAB280239C040A23FB181988F8683E
:104AC00000230093230000F0F5FAFB685B8D9BB296
:104AD000002B94D17A69396BFB68180000F0AEF9AD
:104AE000031E01D001231AE0FB681B682022DA6153
:104AF000FB681B685A68FB681B680C490A405A60CF
:104B0000FB68412220219954FB68422200219954DC
:104B1000FB68402200219954002300E00223180082
:104B2000BD4607B090BDC0460024008000E800FEEE
:104B3000B0B586B002AFF8600C00100019000A256D
:104B40007B19221C1A800823FB18021C1A80BB1D2B
:104B50000A1C1A80BB1D1B88DAB280235C047B19F7
:104B60001988F868234B0093230000F0A3FA7A6AAF
:104B7000396AFB68180000F01BF9031E01D00123FD
:104B800033E0BB1D1B88012B07D10823FB181B88B2
:104B9000DAB2FB681B689A6219E00823FB181B88CD
:104BA0001B0A9BB2DAB2FB681B689A627A6A396A9E
:104BB000FB68180000F0FCF8031E01D0012314E08C
:104BC0000823FB181B88DAB2FB681B689A623A6AF2
:104BD000F8687B6A009313000022802100F090F8AF
:104BE000031E01D0012300E000231800BD4604B0DD
:104BF000B0BDC04600200080B0B586B002AFF860FE
:104C00000C00100019000A257B19221C1A800823A9
:104C1000FB18021C1A80BB1D0A1C1A80BB1D1B88B6
:104C2000DAB27B191988F868234B0093002300F04F
:104C300041FA7A6A396AFB68180000F0B9F8031E75
:104C400001D0012333E0BB1D1B88012B07D10823B2
:104C5000FB181B88DAB2FB681B689A6219E008230C
:104C6000FB181B881B0A9BB2DAB2FB681B689A62AE
:104C70007A6A396AFB68180000F09AF8031E01D0BE
:104C8000012314E00823FB181B88DAB2FB681B68B9
:104C90009A623A6AF8687B6A009313000022402106
:104CA00000F02EF8031E01D0012300E000231800BD
:104CB000BD4604B0B0BDC0460020008080B582B0C3
:104CC00000AF78607B681B689B6902221340022B4F
:104CD00003D17B681B6800229A627B681B689B6912
:104CE00001221340012B07D07B681B689A697B68FF
:104CF0001B6801210A439A61C046BD4602B080BDCF
:104D000080B584B000AFF860B9603B60FB1D1A70DD
:104D10003AE0BA693968FB68180000F0D3F8031E5E
:104D200001D0012340E03B6801332DD0FEF7E6FEC1
:104D30000200BB69D31A3A689A4202D33B68002B3F
:104D400022D1FB681B689B69BA681340BA68D31A02
:104D50005A425341DBB21A00FB1D1B789A4213D111
:104D6000FB685B6C20221A43FB685A64FB68412293
:104D700020219954FB68422200219954FB6840226B
:104D80000021995401230FE0FB681B689B69BA68F6
:104D90001340BA68D31A5A425341DBB21A00FB1DC2
:104DA0001B789A42B5D000231800BD4604B080BDE0
:104DB00080B584B000AFF860B9607A6032E07A689C
:104DC000B968FB68180000F07DF8031E01D00123CC
:104DD00030E0BB68013325D0FEF790FE02007B680F
:104DE000D31ABA689A4202D3BB68002B1AD1FB6867
:104DF0001B689B6902221340022B13D0FB685B6C7B
:104E000020221A43FB685A64FB68412220219954EE
:104E1000FB68422200219954FB68402200219954EA
:104E2000012307E0FB681B689B6902221340022BE9
:104E3000C5D100231800BD4604B080BD80B584B044
:104E400000AFF860B9607A602FE07A68B968FB68F3
:104E5000180000F037F8031E01D001232DE0FEF703
:104E60004DFE02007B68D31ABA689A4202D3BB682F
:104E7000002B1AD1FB681B689B6920221340202B52
:104E800013D0FB685B6C20221A43FB685A64FB68F2
:104E9000412220219954FB68422200219954FB6849
:104EA000402200219954012307E0FB681B689B699D
:104EB00020221340202BC8D100231800BD4604B087
:104EC00080BD000080B58AB000AFF860B9607A603C
:104ED0002723FB1800221A70FB681B689B69BB61C3
:104EE00000233B627B68FB61BB691022134000D149
:104EF00079E0FB681B681022DA6157E02722BB18B3
:104F0000BA1812781A70BB6801334FD0FEF7F6FD5D
:104F10000200FB69D31ABA689A4202D3BB68002B1D
:104F200044D1FB681B685A688023DB0113407B6116
:104F300013203B18FA684221525C1A70FB681B6808
:104F40009A6980231B021A4080231B029A4226D1B1
:104F50007A698023DB019A4221D03B181B78202BF1
:104F60001DD0FB681B685A68FB681B688021C9015B
:104F70000A435A60FEF7C2FD0300FB610FE0FEF733
:104F8000BDFD0200FB69D31A192B08D93B6A202208
:104F900013433B622723FB1801221A7006E0FB68CB
:104FA0001B689B6920221340202BE8D1FB681B68FB
:104FB0009B6920221340202B04D02723FB181B7849
:104FC000002B9BD02723FB181B78002B03D1FB68F9
:104FD0001B682022DA613B6A042213433B622723C9
:104FE000FB1801221A70FB681B689B69BB61BA69D8
:104FF00080235B0013400CD03B6A012213433B62C9
:10500000FB681B6880225200DA612723FB1801220B
:105010001A70BA698023DB0013400CD03B6A082267
:1050200013433B62FB681B688022D200DA612723AE
:10503000FB1801221A70BA6980239B0013400CD020
:105040003B6A022213433B62FB681B68802292008A
:10505000DA612723FB1801221A702723FB181B781B
:10506000002B1DD0FB681800FFF728FEFB681B68AB
:105070005A68FB681B680E490A405A60FB685A6C04
:105080003B6A1A43FB685A64FB6841222021995409
:10509000FB68422200219954FB6840220021995468
:1050A0002723FB181B781800BD460AB080BDC046F8
:1050B00000E800FE90B587B000AFF860080011006E
:1050C0007B600A243B19021C1A8009203B180A1C29
:1050D0001A703B191B889B059A0D3B181B78190405
:1050E000FF231B040B401A437B681A43BB6A13431C
:1050F0005B005B087B61FB681B685B68BA6A510DEB
:105100008022D2000A4007490A43D2431A401100C4
:10511000FB681B687A690A435A60C046BD4607B0FF
:1051200090BDC046FF63FF0380B582B000AF7860DA
:1051300039607B6841229B5CDBB2202B38D17B68D5
:1051400040229B5C012B01D1022332E07B6840228C
:10515000012199547B684122242199547B681B6862
:105160001A687B681B6801218A431A607B681B6888
:105170001A687B681B6811490A401A607B681B68C3
:1051800019687B681B683A680A431A607B681B6869
:105190001A687B681B6801210A431A607B684122F8
:1051A000202199547B68402200219954002300E07B
:1051B00002231800BD4602B080BDC046FFEFFFFFCE
:1051C00080B584B000AF786039607B6841229B5C19
:1051D000DBB2202B39D17B6840229B5C012B01D1B3
:1051E000022333E07B684022012199547B684122ED
:1051F000242199547B681B681A687B681B6801210D
:105200008A431A607B681B681B68FB60FB68114A55
:105210001340FB603B681B02FA681343FB607B682A
:105220001B68FA681A607B681B681A687B681B68D1
:1052300001210A431A607B684122202199547B682E
:10524000402200219954002300E002231800BD46AB
:1052500004B080BDFFF0FFFF80B584B000AF786080
:105260000F23FB1800221A707B68002B32D07B685A
:105270001B79DBB2002B03D17B681800FDF760FFC0
:105280007B6802221A717B681B681A687B681B683E
:1052900080210A431A607B681B681A687B681B6858
:1052A00080218A431A607B681B685A687B681B6888
:1052B0000D210A435A607B681B685A687B681B682B
:1052C0000D218A435A607B6800229A607B68012224
:1052D0001A7103E00F23FB1801221A700F23FB1829
:1052E0001B781800BD4604B080BD80B584B000AF07
:1052F00078607B681B689B68FB607B681B685B68E9
:10530000BB60FB680822134019D0BB680822134019
:1053100015D07B689B6801221A437B689A607B6882
:105320001B685A687B681B6808210A435A607B68BF
:105330001B685A687B681B6808218A435A60FB68AF
:105340000422134019D0BB680422134015D07B6897
:105350009B6802221A437B689A607B681B685A68C4
:105360007B681B6804210A435A607B681B685A6883
:105370007B681B6804218A435A607B689B68002B0A
:1053800003D07B68180004F02FFAFB680122134059
:105390001AD0BB680122134016D07B681B685A687C
:1053A0007B681B6801210A435A607B681B685A6846
:1053B0007B681B6801218A435A607B6801221A714D
:1053C0007B68180004F002FAC046BD4604B080BDF8
:1053D00080B500AF044B1A69034B04218A431A615C
:1053E00030BFC046BD4680BD00ED00E080B584B052
:1053F00000AF786039600F23FB1800221A707B68B9
:10540000002B03D07B68012B0ED01BE0134B196AD5
:10541000124B3A680A431A62104B5A6A3B68D943E6
:105420000E4B0A405A6212E00C4B996A0B4B3A68D9
:105430000A439A62094BDA6A3B68D943074B0A4030
:10544000DA6204E00F23FB1801221A70C0460F2312
:10545000FB181B781800BD4604B080BD0000504802
:1054600080B584B000AF786039600F23FB1800224C
:105470001A707B68002B03D07B68012B08D00FE0EB
:105480000D4B1A6A3B68D9430B4B0A401A620CE079
:10549000094B9A6A3B68D943074B0A409A6204E079
:1054A0000F23FB1801221A70C0460F23FB181B782C
:1054B0001800BD4604B080BD0000504880B584B0DF
:1054C00000AF786039600F23FB1800221A707B68E8
:1054D000002B03D07B68012B08D00FE00D4B5A6ADC
:1054E0003B68D9430B4B0A405A620CE0094BDA6A1D
:1054F0003B68D943074B0A40DA6204E00F23FB18EC
:1055000001221A70C0460F23FB181B781800BD46F5
:1055100004B080BD0000504880B582B000AF786014
:10552000044B1B68034B7A681A60C046BD4602B044
:1055300080BDC046C000002080B582B000AF78605A
:10554000074B5B68074A134019007B681B021B046A
:105550001A0C034B0A435A60C046BD4602B080BDD8
:10556000C0000020FF00FFFF80B582B000AF786070
:10557000084B5B68084A134019007B681A04FF2334
:105580001B041A40034B0A435A60C046BD4602B092
:1055900080BDC046C0000020FFFF00FF80B582B084
:1055A00000AF7860064B5B681B02190A7B681A061D
:1055B000034B0A435A60C046BD4602B080BDC04698
:1055C000C000002080B582B000AF7860074B9B68B8
:1055D000FF22934319007B68FF221A40034B0A43C2
:1055E0009A60C046BD4602B080BDC046C0000020E3
:1055F00080B582B000AF7860074B9B68074A1340C4
:1056000019007B681B021B041A0C034B0A439A60A7
:10561000C046BD4602B080BDC0000020FF00FFFFB5
:1056200080B582B000AF7860084B9B68084A134091
:1056300019007B681A04FF231B041A40034B0A431A
:105640009A60C046BD4602B080BDC046C000002082
:10565000FFFF00FF80B582B000AF7860064B9B680B
:105660001B02190A7B681A06034B0A439A60C0465C
:10567000BD4602B080BDC046C000002080B582B0EB
:1056800000AF7860074BDB68FF22934319007B680B
:10569000FF221A40034B0A43DA60C046BD4602B0FF
:1056A00080BDC046C000002080B582B000AF7860E9
:1056B000074BDB68074A134019007B681B021B0479
:1056C0001A0C034B0A43DA60C046BD4602B080BDE7
:1056D000C0000020FF00FFFF80B582B000AF7860FF
:1056E000084BDB68084A134019007B681A04FF2343
:1056F0001B041A40034B0A43DA60C046BD4602B0A1
:1057000080BDC046C0000020FFFF00FF80B582B012
:1057100000AF7860084BDB68084A134019007B68CB
:105720001A06FC239B051A40034B0A43DA60C04665
:10573000BD4602B080BDC046C0000020FFFFFFC0D4
:1057400080B582B000AF7860074B1B69FF2293439E
:1057500019007B68FF221A40034B0A431A61C046B6
:10576000BD4602B080BDC046C000002080B500AF7D
:10577000044B5A69034B04210A435A61C046BD4693
:1057800080BDC046C000002080B500AF044B5A6900
:10579000034B802109040A435A61C046BD4680BDBF
:1057A000C000002080B500AF044B5A69034B802134
:1057B00089050A435A61C046BD4680BDC00000202D
:1057C00080B500AF044B5A69034B8021C9050A43D9
:1057D0005A61C046BD4680BDC000002080B582B081
:1057E00000AF78607B68DB68032293431A007B6814
:1057F000DA60C046BD4602B080BD80B582B000AF61
:1058000078607B68DB68032293431A007B68DA6068
:10581000C046BD4602B080BD80B582B000AF7860A2
:105820007B689B6A034A1A407B689A62C046BD4601
:1058300002B080BDFFFFFFBF90B58DB000AF7860B4
:10584000144B7B61144B1B68144A93422AD1144BAE
:105850001B681B0A0F221340FB62114B1B681B0BBA
:105860000F221340BB620E4B1B681B0C0F22134010
:105870007B620B4B1B681B0D072213403B62084BDE
:105880001B681B0E07221340FB611B23FB18012220
:105890001A7011E0CC020020F81E0010CCECBCFC09
:1058A000E81E00100823FB620723BB6208237B620B
:1058B0001B23FB1800221A70FC4B00221A717B6814
:1058C000002B03D07B681800FDF7C0FCC023DB056C
:1058D0001800FFF783FFC023DB051800FFF78DFFDB
:1058E000F34B1800FFF798FFF24A9E239B00D35812
:1058F0000F2293431A007B6A0F210B40ED491A4394
:105900009E239B00CA50EB4A9D239B00D358F02254
:1059100093431A00BB6A1B01FF210B40E5491A4360
:105920009D239B00CA50E34A9D239B00D3580F221E
:1059300093431A00FB6A0F210B40DE491A439D2353
:105940009B00CA501B23FB181B78002B1ED0D94A82
:1059500092239B00D358072293431A003B6A0721E6
:105960000B40D4491A4392239B00CA50D14A922338
:105970009B00D358382293431A00FB69DB0038217F
:105980000B40CC491A4392239B00CA50C94AA42316
:105990005B00D358FF229343C64955221A43A423E0
:1059A0005B00CA50C34AAA235B00D358FF2293432B
:1059B000C04966221A43AA235B00CA50BD4AB423D9
:1059C0005B00D358FF229343BA4955221A43B423AC
:1059D0005B00CA50B74AC4235B00D358FF229343ED
:1059E000B4491D221A43C4235B00CA50B14AC223E2
:1059F0005B00D358FF229343AE4959221A43C22376
:105A00005B00CA50AB4AC6235B00D358FF229343C6
:105A1000A84932221A43C6235B00CA50A54AB623BE
:105A20005B00D358A34901221A43B6235B00CA5036
:105A30004020FFF781FD3F20FFF796FD0920FFF78B
:105A4000ADFD7420FFF7ECFD3820FFF703FE762054
:105A5000FFF7B8FD3A20FFF7CBFD1020FFF73CFE23
:105A60001020FFF753FE0520FFF76AFE1420FFF712
:105A700005FE0520FFF718FEFFF778FEFFF784FE0E
:105A8000FFF790FE13203B1800221A703B181B787A
:105A90003A18591C11701A007B699B1801221A7060
:105AA0003B181B783A18591C11701A007B699B1817
:105AB0005E221A707F4A9E239B00D1583B181B78A8
:105AC00004003A18581C10701A007B699B18CAB25F
:105AD0001A7020003B181B783A18591C11701A00D4
