:020000041004E6
:1000000000000120E93F0410C53A0410CD3A041065
:1000100000000000000000000000000000000000E0
:10002000000000000000000000000000D53A0410AD
:100030000000000000000000DF3A0410E93A04105C
:100040004D4004104D4004104D4004104D4004102C
:100050004D4004104D4004104D4004104D4004101C
:10006000F93A04104D4004104D4004104D40041066
:100070004D400410113B0410000000004D400410DE
:10008000293B04104D4004106F3B04100000000099
:10009000613B04100000000000000000453B04101C
:1000A000533B04107D3B04100000000000000000E2
:1000B0000000000000000000000000000000000040
:1000C00010B5904216D98AB2030C090C0C4659435C
:1000D00080B25343444350431B191A041B0C10189D
:1000E000594180225203002312184B41520DD8026D
:1000F000104310BD4843802252031218520D10467F
:1001000010BDC0468B0707D0013A22D30B780131CE
:10011000037001308B07F7D1830730D0DB4219D051
:100120000138043A08D308C943701B0A43801B0CEA
:1001300003710430043AF6D2D20707D30B88437018
:1001400001D08A78C2701B0A8370704701D00B7887
:1001500043707047043A06D308C903801B0C4380E0
:100160000430043AF8D2D20705D30B88038005D0B7
:100170008B788370704701D00B780370704770B430
:10018000103A03D378C978C0103AFBD2530701D391
:1001900018C918C001D508C908C0D20704D30B88F4
:1001A000038002300231002A01D50B78037070BC45
:1001B0007047C046EFF31482EFF30981154880F3CE
:1001C0001488BFF36F8FF0B543464C4655465E46E4
:1001D0006746F8B4104CEFF30883636006B4BFF3CE
:1001E0004F8F30BFC046C0460B4C646884F308880C
:1001F00082B003BCF8BC9846A146AA46B346BC46AA
:10020000F0BC04BC80F3098881F31488BFF36F8FBE
:100210001047C046000000000400002000224308F0
:100220008B4274D303098B425FD3030A8B4244D3BE
:10023000030B8B4228D3030C8B420DD3FF22090200
:1002400012BA030C8B4202D31212090265D0030BBF
:100250008B4219D300E0090AC30B8B4201D3CB03B5
:10026000C01A5241830B8B4201D38B03C01A5241F7
:10027000430B8B4201D34B03C01A5241030B8B42F9
:1002800001D30B03C01A5241C30A8B4201D3CB02E4
:10029000C01A5241830A8B4201D38B02C01A5241C9
:1002A000430A8B4201D34B02C01A5241030A8B42CC
:1002B00001D30B02C01A5241CDD2C3098B4201D3E4
:1002C000CB01C01A524183098B4201D38B01C01A62
:1002D000524143098B4201D34B01C01A52410309D9
:1002E0008B4201D30B01C01A5241C3088B4201D388
:1002F000CB00C01A524183088B4201D38B00C01A35
:10030000524143088B4201D34B00C01A5241411A5B
:1003100000D20146524110467047FFE701B5002068
:1003200000F0F0F802BDC0460029F7D076E770472C
:1003300003460B437FD4002243088B4274D3030946
:100340008B425FD3030A8B4244D3030B8B4228D3E7
:10035000030C8B420DD3FF22090212BA030C8B420D
:1003600002D31212090265D0030B8B4219D300E0AD
:10037000090AC30B8B4201D3CB03C01A5241830B32
:100380008B4201D38B03C01A5241430B8B4201D3E2
:100390004B03C01A5241030B8B4201D30B03C01A0B
:1003A0005241C30A8B4201D3CB02C01A5241830A85
:1003B0008B4201D38B02C01A5241430A8B4201D3B4
:1003C0004B02C01A5241030A8B4201D30B02C01ADE
:1003D0005241CDD2C3098B4201D3CB01C01A524145
:1003E00083098B4201D38B01C01A524143098B42CE
:1003F00001D34B01C01A524103098B4201D30B01B7
:10040000C01A5241C3088B4201D3CB00C01A5241DB
:1004100083088B4201D38B00C01A524143088B42A0
:1004200001D34B00C01A5241411A00D20146524139
:10043000104670475DE0CA0F00D04942031000D358
:100440004042534000229C4603098B422DD3030AAD
:100450008B4212D3FC22890112BA030A8B420CD3BD
:10046000890192118B4208D3890192118B4204D3E6
:1004700089013AD0921100E08909C3098B4201D366
:10048000CB01C01A524183098B4201D38B01C01AA0
:10049000524143098B4201D34B01C01A5241030917
:1004A0008B4201D30B01C01A5241C3088B4201D3C6
:1004B000CB00C01A524183088B4201D38B00C01A73
:1004C0005241D9D243088B4201D34B00C01A52414A
:1004D000411A00D20146634652415B10104601D3D7
:1004E0004042002B00D54942704763465B1000D361
:1004F000404201B5002000F005F802BD0029F8D007
:1005000016E770477047C0469140030090409C46F4
:10051000203A9340194352426346D34019437047EF
:100520001C2101231B04984201D3000C10391B0A23
:10053000984201D3000A08391B09984201D30009E7
:10054000043902A2105C40187047C046040302023E
:10055000010101010000000000000000002B11D18A
:10056000002A0FD1002900D1002802D00021C94360
:10057000080007B4024802A14018029003BDC0461B
:1005800085FFFFFF03B4684601B5029800F034F818
:10059000019B9E4602B00CBC7047C046F0B5CE46EB
:1005A0009946030C9C46130447461B0C1D000E0085
:1005B00061460404240C80B50700100C4B436543CE
:1005C000414360432C0CC01824188C46A34203D925
:1005D00080235B029846C444494679435643230C22
:1005E0002D042D0C8919634424046019C918C0BC5A
:1005F000B946B046F0BDC046F0B557464E464546F2
:10060000DE46E0B504000D009246994683B08B4269
:1006100030D82DD04946504600F0BAF829000600DF
:10062000200000F0B5F8331A9846203B34D49B469E
:1006300053465A46934042461F00534693401E007D
:10064000AF423BD8AF4200D179E05B46A41BBD412D
:10065000002B00DA76E000220023009201930123B0
:100660005A4693400193012342469340009329E068
:100670008242CFD900220023009201930C9B002BD1
:1006800001D01C605D600098019903B0F0BCBB46CE
:10069000B246A946A046F0BD42469B4620239B1A7F
:1006A0005246DA40414613004A468A401700424605
:1006B0001F43534693401E00AF42C3D9002200237C
:1006C000009201934346002BD8D0FB0772081A43CF
:1006D00046467B080EE0AB4201D1A2420CD8A41AD8
:1006E0009D41012024196D410021013E24184D41F6
:1006F000002E06D0AB42EED9013E24196D41002EEA
:10070000F8D1009801995B4600196941002B24DB60
:100710002B005A464446D3402A00E2401C005B4668
:100720001500002B2ADB26009E403300260047469A
:10073000BE403200801A9941009001919EE7A34289
:10074000BCD882E74246202300219B1A0022009158
:1007500001920122DA40019285E7424620239B1A4A
:100760002A0046469A402300F340444613432A0099
:10077000E2401C005B461500002BD4DA42462F00F5
:100780002023260097409B1ADE403B003343CDE7F1
:1007900010B5002903D1FFF7C3FE203002E00800A6
:1007A000FFF7BEFE10BDC04680B582B000AF254B3E
:1007B0003B603B68A8220021180020F059FF3B68ED
:1007C00003221A613B6803225A613B681E4A9A6100
:1007D0003B681E4ADA613B688022D2001A623B689D
:1007E00000229A623B6800225A623B680022DA6269
:1007F0003B68154A1A663B68154A5A663B681022E0
:100800009A663B6800221A673B680022DA663B68FA
:1008100000225A6700237B600CE07B680F22D31A0A
:100820000C4AD15C3A687B68D3180A1C1A707B6842
:1008300001337B607B680F2BEFD9C046C046BD46B5
:1008400002B080BD7C010020AC1F061024020020F5
:10085000240600203023061080B58AB000AFF8606F
:10086000B9607A6000233B62FB68DB68FB61FB6870
:100870001B69BB61BA69FB699A4205D9BA69FB6910
:10088000D31A013B7B6207E0FB689A68B969FB6990
:10089000CB1AD318013B7B62FB689A68FB69D21ABA
:1008A0007B6A934200D913007B627A6A7B68934229
:1008B00000D913007B62FB685A68FB69D3187B611F
:1008C0007A6AB9687B69180020F035FF3A6A7B6A5A
:1008D000D3183B62BA687B6AD318BB607A687B6ABC
:1008E000D31A7B60FA697B6AD318FB61FB689B684B
:1008F000FA699A4201D10023FB61FB68FA69DA6068
:100900007B68002BB3D13B6A1800BD460AB080BD9E
:1009100080B588B000AFF860B9607A60FB68DB68CA
:10092000FB61FB689A68FB69D31ABB61BA697B6893
:100930009A4210D9FB685A68FB69D3183B617A6800
:10094000B9683B69180020F0F6FEFA697B68D21896
:10095000FB68DA601EE0BB697B61FB685A68FB6973
:10096000D3183B617A69B9683B69180020F0E3FE4F
:100970007A68BB69D31A7B61FB685B683B61BA68C4
:10098000BB69D1187A693B69180020F0D4FEFB6876
:100990007A69DA60C046BD4608B080BD80B586B0D1
:1009A00000AF78607B681B693B617B68DB68FB603C
:1009B0003A69FB689A4208D87B689A68FB68D21A41
:1009C0003B69D318013B7B6104E03A69FB68D31AA9
:1009D000013B7B617B691800BD4606B080BD00000D
:1009E00080B588B000AFF860B9607A60BB68BB6161
:1009F000FB685A1C13005B009B18DB00234A9B1802
:100A00007B617B695B69022B2ED036D8002B02D02C
:100A1000012B16D031E07B691800FFF7BFFF030000
:100A20003B613A697B689A4202D20023FB6127E06E
:100A30007B68FB617A68B9697B691800FFF768FF1A
:100A40001EE07B691800FFF7A9FF03003B613A69CC
:100A50007B68934200D91300FB61FA69B9697B692D
:100A60001800FFF755FF0BE07A68B9697B69180039
:100A7000FFF7F2FE0300FB6102E00023FB61C046CA
:100A8000FB691800BD4608B080BDC0467C0100204F
:100A900080B588B000AFF860B9607A600F4BFB6139
:100AA000FB691B78DBB2532B01D0FFF77DFEEFF320
:100AB0001083012181F31088BB617A68B968FB68F3
:100AC0001800FFF78DFF03007B61BB6983F310887B
:100AD0007B691800BD4608B080BDC0467C0100207F
:100AE00080B584B000AF78600A00FB1C1A707B6888
:100AF0009B68FB60FB685A1C7B685B689A420FD856
:100B00007B681A68FB68D318FA1C12781A70FB68A5
:100B10005A1C7B689A607B68DB685A1C7B68DA60C9
:100B20007B689A687B685B689A4215D17B68186914
:100B30007B6819687B689B681A00FFF7A9FF0200B1
:100B40007B689B689A4204D07B6801225242DA603B
:100B500002E07B6800229A60C046BD4604B080BDBA
:100B600080B58AB000AFF860B9607A603B60BB685E
:100B70003B6201237B620123FB6108E07968386AEC
:100B8000FFF74CFB03003B62FB690133FB613A6AF0
:100B90007B689A42F2D23A68FB699A4201D93B6873
:100BA000FB617B6B012213402BD13B6B002B28D0C8
:100BB0007B6B0222134007D03B68002B04D11B2320
:100BC000FB1830221A7003E01B23FB1820221A7036
:100BD0000EE03B6B013B3B631B23FB181A78FB6861
:100BE00011001800FFF77CFFFB68DB68002B07DBB8
:100BF0003B6B002B05D0FA693B6B9A42E9D300E0CE
:100C0000C046FB68DB68002B57DB3B68012B03D930
:100C10003B68013B3B600AE0796AB868FFF7FEFA7F
:100C200003007B617A697B689A4200D204E07B6AA8
:100C30007A6853437B62E8E7796AB868FFF7EEFAAF
:100C400003007B617B697A6A5343BA68D31ABB603D
:100C50001C4A7B69D3181A78FB6811001800FFF74B
:100C60003FFFFB68DB68002B09DB7968786AFFF7D8
:100C7000D5FA03007B627B6A002BDDD100E0C04621
:100C80007B6B0122134018D03B6B002B15D00BE07F
:100C90003B6B013B3B63FB6820211800FFF720FF03
:100CA000FB68DB68002B07DB3B6B002B05D0FA6988
:100CB0003B6B9A42ECD300E0C046C046BD460AB04A
:100CC00080BDC046C823061090B589B002AFF86059
:100CD000B9607A603B60BB68DA179B1853403B6190
:100CE00001237B6109E07B6819003869FFF720FB6D
:100CF00003003B617B6901337B617B683A699A42FF
:100D0000F1DA3A687B699A4201D93B687B61BB6A38
:100D1000002B09D0BB68002B03DBFB6A04221340C5
:100D200002D0BB6A013BBB62FB6A0222134002D0C5
:100D30003B68002B1CD0FB6A0122134018D1BB6A10
:100D4000002B15D00BE0BB6A013BBB62FB68202186
:100D50001800FFF7C5FEFB68DB68002B07DBBB6AEA
:100D6000002B05D07A69BB6A9A42ECD300E0C046FA
:100D7000FB68DB68002B4BDBBB68002B08DABB6829
:100D80005B42BB60FB682D211800FFF7A9FE08E05D
:100D9000FB6A0422134004D0FB682B211800FFF7E4
:100DA0009FFEFB68DB68002B32DBFB6A02221340EC
:100DB0001FD0FB6A012213401BD13B68002B18D1C6
:100DC000BB6A002B15D00BE0BB6A013BBB62FB6822
:100DD00030211800FFF784FEFB68DB68002B07DB7F
:100DE000BB6A002B05D07A69BB6A9A42ECD300E05B
:100DF000C046FB68DB68002B0ADBB9683C687A6890
:100E0000F868FB6A0193BB6A00932300FFF7A8FE12
:100E1000C046BD4607B090BD90B5A5B002AFF86022
:100E2000B9607A6054217B181422BA181A607B18B2
:100E300040225A607B1800229A607B18FA681A6177
:100E40007B180022DA6087217B18BA6812781A7042
:100E5000BB680133BB607B181B78002B00D1A2E17B
:100E60007B181B78252B00D08DE100237B670123A5
:100E70008022BA18136087217B18BA6812781A701A
:100E80007B181B78302B10D027DC2D2B05D024DCD1
:100E9000232B1AD02B2B10D01FE07B6F0122134382
:100EA0007B67BB680133BB601CE07B6F022213438E
:100EB0007B67BB680133BB6014E07B6F0422134384
:100EC0007B67BB680133BB600CE07B6F0822134378
:100ED0007B67BB680133BB6004E000238022BA1843
:100EE0001360C0468023FB181B68002BC3D100236E
:100EF0003B6787217B18BA6812781A707B181B78B9
:100F00002F2B12D97B181B78392B0ED8BB680133D5
:100F1000BB603A6F13009B009B185B001A007B18A4
:100F20001B78D318303B3B67E3E77F217B18002217
:100F30001A700023BB6787203B18BA6812781A70B2
:100F40003B181B782E2B34D1BB680133BB60BB68C8
:100F50001B782A2B0DD1BB680133BB607B180122A3
:100F60001A707B681B68191D7A6811601B68BB6763
:100F70001FE087217B18BA6812781A707B181B78DB
:100F80002F2B16D97B181B78392B12D87F23FB18EF
:100F900001221A70BB680133BB60BA6F13009B005B
:100FA0009B185B001A007B181B78D318303BBB677B
:100FB000DFE78723FB18BA6812781A708722BB18FC
:100FC0001B786C2B03D0BB181B78682B08D1BB682F
:100FD0000133BB608723FB18BA6812781A70EDE7FB
:100FE0008723FB181B78252B00D1C0E000DAC5E071
:100FF000782B00DDC2E0582B00DABFE0583B202BF5
:1010000000D9BBE09A00784BD3181B689F467B68D9
:101010001B68191D7A6811601B688022B9180B6063
:101020006B217B18BA1812681A707B181A7854232F
:10103000FB1811001800FFF753FDA0E07B681B6848
:10104000191D7A6811601B6880217A181360BA6FC5
:101050007B1819685423F8187B6F01933B6F00933A
:1010600013000A22FFF730FE89E07B681B68191D18
:101070007A6811601B688022B9180B60BB18196868
:10108000BA6F5423F8187B6F01933B6F00931300E2
:101090000A22FFF765FD72E07B681B68191D7A68FC
:1010A00011601B688022B9180B60BB181968BA6FF1
:1010B0005423F8187B6F01933B6F009313001022A9
:1010C000FFF74EFD5BE07B681B68191D7A681160B5
:1010D0001B68FB66FB6E002B05D1444BFB667F2330
:1010E000FB1800221A7087217B18FA6E12781A708A
:1010F000FB6E0133FB667B181B78002B1DD07F2312
:10110000FB181B78002B02D0BB6F002B17D0872356
:10111000FB181A7854243B1911001800FFF7E0FC63
:10112000BB6F013BBB673B19DB687F217A187918DD
:1011300009781170002BD6DA21E0C0461FE0C046C6
:101140001DE07B681B68191D7A6811601B6880228E
:10115000B9180B60BB1819685423F81800230193C1
:101160000823009308231022FFF7FAFC07E054231A
:10117000FB1825211800FFF7B3FC00E0C046BB6850
:101180000133BB6008E08723FB181A785423FB184F
:1011900011001800FFF7A4FC5423FB18DB68002B98
:1011A00000DB50E600E0C0465422BB18DB68002B91
:1011B00013DDBB189B68002B07D0BB189A6814235B
:1011C000F918FB681800FFF763FC54217B18DA68F4
:1011D0007B189B68D2187B18DA605423FB18DB68F5
:1011E0001800BD4623B090BD44230610B81F06105A
:1011F0000EB480B585B000AF78602023FB18BB60CB
:101200000823FA18F9697B681800FFF705FE030048
:10121000FB60FB681800BD4605B080BC08BC03B08D
:10122000184780B582B000AF786000200DF0E2FC76
:1012300008F0A0FF031E01D002F06CFA08F084FD54
:1012400008F0D0FE0BF0EEF900200DF0DDFC0023DD
:101250001800BD4602B080BD80B500AF01235B42DF
:1012600018000DF0E1FCC046BD4680BD80B500AF62
:10127000C046BD4680BD80B500AFC046BD4680BDFE
:1012800080B584B000AF7860074B196D064B7A6863
:101290000A431A65044B1B6D7A681340FB60FB68B8
:1012A000C046BD4604B080BD0000404880B586B051
:1012B00000AF3B1D180014231A00002120F0D8F9BC
:1012C0000820FFF7DDFF0420FFF7DAFF2C4B002298
:1012D0000821180003F0C7FB3B1D08221A603B1DC4
:1012E00001225A603B1D00229A603B1D0022DA60F9
:1012F0003B1D234A1900100003F010FA3B1D042285
:101300001A603B1D02225A603B1D01229A603B1D60
:101310000022DA603B1D05221A613A1D9023DB058D
:101320001100180003F0FAF93B1D802292001A60A8
:101330003B1D8222D2035A603B1D00229A603B1D56
:101340000F4A1900100003F0E9F90821012004F008
:10135000A1FB0821012004F0CBFB0421002004F0B4
:101360005FFB0DF05BFC00220121102002F0C4FFA6
:10137000102002F0D6FFC046BD4606B080BDC04674
:101380000000104880B584B000AF7860074B196D3D
:10139000064B7A680A431A65044B1B6D7A68134042
:1013A000FB60FB68C046BD4604B080BD00004048FD
:1013B00080B584B000AF7860074B996D064B7A68B2
:1013C0000A439A65044B9B6D7A681340FB60FB6887
:1013D000C046BD4604B080BD0000404880B500AFA7
:1013E0001C4B8222D2051A601A4B1B4A5A60194BB9
:1013F00000229A60174B0122DA60164B00221A6114
:10140000144B00225A61134B00229A61114B0022A7
:10141000DA61104B00221A620E4B180003F09AFB9F
:10142000031E01D002F076F90A4B0021180004F0E7
:1014300095F9031E01D002F06DF9064B002118004A
:1014400004F0D8F9031E01D002F064F9C046BD468D
:1014500080BDC046340600205B3D300090B589B0A9
:1014600000AF78600C243B19180014231A000021E7
:1014700020F0FEF87B681A688223DB059A422AD1A5
:101480000820FFF77FFF3B19C02212011A602100DC
:101490007B1812225A607B1800229A607B18002267
:1014A000DA607B1802221A617B180D4A19001000BD
:1014B00003F034F9C0231B011900012004F0EAFAFB
:1014C000C0231B011900012004F012FB80239B03A1
:1014D0001800FFF76DFFC046BD4609B090BDC0467D
:1014E0000000104880B584B000AF78602F4B304AC0
:1014F0001A602E4B2F4A5A602C4B2F4A9A602B4B66
:101500007A68DA600F217B1800221A707A18274B4C
:101510001100180000F037FE031E02D001235B42C9
:1015200040E0224B180000F080FD204B9B68142007
:1015300098471E4B0421180000F037FE1B4B00217A
:10154000180000F0FBFF194B0421180000F09BFE6F
:10155000164B0421180000F0C6FE144B032118009E
:1015600000F0BCFF114B0521180000F02CFF0C20EF
:101570003B1800221A703B181A7801210A431A708E
:101580003B181A7802218A431A703B181A78074BC5
:10159000111C180000F047FF031E02D002235B421B
:1015A00000E000231800BD4604B080BD880600207E
:1015B0002517041079170410CD17041090B587B0C3
:1015C00000AF0200FB1D1A70BB1D0A1C1A7010210F
:1015D0007B1800221A607B18FA1D12789A707B180B
:1015E000BA1D1278DA707A181C4B1100180001F03D
:1015F000EDFE03007B617B69002B01D07B6928E055
:101600000C243B19180003231A00002120F030F8A5
:101610003A19124B1100180001F0D8F803007B6151
:101620007B69002B01D07B6913E00C203B189A7872
:1016300001210A439A703A18084B1100180000F073
:10164000ADFF03007B617B69002B01D07B6900E06B
:1016500000231800BD4607B090BDC0468806002094
:1016600090B587B000AF78600C243B1918000823B0
:101670001A0000211FF0FCFF3A19204B110018003E
:1016800001F0ABF903007B617B69002B01D07B6922
:1016900030E07B6800221A700C23FB185B78102264
:1016A0001340DBB2002B06D07B681B78012213436A
:1016B000DAB27B681A700C23FB185B78082213409F
:1016C000DBB2002B06D07B681B7802221343DAB210
:1016D0007B681A700C23FB185B7804221340DBB282
:1016E000002B06D07B681B7804221343DAB27B6898
:1016F0001A7000231800BD4607B090BD8806002070
:1017000080B582B000AF78607A68054B1100180090
:1017100001F007FE03001800BD4602B080BDC046C0
:1017200088060020B0B58AB004AFF86008007A607F
:1017300019000B243B19021C1A7008257B190A1C7E
:101740001A80FB687B613B191B789AB27869642325
:1017500002937B191B8801937B6800930123D4219A
:1017600003F09EFA031E01D1002301E001235B4236
:101770001800BD4606B0B0BDB0B58AB004AFF86081
:1017800008007A6019000B243B19021C1A70082506
:101790007B190A1C1A80FB687B613B191B789AB283
:1017A0007869642302937B191B8801937B680093FB
:1017B0000123D42103F0A2FB031E01D1002301E089
:1017C00001235B421800BD4606B0B0BD80B582B0B3
:1017D00000AF78607B68180002F0BEFCC046BD46D2
:1017E00002B080BD80B500AF034B5B8801339BB274
:1017F0001800BD4680BDC0469C06002080B500AFE5
:10180000034B5B8802339BB21800BD4680BDC046C7
:101810009C06002080B500AF034B9B8801339BB230
:101820001800BD4680BDC0469C06002080B500AFB4
:10183000034B9B8802339BB21800BD4680BDC04657
:101840009C06002080B500AF034BDB8801339BB2C0
:101850001800BD4680BDC0469C06002080B500AF84
:10186000034BDB8802339BB21800BD4680BDC046E7
:101870009C060020B0B596B000AFB84B08220021FE
:1018800018001FF0F5FEB64B012252421A80B54BEC
:1018900000221A70B44B00221A70B44B00221A7046
:1018A000B34B00221A70B34B00221A70B24B0E22B7
:1018B000002118001FF0DCFEB04B28220021180088
:1018C0001FF0D6FEAE4B6C22002118001FF0D0FE98
:1018D000AB4B12221A70AA4B00229A70A84B00221E
:1018E0005A70A74BA74A043313CA13C303CA03C3CE
:1018F000A34BA54A1A62A24B01221A76A04BA34A17
:10190000DA619F4B2422122199549D4B26220021FB
:1019100099549B4B252200219954994B9C4A28337A
:1019200013CA13C303CA03C3954B9A4A5A64944B10
:101930003C2201219954924B974A1A64904B4822B9
:10194000122199548E4B4A22002199548C4B4922E2
:10195000002199548A4B914A4C3313CA13C303CACA
:1019600003C3874B8E4A9A66854B602201219954A6
:10197000834B8C4A5A66814B01221A757F4B8A4AE7
:1019800013CA13C303CA03C37C4B202203219954F7
:101990007A4B7B4A5A62794B00221A76774B0022A7
:1019A000DA61824B19000020FFF722FC744B1B7890
:1019B0001A007F4B19000020FFF71AFC704B2422FD
:1019C0009B5C1A007B4B19000020FFF711FC6C4B4D
:1019D00048229B5C1A00784B19000020FFF708FC96
:1019E000674B1B7E1A00754B19000020FFF700FCA7
:1019F000634B3C229B5C1A00714B19000020FFF7DF
:101A0000F7FB5F4B60229B5C1A006E4B19000020B5
:101A1000FFF7EEFB6C4B19000020FFF7E9FB5725A1
:101A20007C19564B180007F0ECFF030023707B195C
:101A30001B78002B02D07B191B788AE04F4B1800D3
:101A400007F0ECFF03001A00444B1A804C4B1800BF
:101A500008F004F803001A00404B5A805B4B180052
:101A600007F0FCFF03001A003C4B9A80584B18000B
:101A700007F0F4FF03001A00384BDA80554B1900C9
:101A80000020FFF7B5FB354B1B881A00524B19009D
:101A90000020FFF7ADFB514B19000020FFF7A8FB1A
:101AA0002E4B5B881A004E4B19000020FFF7A0FB5D
:101AB000FFF798FE03001A004A4B19000020FFF7B9
:101AC00097FBFFF79BFE03001A00474B190000200D
:101AD000FFF78EFB454B19000020FFF789FB1F4BDA
:101AE0009B881A003E4B19000020FFF781FBFFF78F
:101AF00091FE03001A003B4B19000020FFF778FB12
:101B0000FFF794FE03001A00374B19000020FFF77F
:101B10006FFB374B19000020FFF76AFB0F4BDB8888
:101B20001A002F4B19000020FFF762FBFFF78AFE17
:101B300003001A002B4B19000020FFF759FBFFF799
:101B40008DFE03001A00284B19000020FFF750FB00
:101B500000231800BD4616B0B0BDC0469C0600204C
:101B6000DC0C0020A4060020A5060020A60600200C
:101B7000A7060020A8060020AC06002028070020A9
:101B8000BC0600206C210610E00C0020040D002093
:101B900080210610EC0C0020200D0020942106105E
:101BA000F80C00203C0D0020A8210610C01F0610D4
:101BB000E01F06100020061020200610402006100E
:101BC0005C2006107820061094200610E006002005
:101BD00004070020B8200610D8200610F4200610B4
:101BE000082106101C210610302106104421061081
:101BF0005821061080B582B000AF0200BB1D1A80CC
:101C0000084BBA1D12881A80074B00221A70074B26
:101C100000221A70064B00221A70C046BD4602B060
:101C200080BDC046DC0C0020A4060020A5060020D4
:101C3000A606002080B500AF074B012252421A8051
:101C4000064B00221A70064B00221A70054B002228
:101C50001A70C046BD4680BDDC0C0020A4060020E2
:101C6000A5060020A606002090B585B000AF39601B
:101C70001100BB1D021C1A807B1D0A1C1A70BB1DA3
:101C80001A883D4B19000020FFF7B2FA3B68002B81
:101C900000D16CE07B1D1B78012B68D93B681B7859
:101CA0001AB23B6801331B781BB21B021BB21343F1
:101CB0001AB20E217B181A807B181B88DAB20D2409
:101CC0003B1901210A401A70FFF798FD03001A0022
:101CD000BB1D1B88934210D1284B3A1912781A70F9
:101CE0003B191B78002B01D0254B00E0254B2649E2
:101CF0001A000020FFF77CFA3AE0FFF797FD030097
:101D00001A00BB1D1B88934211D1204B0D217A185C
:101D100012781A707B181B78002B01D0184B00E04A
:101D2000184B1B491A000020FFF762FA20E0FFF76A
:101D300095FD03001A00BB1D1B88934211D1154B62
:101D40000D217A1812781A707B181B78002B01D09D
:101D50000B4B00E00B4B10491A000020FFF748FA2C
:101D600006E00E4B19000020FFF742FA00E0C046E3
:101D7000BD4605B090BDC046BC210610A40600209B
:101D8000D0210610D8210610E4210610A506002057
:101D900004220610A6060020242206104422061063
:101DA00090B585B002AF0200FB1D1A70114BFA1DF1
:101DB00012781A70104B1B88104A934214D0104BA3
:101DC0001B78002B10D00C4B1C88FFF70BFD030079
:101DD0001A00084B019301230093002304212000E3
:101DE00007F049FE030000E000231800BD4603B0E1
:101DF00090BDC046A7060020DC0C0020FFFF0000BD
:101E0000A406002090B585B002AF0200FB1D1A7039
:101E1000114BFA1D12781A70104B1B88104A93420E
:101E200014D0104B1B78002B10D00C4B1C88FFF7E4
:101E3000F1FC03001A00084B0193012300930023D7
:101E40000421200007F017FE030000E00023180023
:101E5000BD4603B090BDC046A8060020DC0C0020A3
:101E6000FFFF0000A5060020F0B589B006AF050011
:101E70000C0010001900BB1D2A1C1A803B1D221CDF
:101E80001A80BB1C021C1A803B000A1C1A802F4BB4
:101E9000BA1D12881A802D4B3A1D12885A802B4B7E
:101EA000BA1C12889A80294B3A001288DA80274A95
:101EB00020203B181B881381244B24243A191288B4
:101EC0005A81224B28257A1912889A81BB1D002637
:101ED0009E5F3B1D00229B5E9C46BB1C00229A5EBF
:101EE0003B000021595E3B1800201B5E381900247E
:101EF000005F7C192488164D04940390029301918D
:101F000000926346320029000020FFF771F9114B5F
:101F10001B88114A934214D0104B1B78002B10D011
:101F20000C4B1C88FFF78EFC03001A00074B019333
:101F30000E23009300230421200007F09CFD0300E2
:101F400000E000231800BD4603B0F0BDAC06002041
:101F500068220610DC0C0020FFFF0000A60600200F
:101F6000B0B586B000AFF86008007A6019000B23A6
:101F7000FB18021C1A700823FB180A1C1A80FB6845
:101F8000002B02D101235B420FE0FB685C68FB6819
:101F9000D8680823FB181D887A680B23FB1819786A
:101FA0002B00A04703007B617B691800BD4606B08B
:101FB000B0BDB0B586B000AFF86008007A60190017
:101FC0000B23FB18021C1A700823FB180A1C1A802A
:101FD000FB68002B02D101235B420FE0FB681C6809
:101FE000FB68D8680823FB181D887A680B23FB1848
:101FF00019782B00A04703007B617B691800BD4660
:1020000006B0B0BD80B582B000AF786039607B6843
:10201000002B06D03B68002B03D03B681A787B6806
:102020001A70C046BD4602B080BD90B587B000AF03
:1020300078600C23FB1800221A701723FB1800226B
:102040001A707B689B68002B03D101235B423B61C4
:1020500051E07B680021180000F0A7F803003B6105
:102060007B680021180000F03EF902003B699B18D4
:102070003B613B69002B3BD10C203B181A780121B6
:102080000A431A703A18786801231221FFF791FF6A
:1020900003003B610C243A19786801231221FFF7F1
:1020A0005FFF02003B699B183B613B69002B21D11C
:1020B0007B689B68012098473B191B7801221340DD
:1020C000DBB2002B07D01722BB181B78BA18591C9B
:1020D0001170022BDED90C23FB181B780122134050
:1020E000DBB2002B01D1002306E001235B4203E0B9
:1020F000C04600E0C0463B691800BD4607B090BD31
:1021000090B585B000AF78600A00FB1C1A700823F8
:10211000FA18786801230121FFF722FF0300FB6012
:10212000FB68002B01D0FB6829E0FB1C1B785B08D7
:102130001A1C01231340DAB208243B1901210A407A
:1021400090011A7840218A43111C021C0A431A701C
:10215000FB1C1B7801221340DAB23B19D0011A781C
:102160007F210A40111C021C0A431A703A19786830
:1021700001230121FFF71DFF0300FB60FB6818002E
:10218000BD4605B090BD80B584B000AF78603960C1
:102190003A68786801230F21FFF7E2FE0300FB6035
:1021A000FB681800BD4604B080BD90B587B000AF95
:1021B00078600A00FB1C1A701023FA187868012353
:1021C0001021FFF7CDFE03007B617B69002B01D05E
:1021D0007B6954E0FB1C1B780F221340DAB21024F9
:1021E0003B190F210A4010001A780F218A43111C55
:1021F000021C0A431A703A19786801231021FFF76C
:10220000D8FE03007B617B69002B01D07B6936E03F
:1022100013217B18FA1C127812091A707B181B788C
:10222000002B2BD00C23FA18786801236221FFF7CA
:1022300097FE02007B699B187B617B69002B01D0B4
:102240007B691CE01323FB181B7803221340DAB2CE
:102250000C243B1903210A4010001A7803218A43F9
:10226000111C021C0A431A703A1978680123622172
:10227000FFF79FFE02007B699B187B617B6918005A
:10228000BD4607B090BD90B585B000AF78600A003C
:10229000FB1C1A7008243A19786801231021FFF7F3
:1022A0005FFE0300FB60FB68002B17D1FB1C1B7853
:1022B00007221340DAB23B1907210A4010011A78AD
:1022C00070218A43111C021C0A431A703A1978685B
:1022D00001231021FFF76DFE0300FB60FB6818006F
:1022E000BD4605B090BD90B587B000AF78600A00DC
:1022F000FB1C1A701023FA18786801231121FFF7CC
:102300002FFE03007B617B69002B01D07B6956E0C7
:10231000FB1C1B780F221340DAB210243B190F214B
:102320000A4010001A780F218A43111C021C0A432C
:102330001A703A19786801231121FFF73AFE02005A
:102340007B699B187B617B69002B01D07B6936E040
:1023500013217B18FA1C127812091A707B181B784B
:10236000002B2BD00C23FA18786801236221FFF789
:10237000F7FD02007B699B187B617B69002B01D014
:102380007B691CE01323FB181B7803221340DAB28D
:102390000C243B1903210A4010001A7803218A43B8
:1023A000111C021C0A431A703A1978680123622131
:1023B000FFF7FFFD02007B699B187B617B691800BA
:1023C000BD4607B090BD90B585B000AF78600A00FB
:1023D000FB1C1A7008243A19786801231121FFF7B1
:1023E000BFFD0300FB60FB68002B17D1FB1C1B78B3
:1023F00007221340DAB23B1907210A4010011A786C
:1024000070218A43111C021C0A431A703A19786819
:1024100001231121FFF7CDFD0300FB60FB681800CD
:10242000BD4605B090BD90B587B000AF78603B0069
:1024300019700C23FA18786801235021FFF790FDDA
:1024400003007B617B69002B01D07B6942E03B008C
:102450001B78DB07DB0FDAB20C243B19D0011A78AA
:102460007F210A40111C021C0A431A703A1978682D
:1024700001235021FFF79DFD03007B611023FA1813
:10248000786801235621FFF76BFD02007B699B18DA
:102490007B617B69002B01D07B691BE03B001B78D3
:1024A0009B07DB0FDAB210243B1901210A40100010
:1024B0001A7801218A43111C021C0A431A703A1926
:1024C000786801235621FFF774FD02007B699B1891
:1024D0007B617B691800BD4607B090BD90B585B0A3
:1024E00000AF78600A00FB1C1A7008243A1978685B
:1024F00001231521FFF734FD0300FB60FB68002B6F
:1025000017D1FB1C1B780F221340DAB23B190F21A5
:102510000A4010001A780F218A43111C021C0A433A
:102520001A703A19786801231521FFF742FD03005C
:10253000FB60FB681800BD4605B090BD90B585B046
:1025400000AF78600A00FB1C1A7008243A197868FA
:1025500001231721FFF704FD0300FB60FB68002B3C
:1025600017D1FB1C1B7803221340DAB23B1903215D
:102570000A4010001A7803218A43111C021C0A43E6
:102580001A703A19786801231721FFF712FD03002A
:10259000FB60FB681800BD4605B090BD90B587B0E4
:1025A00000AF786039601023FA18786801230D2194
:1025B000FFF7D6FC03007B617B69002B01D07B69B0
:1025C00000E13B681B78DB07DB0FDAB210243B1914
:1025D00001210A4010001A7801218A43111C021CB3
:1025E0000A431A703B681B789B07DB0FDAB23B1972
:1025F00001210A4090181A7802218A43111C021CFA
:102600000A431A703B681B789B06DB0FDAB23B1952
:1026100001210A40D0001A7808218A43111C021CAB
:102620000A431A703B681B785B06DB0FDAB23B1972
:1026300001210A4010011A7810218A43111C021C42
:102640000A431A703B681B781B06DB0FDAB23B1992
:1026500001210A4050011A7820218A43111C021CD2
:102660000A431A703B685B78DB07DB0FDAB23B1971
:1026700001210A4090011A7840218A43111C021C52
:102680000A431A703A19786801230D21FFF791FC6B
:1026900003007B610C23FA18786801235E21FFF7A1
:1026A0005FFC02007B699B187B617B69002B01D07A
:1026B0007B6987E03B685B781B07DB0FDAB20C2491
:1026C0003B1901210A4010001A7801218A43111C8C
:1026D000021C0A431A703B685B78DB06DB0FDAB238
:1026E0003B1901210A4090181A7802218A43111CD3
:1026F000021C0A431A703B685B789B06DB0FDAB258
:102700003B1901210A4090001A7804218A43111CC8
:10271000021C0A431A703B685B785B06DB0FDAB277
:102720003B1901210A4090011A7840218A43111C6B
:10273000021C0A431A703B685B781B06DB0FDAB297
:102740003B1901210A40D0001A7808218A43111C44
:10275000021C0A431A703B689B78DB07DB0FDAB276
:102760003B1901210A4050011A7820218A43111C8B
:10277000021C0A431A703B689B789B07DB0FDAB296
:102780003B1901210A4010011A7810218A43111CBB
:10279000021C0A431A703B689B785B07DB0FDAB2B6
:1027A0003B19D0011A787F210A40111C021C0A43F0
:1027B0001A703A19786801235E21FFF7FAFB0300CB
:1027C0007B617B691800BD4607B090BD90B587B0AE
:1027D00000AF786039603B680322002118001EF0CA
:1027E00047FF1023FA18786801230D21FFF7B8FB83
:1027F00003007B610C23FA18786801235E21FFF740
:10280000AFFB02007B699B187B617B69002B01D0C9
:102810007B69DEE010243B191B78DB07DB0FDAB2A3
:102820003B6801210A4010001A7801218A43111CDB
:10283000021C0A431A703B191B789B07DB0FDAB2A4
:102840003B6801210A4090181A7802218A43111C22
:10285000021C0A431A703B191B781B07DB0FDAB204
:102860003B6801210A4050011A7820218A43111C3B
:10287000021C0A431A703B191B78DB06DB0FDAB225
:102880003B6801210A4090011A7840218A43111CBB
:10289000021C0A431A703B191B789B06DB0FDAB245
:1028A0003B68D0011A787F210A40111C021C0A43A0
:1028B0001A703B191B785B06DB0FDAB23B6801210B
:1028C0000A4010005A7801218A43111C021C0A4355
:1028D0005A700C243B191B78DB07DB0FDAB23B681C
:1028E00001210A40D0005A7808218A43111C021C99
:1028F0000A435A703B191B789B07DB0FDAB23B681F
:1029000001210A4010015A7810218A43111C021C2F
:102910000A435A703B191B785B07DB0FDAB23B683E
:1029200001210A4050015A7820218A43111C021CBF
:102930000A435A703B191B785B06DB0FDAB23B681F
:1029400001210A4090015A7840218A43111C021C3F
:102950000A435A703B191B781B07DB0FDAB23B683E
:10296000D0015A787F210A40111C021C0A435A7078
:102970003B191B789B06DB0FDAB23B6801210A404A
:1029800010009A7801218A43111C021C0A439A7094
:102990003B191B78DB06DB0FDAB23B6801210A40EA
:1029A00090189A7802218A43111C021C0A439A70DB
:1029B0003B191B781B06DB0FDAB23B6801210A408A
:1029C00090009A7804218A43111C021C0A439A70D1
:1029D0007B691800BD4607B090BDF0B595B000AF5B
:1029E000786039603823FA18786801235021FFF79E
:1029F000B7FA0300FB64FB6C002B02D0FB6C00F009
:102A00008CFC38257B191A7808210A431A707A1928
:102A1000786801235021FFF7CCFA0300FB640C24F3
:102A20003A19786804231B21FFF79AFA0200FB6C1D
:102A30009B18FB643B195A1C3026BB191100180067
:102A4000FFF7E0FA3B199A1C2C23FB181100180021
:102A5000FFF7D8FA3B19DA1C24243B19110018009F
:102A6000FFF7D0FABB191B785B06DB0FDAB23B68C5
:102A700001210A409018DA7902218A43111C021CB4
:102A80000A43DA71BB191B78DB06DB0FDAB23B684D
:102A9000D0019A797F210A40111C021C0A439A71C5
:102AA000BB191B789B06DB0FDAB23B6801210A4099
:102AB0001000DA7901218A43111C021C0A43DA71E1
:102AC000BB191B781B06DB0FDAB23B6801210A40F9
:102AD0009000DA7904218A43111C021C0A43DA713E
:102AE0002C26BB191B78DB07DB0FDAB23B68012110
:102AF0000A4010005A7801218A43111C021C0A4323
:102B00005A70BB191B789B07DB0FDAB23B680121B7
:102B10000A4090185A7802218A43111C021C0A4369
:102B20005A70BB191B78DB06DB0FDAB23B68012158
:102B30000A40D0009A7808218A43111C021C0A43DB
:102B40009A703B191B78DB07DB0FDAB23B68012177
:102B50000A4010001A7801218A43111C021C0A4302
:102B60001A703B191B789B07DB0FDAB23B68012117
:102B70000A4090181A7802218A43111C021C0A4349
:102B80001A703B191B785B07DB0FDAB23B68012137
:102B90000A4090001A7804218A43111C021C0A433F
:102BA0001A703B191B781B07DB0FDAB23B68012157
:102BB0000A40D0001A7808218A43111C021C0A43DB
:102BC0001A703B191B78DB06DB0FDAB23B68012178
:102BD0000A4010011A7810218A43111C021C0A4372
:102BE0001A703B191B789B06DB0FDAB23B68012198
:102BF0000A4050011A7820218A43111C021C0A4302
:102C00001A703B191B781B06DB0FDAB23B68D00148
:102C10001A787F210A40111C021C0A431A707A1983
:102C2000786801235021FFF79BF90300FB647B19AF
:102C30001A7808218A431A707A197868012350217A
:102C4000FFF7B7F90200FB6C9B18FB64FB6C002BD1
:102C500001D0FB6C61E30C23FA1878680823442147
:102C6000FFF77EF90300FB64FB6C002B01D0FB6CCB
:102C700053E30C257A191823FB1811001800FFF7ED
:102C8000C1F97B195A1C2823FB1811001800FFF703
:102C9000B9F97B199A1C1C26BB1911001800FFF703
:102CA000B1F97B19DA1C2023FB1811001800FFF77B
:102CB000A9F97B195A1D48217B1811001800FFF74C
:102CC000A1F97B199A1D40243B1911001800FFF748
:102CD00099F97B19DA1D3C203B1811001800FFF709
:102CE00091F91822BB181B785B07DB0FDAB23B683F
:102CF00001210A4090011A7840218A43111C021CCC
:102D00000A431A7028221500BB181B785B06DB0FDC
:102D1000DAB23B6801210A409000DA7804218A4344
:102D2000111C021C0A43DA707B191B785B07DB0F4E
:102D3000DAB23B6801210A4010015A7810218A4317
:102D4000111C021C0A435A707B191B789B07DB0F6E
:102D5000DAB23B6801210A40D0005A7808218A4340
:102D6000111C021C0A435A707B191B78DB07DB0F0E
:102D7000DAB23B6801210A4090005A7804218A4364
:102D8000111C021C0A435A702A00BB181B78DB0670
:102D9000DB0FDAB23B6801210A40D000DA78082163
:102DA0008A43111C021C0A43DA70BB191B785B07AB
:102DB000DB0FDAB23B6801210A4090189A780221B1
:102DC0008A43111C021C0A439A70BB191B789B078B
:102DD000DB0FDAB23B6801210A4010009A7801212A
:102DE0008A43111C021C0A439A70BB191B78DB072B
:102DF000DB0FDAB23B68D0015A787F210A40111C00
:102E0000021C0A435A703500BB191B781B07DB0FE5
:102E1000DAB23B6801210A4090009A7804218A4383
:102E2000111C021C0A439A707B191B78DB06DB0F0E
:102E3000DAB23B6801210A4090015A7840218A4366
:102E4000111C021C0A435A707B191B789B06DB0F6E
:102E5000DAB23B6801210A4050015A7820218A43A6
:102E6000111C021C0A435A7020257B191B78DB06B3
:102E7000DB0FDAB23B6801210A401000DA78012149
:102E80008A43111C021C0A43DA707B191B789B06CB
:102E9000DB0FDAB23B6801210A409018DA78022190
:102EA0008A43111C021C0A43DA707B191B785B07EA
:102EB000DB0FDAB23B6801210A4090019A78402189
:102EC0008A43111C021C0A439A707B191B781B074A
:102ED000DB0FDAB23B68D0019A787F210A40111CDF
:102EE000021C0A439A707B191B78DB07DB0FDAB2EE
:102EF0003B6801210A4010019A7810218A43111C75
:102F0000021C0A439A707B191B789B07DB0FDAB20D
:102F10003B6801210A4050019A7820218A43111C04
:102F2000021C0A439A7048257B191B781B07DB0F8C
:102F3000DAB23B6801210A401001DA7810218A4395
:102F4000111C021C0A43DA707B191B78DB06DB0FAD
:102F5000DAB23B6801210A4090001A7904218A43C1
:102F6000111C021C0A431A717B191B789B06DB0F8C
:102F7000DAB23B6801210A40D0001A7908218A435D
:102F8000111C021C0A431A717B191B781B06DB0FEC
:102F9000DAB23B6801210A4010011A7910218A43F4
:102FA000111C021C0A431A713B191B78DB07DB0F4B
:102FB000DAB23B6801210A4050011A7920218A4384
:102FC000111C021C0A431A713B191B789B07DB0F6B
:102FD000DAB23B6801210A4090011A7940218A4304
:102FE000111C021C0A431A713B191B785B07DB0F8B
:102FF000DAB23B68D0011A797F210A40111C021C09
:103000000A431A713B191B781B07DB0FDAB23B68C6
:1030100001210A4010005A7901218A43111C021C27
:103020000A435A713B191B78DB06DB0FDAB23B68A7
:1030300001210A4090185A7902218A43111C021C6E
:103040000A435A713B191B789B06DB0FDAB23B68C7
:1030500001210A4090005A7904218A43111C021C64
:103060000A435A713B191B785B06DB0FDAB23B68E7
:1030700001210A40D0005A7908218A43111C021C00
:103080000A435A713B191B781B06DB0FDAB23B6807
:1030900001210A4010015A7910218A43111C021C97
:1030A0000A435A713C243B191B78DB07DB0FDAB269
:1030B0003B6801210A4050015A7920218A43111CA2
:1030C000021C0A435A713B191B789B07DB0FDAB2CB
:1030D0003B6801210A4090015A7940218A43111C22
:1030E000021C0A435A713B191B785B07DB0FDAB2EB
:1030F0003B68D0015A797F210A40111C021C0A4307
:103100005A713B191B781B07DB0FDAB23B680121B0
:103110000A4010009A7901218A43111C021C0A43BB
:103120009A717B6801211800FEF7EAFF0300FB6437
:10313000FB6C002B13D14423FA1878680123072174
:10314000FEF70EFF0300FB643423FA1878680123AE
:103150006421FEF705FF0200FB6C9B18FB647B6893
:1031600000211800FEF7CCFF0200FB6C9B18FB64EB
:10317000FB6C002B01D0FB6CCFE044243B191B7887
:10318000DB07DB0FDAB23B6801210A4010001A7935
:1031900001218A43111C021C0A431A713B191B7836
:1031A0009B07DB0FDAB23B6801210A4090181A79BD
:1031B00002218A43111C021C0A431A7134243B1950
:1031C0001B785B07DB0FDAB23B6801210A40500134
:1031D000DA7820218A43111C021C0A43DA703B1959
:1031E0001B781B07DB0FDAB23B6801210A40900114
:1031F000DA7840218A43111C021C0A43DA703B1919
:103200001B78DB06DB0FDAB23B68D001DA787F216E
:103210000A40111C021C0A43DA703B191B789B06FA
:10322000DB0FDAB23B6801210A401001DA78102185
:103230008A43111C021C0A43DA701423FA187868B6
:1032400001234821FEF78CFE0300FB64FB6C002B7E
:1032500001D0FB6C61E014243B191B78DB07DB0F0A
:10326000DAB23B6801210A4090189A7902218A4318
:10327000111C021C0A439A713B191B781B06DB0FB9
:10328000DAB23B6801210A4090019A7940218A43D1
:10329000111C021C0A439A713B191B785B06DB0F59
:1032A000DAB23B6801210A4050019A7920218A4311
:1032B000111C021C0A439A713B191B789B06DB0FF9
:1032C000DAB23B6801210A4010019A7910218A4341
:1032D000111C021C0A439A713B191B78DB06DB0F99
:1032E000DAB23B6801210A40D0009A7908218A436A
:1032F000111C021C0A439A713B191B781B07DB0F38
:10330000DAB23B6801210A4090009A7904218A438D
:10331000111C021C0A439A71FB6C1800BD4615B0C3
:10332000F0BD80B586B000AF786039600C23FA1824
:10333000786806232821FEF713FE03007B617B6972
:10334000002B01D07B693DE00C217B185B781AB221
:103350003B681A803B6800229B5E9BB21B029BB2BB
:103360007A1812789B189BB21AB23B681A807B18A5
:10337000DA783B68023312B21A803B6802330022CB
:103380009B5E9BB21B029BB27A1892789B189AB2F2
:103390003B68023312B21A807B185A793B680433B7
:1033A00012B21A803B68043300229B5E9BB21B0260
:1033B0009BB27A1812799B189AB23B68043312B206
:1033C0001A807B691800BD4606B080BDF0B589B093
:1033D00000AF786039601423FA187868012354210B
:1033E000FEF7BEFD0300FB611823FA18786801237D
:1033F0005521FEF7B5FD0200FB699B18FB61102308
:10340000FA18786801235B21FEF7AAFD0200FB6928
:103410009B18FB610C23FA18786801235C21FEF7E6
:103420009FFD0200FB699B18FB61FB69002B01D02B
:10343000FB6990E03B681B785B065B0FDAB21424F3
:103440003B1907210A4010011A7870218A43111C88
:10345000021C0A431A703B681B781B079B0FDAB2E9
:103460003B1903210A4090001A780C218A43111C51
:10347000021C0A431A703B681B789B079B0FDAB249
:103480003B1903210A4010001A7803218A43111CBA
:10349000021C0A431A703B685B781A1C3F231340D6
:1034A000DAB218257B193F210A4010001A783F2113
:1034B0008A43111C021C0A431A703B689B781A1C31
:1034C0003F231340DAB21026BB193F210A401000F7
:1034D0001A783F218A43111C021C0A431A703B6868
:1034E000DB781A1C03231340DAB20C23FB180321E8
:1034F0000A4050011A7860218A43111C021C0A43B9
:103500001A703A19786801235421FEF752FD02001F
:10351000FB699B18FB617A19786801235521FEF736
:1035200048FD0200FB699B18FB61BA19786801230A
:103530005B21FEF73EFD0200FB699B18FB610C233B
:10354000FA18786801235C21FEF733FD0200FB695D
:103550009B18FB61FB691800BD4609B0F0BD000077
:1035600080B500AF024B01221A70C046BD4680BD37
:103570005907002080B582B000AF00F068FD00F070
:1035800075F800F0AAF8FDF791FEFDF727FF00F0AF
:1035900051FA00F057F900F003FA00F0D7F80020D4
:1035A000FDF73FFE204B19000020FDF721FE1F4BC9
:1035B0001800FDF797FF031E09D01D4B08211800C6
:1035C00001F06EFAC82000F0C7FDC046F5E7032100
:1035D0002220FDF7F3FFFDF73FFE164B1B78DBB211
:1035E000002BF8D0134B00221A70FB1D00221A701A
:1035F000FB1D1800FEF734F8FB1D1B78002B0FD0C5
:103600000B4B0821180001F04BFAFB1D1B78190029
:10361000012009F0BFFAFA235B00180000F09CFDBE
:1036200002F0F0F9D7E7C046B422061034060020B5
:10363000000010485907002080B582B000AF7860C4
:103640000A00BB1C1A807B68074A934207D1BB1C47
:103650001A8880239B009A4201D1FFF781FFC04660
:10366000BD4602B080BDC0460000104890B589B08C
:1036700000AF08243B19180018231A0000211DF080
:10368000F7FF3B00180008231A0000211DF0F0FF8F
:103690003B1903221A603B19802252025A603B19DF
:1036A0001022DA603B19180004F0A4FF031E01D0B9
:1036B00000F030F83B0000221A603B0000225A6004
:1036C0003B001021180005F0E5F8031E01D000F0C2
:1036D00021F8C046BD4609B090BD80B586B000AFA8
:1036E0003B00180018231A0000211DF0C1FF3B0009
:1036F00002221A603B00802252015A613B001800EE
:1037000005F0EAF9031E01D000F004F8C046BD46FA
:1037100006B080BD80B500AF72B6C046C046FDE7BA
:1037200080B584B000AF7860074B196D064B7A689E
:103730000A431A65044B1B6D7A681340FB60FB68F3
:10374000C046BD4604B080BD0000404880B500AF13
:10375000064B074A1A60054B180002F097F8031E43
:1037600001D0FFF7D7FFC046BD4680BD5C070020F3
:103770000000304880B582B000AF78607B681B687D
:10378000094A93420CD180235B021800FFF7C8FF5F
:10379000002201210D2000F0AFFD0D2000F0C1FD41
:1037A000C046BD4602B080BD0000304880B584B040
:1037B00000AF7860074B196E064B7A680A431A66A9
:1037C000044B1B6E7A681340FB60FB68C046BD4625
:1037D00004B080BD0000404880B582B000AF786082
:1037E000064B1B6E7A6813407A689A4201D1012316
:1037F00000E000231800BD4602B080BD0000404834
:1038000080B582B000AF7860044B196C034B7A68C6
:103810000A431A64C046BD4602B080BD000040485D
:1038200080B582B000AF7860054B1A6C7B68D943D5
:10383000034B0A401A64C046BD4602B080BDC04674
:103840000000404880B582B000AF00237B600120BB
:10385000FFF7C2FF031E08D10120FFF7D1FF0120AF
:10386000FFF7DEFF0120FFF7A1FFC023DB057B6030
:103870003B1D180002F0FAFAC046BD4602B080BDFA
:1038800090B589B000AF786008243B191800182360
:103890001A0000211DF0ECFE7B681A68C023DB05CE
:1038A0009A4222D13B1901221A603B1902221A6165
:1038B0003B19180005F010F9031E01D0FFF72AFF8D
:1038C0000120FFF773FF0BF0A9F90022002112205D
:1038D00000F012FD122000F024FD0022002119202A
:1038E00000F00AFD192000F01CFDC046BD4609B0DD
:1038F00090BD80B582B000AF78607B681B6918000E
:10390000BD4602B080BD000080B584B000AF7860D5
:10391000074B196E064B7A680A431A66044B1B6EF6
:103920007A681340FB60FB68C046BD4604B080BDAA
:103930000000404880B582B000AF7860064B1B6E37
:103940007A6813407A689A4201D1012300E000238B
:103950001800BD4602B080BD0000404880B582B06E
:1039600000AF7860044B196C034B7A680A431A6401
:10397000C046BD4602B080BD0000404880B582B060
:1039800000AF7860054B1A6C7B68D943034B0A4043
:103990001A64C046BD4602B080BDC0460000404823
:1039A00080B582B000AF3B00180008231A00002148
:1039B0001DF05EFE0120FFF7BDFF031E08D10120B0
:1039C000FFF7CCFF0120FFF7D9FF0120FFF79CFF95
:1039D000C0460C4B1800FFF78CFF03000F2BF8D9E3
:1039E0003B00A02252001A803B0000229A703B004C
:1039F00000225A603B00180002F044FFC046BD465A
:103A000002B080BD0018006080B584B000AF78605F
:103A1000074B196D064B7A680A431A65044B1B6DF8
:103A20007A681340FB60FB68C046BD4604B080BDA9
:103A30000000404880B500AF064B074A1A60054BAE
:103A4000180005F084F8031E01D0FFF763FEC0469E
:103A5000BD4680BD680700200000604880B582B088
:103A600000AF78607B681B68054A934204D18023CD
:103A7000DB021800FFF7C8FFC046BD4602B080BD9C
:103A80000000604880B584B000AF7860074B596D86
:103A9000064B7A680A435A65044B5B6D7A6813409B
:103AA000FB60FB68C046BD4604B080BD00004048D6
:103AB00080B500AF80235B001800FFF7E3FFC0462E
:103AC000BD4680BD80B500AFC046FDE780B500AF04
:103AD000C046FDE780B500AFC046BD4680BD80B59D
:103AE00000AFC046BD4680BD80B500AF00F00EFB04
:103AF000C046BD4680BD000080B500AF034B180036
:103B000005F060F8C046BD4680BDC0468007002075
:103B100080B500AF034B180001F001FFC046BD4661
:103B200080BDC0465C07002080B500AF80239B00AD
:103B3000034A1900100000F0CEFFC046BD4680BD0C
:103B40000000104880B500AF04F056FBC046BD46EB
:103B500080BD80B500AF04F058FBC046BD4680BDB7
:103B600080B500AF04F05AFBC046BD4680BD80B5AD
:103B700000AF02F0ABFCC046BD4680BD80B500AFD3
:103B800002F0C5FCC046BD4680BD80B586B000AF22
:103B9000F860B9607A6000237B610AE000E000BF52
:103BA0000100BB685A1CBA60CAB21A707B69013343
:103BB0007B617A697B689A42F0DB7B681800BD46BE
:103BC00006B080BD80B586B000AFF860B9607A609D
:103BD00000237B6109E0BB685A1CBA601B7818009F
:103BE00000E000BF7B6901337B617A697B689A42A0
:103BF000F1DB7B681800BD4606B080BD80B582B0A1
:103C000000AF786001235B421800BD4602B080BD62
:103C100080B582B000AF786039603B688022920145
:103C20005A6000231800BD4602B080BD80B582B046
:103C300000AF786001231800BD4602B080BD80B59A
:103C400084B000AFF860B9607A6000231800BD4608
:103C500004B080BD80B586B000AF7860144A154BC3
:103C6000D31A7B617B693B61134B1B68002B02D12C
:103C7000114B124A1A60104B1A687B68D3183A69C4
:103C80009A4207D21DF04AFD03000C221A6001235C
:103C90005B4209E0084B1B68FB60074B1A687B68B6
:103CA000D218054B1A60FB681800BD4606B080BDEF
:103CB00000000120000C00007C070020683000207C
:103CC00090B583B000AF02003960FB1D1A70FB1D78
:103CD0001B787F2B28D82F4AFB1D1B785BB29B08D3
:103CE000C0339B009B58FA1D1278110003220A4032
:103CF000D200FF2191400A00D2431A4011003B68D4
:103D00009B01FF221A40FB1D1B7818000323034070
:103D1000DB009A401F48FB1D1B785BB29B080A43DF
:103D2000C0339B001A5031E01B4AFB1D1B78190061
:103D30000F230B40083B9B0806339B00D31804332A
:103D40001B68FA1D1278110003220A40D200FF21DD
:103D500091400A00D2431A4011003B689B01FF22A8
:103D60001A40FB1D1B78180003230340DB009A4018
:103D70000948FB1D1B781C000F232340083B9B08B0
:103D80000A4306339B00C31804331A60C046BD467D
:103D900003B090BD00E100E000ED00E080B500AFB1
:103DA000BFF34F8FC046044B044ADA60BFF34F8F16
:103DB000C046C046FDE7C04600ED00E00400FA053D
:103DC00090B587B000AF644A9423D358002B0ED12E
:103DD000624B1B69002B03D1604B9B6B002B06D001
:103DE0005F4B01229A60FCF7FFF9FFF7D7FF5D4BAD
:103DF0005D4A9A605B4B9A68594B1A61574B5A68F7
:103E0000564B20210A435A60544B5A68534B402169
:103E10000A435A60514B5A68504B80210A435A60FA
:103E2000C0464E4B5B6904221340042BF9D14B4B27
:103E3000DB69302293431A00484B20210A43DA61A0
:103E4000464BDA69454B49490A40DA61434BDA6926
:103E5000424B802149000A43DA61454B1B68454AC1
:103E600093425BD01E233B610823FB600323BB60AE
:103E700008237B60394A9423D3581E2293431A00A7
:103E80007B685B001E210B403449134394228B5006
:103E9000324A9423D35831490122134394228B5040
:103EA0002D4BDB68344A134019003B691A062A4B34
:103EB0000A43DA60284BDA68274B802109040A4359
:103EC000DA60264A9423D3582C4A1A40FB68990199
:103ED000F0239B000B402149134394228B501F4A2F
:103EE0009423D3581D492022134394228B501B4AFC
:103EF0009423D358224A1A40BB68D902E0239B017D
:103F00000B401649134394228B50144A9423D358E0
:103F100012498022D200134394228B501723FB189E
:103F200000221A700DE017243B191B785BB20321A5
:103F30001800FFF7C5FE21007B181A787B180132A4
:103F40001A701723FB181B781F2BECD962B6C046DA
:103F5000C046BD4607B090BD000040480000504834
:103F60000400002000ED00E000000410FFFBFFFF54
:103F7000F81E0010CCECBCFCFFFFFFC03FFCFFFFB5
:103F8000FFC7FFFF80B582B000AF134B9B685B0893
:103F9000DAB2FB1D01210A401A700F4B9B685B09C6
:103FA000DAB2BB1D07210A401A70FB1D1B78002BDB
:103FB00007D0BB1D1B78013B084ADA40084B1A604A
:103FC00005E0BB1D1B78074ADA40054B1A60C04666
:103FD000BD4602B080BDC046000040480048E80130
:103FE000580D00200090D00310488546FFF7E8FEEA
:103FF000002103E00E4B5B58435004310D480E4B3B
:1040000042189A42F6D30D4A02E0002313600432AC
:104010000B4B9A42F9D30B4A02E00023136004329F
:10402000094B9A42F9D3FFF7A5FAFEE700000120F9
:1040300084270610DC0C00202C0F00207C010020BF
:10404000DC0C0020C00000207C010020FEE780B5D1
:1040500082B000AFFB1D00221A70032000F00EF8A2
:10406000031E03D0FB1D01221A7001E0FFF720FDA3
:10407000FB1D1B781800BD4602B080BD90B585B011
:1040800000AF78600F23FB1800221A701D4B1B78BD
:10409000002B2CD004F0AAFC04001A4B1B7819004A
:1040A000FA239800FCF7BAF8030019002000FCF787
:1040B000B5F80300180000F044F9031E12D17B6824
:1040C000032B0AD8796801235B420022180000F014
:1040D00013F90D4B7A681A600DE00F23FB180122CB
:1040E0001A7008E00F23FB1801221A7003E00F2357
:1040F000FB1801221A700F23FB181B781800BD460D
:1041000005B090BD600D00205C0D002080B500AFB3
:10411000054B1B781A00054B1B68D218034B1A601D
:10412000C046BD4680BDC046600D0020140800207A
:1041300080B500AF024B1B681800BD4680BDC0466D
:104140001408002080B500AF024B1B681800BD4664
:1041500080BDC0465C0D002080B584B000AF7860A3
:10416000FFF7E6FF0300BB607B68FB60FB68013381
:1041700005D00A4B1B781A00FB689B18FB60C046F1
:10418000FFF7D6FF0200BB68D31AFA689A42F7D845
:10419000C046C046BD4604B080BDC046600D00208C
:1041A00080B582B000AF0200FB1D1A70FB1D1B78AA
:1041B0007F2B09D8FB1D1B781A001F231A40044BC4
:1041C000012191400A001A60C046BD4602B080BD80
:1041D00000E100E090B583B000AF02003960FB1D44
:1041E0001A70FB1D1B787F2B28D82F4AFB1D1B78CC
:1041F0005BB29B08C0339B009B58FA1D12781100DC
:1042000003220A40D200FF2191400A00D2431A4003
:1042100011003B689B01FF221A40FB1D1B78180010
:1042200003230340DB009A401F48FB1D1B785BB251
:104230009B080A43C0339B001A5031E01B4AFB1D08
:104240001B7819000F230B40083B9B0806339B008B
:10425000D31804331B68FA1D1278110003220A4098
:10426000D200FF2191400A00D2431A4011003B685E
:104270009B01FF221A40FB1D1B78180003230340FB
:10428000DB009A400948FB1D1B781C000F232340CC
:10429000083B9B080A4306339B00C31804331A608B
:1042A000C046BD4603B090BD00E100E000ED00E077
:1042B00080B582B000AF78607B685A1E80235B04B3
:1042C0009A4201D3012310E00A4B7A68013A5A60FE
:1042D00001235B4203211800FFF77CFF054B0022FE
:1042E0009A60044B07221A6000231800BD4602B0F2
:1042F00080BDC04610E000E080B584B000AFB9607A
:104300007A600F217B18021C1A70BA687B181B7820
:104310005BB211001800FFF75DFFC046BD4604B058
:1043200080BD80B582B000AF0200FB1D1A70FB1D7E
:104330001B785BB21800FFF733FFC046BD4602B0E2
:1043400080BD80B582B000AF78607B681800FFF751
:10435000AFFF03001800BD4602B080BD80B582B03B
:1043600000AF78607B68002B01D1012331E07B68CE
:1043700025229B5CDBB2022B08D07B680422DA6327
:104380007B68242200219954012322E07B681B686A
:104390001A687B681B680E218A431A607B681B6859
:1043A0001A687B681B6801218A431A607B685B6C12
:1043B0003C221A407B681B6C012191400A005A6024
:1043C0007B682522012199547B682422002199547D
:1043D00000231800BD4602B080BD80B584B000AF98
:1043E00078600F217B1800221A707B6825229B5C65
:1043F000DBB2022B06D07B680422DA637B18012231
:104400001A702AE07B681B681A687B681B680E219B
:104410008A431A607B681B681A687B681B680121E5
:104420008A431A607B685B6C3C221A407B681B6C79
:10443000012191400A005A607B682522012199548C
:104440007B682422002199547B689B6B002B04D04D
:104450007B689B6B7A68100098470F23FB181B78CA
:104460001800BD4604B080BDB0B586B000AFF8609E
:10447000B9607A601D4B1B78012B01D1022331E01A
:104480001A4B01221A70194B00225A6017257C1909
:10449000FA239B00180000F02BF8030023707B190F
:1044A0001B78002B18D1FB68002B06D17A68BB68FB
:1044B0001100180000F056F805E07A68BB6811009A
:1044C000180000F071F81723FC18FA239B0018005D
:1044D00000F00EF803002370044B00221A7017231B
:1044E000FB181B781800BD4606B0B0BD18080020A8
:1044F00080B584B000AF7860FFF71AFE0300FB6060
:104500000CE07B68013309D0FFF712FE0200FB6864
:10451000D31A7A689A4201D803231BE00F4B1B6918
:1045200001221340012BECD10C4B1B690C221340D0
:104530000C2B0ED1094B9A68094B5B681A43084B48
:104540005A60064B1A69054B0C210A431A61012374
:1045500000E000231800BD4604B080BD00100040FC
:104560001808002080B582B000AF786039600C4B2D
:104570001A690B4B0F210A431A617B68094A94465A
:1045800063449A08064B1204120C9A61044B3A6871
:104590001A64034B33221A60C046BD4602B080BD88
:1045A000001000400000FCEF80B584B000AF7860E0
:1045B00039603B68FB60174B1A69164B0F210A43A1
:1045C0001A617B68144A944663449A08114B12049A
:1045D000120C9A610F4AFB681B681364FB68043372
:1045E000FB600C4AFB681B685364FB680433FB6088
:1045F000084AFB681B689364FB680433FB60054A48
:10460000FB681B68D364034BCC221A60C046BD46CE
:1046100004B080BD001000400000FCEFB0B584B0D5
:1046200000AF78603960274B1B78012B01D1022342
:1046300043E0244B01221A70224B00225A607B680F
:104640001B68FF2B0BD100F03FF80F23FC18FA2357
:104650009B001800FFF74CFF0300237027E03B6826
:10466000012252421A607B685B68BB6017E0BB683E
:10467000180000F039F80F257C19FA239B00180068
:10468000FFF736FF030023707B191B78002B03D044
:104690003B68BA681A600AE0BB680133BB607B689C
:1046A0005A687B689B68D318BA689A42DFD3054B77
:1046B00000221A700F23FB181B781800BD4604B0A7
:1046C000B0BDC0461808002080B500AF054B1A6980
:1046D000044B0F210A431A61024B22221A60C04682
:1046E000BD4680BD0010004080B582B000AF78604C
:1046F000094B1A69084B0F210A431A617B68DB02D8
:104700009A08054B1204120C9A61034B11221A608D
:10471000C046BD4602B080BD0010004080B586B0E6
:1047200000AF7860396000237B6190E13B681B68D3
:1047300001217A6991400A001340FB60FB68002B5D
:1047400000D181E13B685B6803221340012B05D057
:104750003B685B6803221340022B30D17B689B6867
:104760003B617B695B0003229A401300DA433B699B
:1047700013403B613B68DA687B695B009A40130039
:104780003A6913433B617B683A699A607B685B686E
:104790003B6101227B699A401300DA433B69134075
:1047A0003B613B685B681B0901221A407B699A40A8
:1047B00013003A6913433B617B683A695A603B686E
:1047C0005B6803221340032B17D07B68DB683B61D7
:1047D0007B695B0003229A401300DA433B69134074
:1047E0003B613B689A687B695B009A4013003A69B9
:1047F00013433B617B683A69DA603B685B6803227C
:104800001340022B23D17B69DA087B6808329200BF
:10481000D3583B617B69072213409B000F229A40CB
:104820001300DA433B6913403B613B681A697B69BB
:1048300007210B409B009A4013003A6913433B61E8
:104840007B69DA087B68083292003969D1507B684D
:104850001B683B617B695B0003229A401300DA43CB
:104860003B6913403B613B685B6803221A407B69EC
:104870005B009A4013003A6913433B617B683A69D5
:104880001A603B685A68C0239B02134000D1DBE0EA
:104890003B685A688023DB02134030D08023DB055D
:1048A000DB683B617A689023DB059A4211D10122D3
:1048B0007B699A401300DB431A003B6913403B615C
:1048C00001227B699A4013001A003B6913433B6144
:1048D00011E001227B699A4013001B04DB431A009C
:1048E0003B6913403B6101227B699A4013001B0422
:1048F0003A6913433B618023DB053A69DA603B6820
:104900005A6880235B03134030D08023DB051B698A
:104910003B617A689023DB059A4211D101227B69C1
:104920009A401300DB431A003B6913403B610122AC
:104930007B699A4013001A003B6913433B6111E005
:1049400001227B699A4013001B04DB431A003B6978
:1049500013403B6101227B699A4013001B043A69B2
:1049600013433B618023DB053A691A613B685A684F
:104970008023DB03134030D08023DB055B693B6180
:104980007A689023DB059A4211D101227B699A4013
:104990001300DB431A003B6913403B6101227B6932
:1049A0009A4013001A003B6913433B6111E0012256
:1049B0007B699A4013001B04DB431A003B691340D8
:1049C0003B6101227B699A4013001B043A6913433F
:1049D0003B618023DB053A695A613B685A68802352
:1049E0005B02134030D08023DB059B693B617A6812
:1049F0009023DB059A4211D101227B699A40130072
:104A0000DB431A003B6913403B6101227B699A40FA
:104A100013001A003B6913433B6111E001227B69DB
:104A20009A4013001B04DB431A003B6913403B61AF
:104A300001227B699A4013001B043A6913433B61CE
:104A40008023DB053A699A617B6901337B613B68AE
:104A50001A687B69DA40131E00D067E6C046C0467C
:104A6000BD4606B080BD80B582B000AF786008005A
:104A70001100BB1C021C1A807B1C0A1C1A707B1CB8
:104A80001B78002B04D0BB1C1A887B689A6103E05A
:104A9000BB1C1A887B689A62C046BD4602B080BDC6
:104AA00080B584B000AF78600A00BB1C1A807B68B8
:104AB0005B69FB60BB1C1B88FA6813401A04FB6827
:104AC000DB43B91C09880B401A437B689A61C046D6
:104AD000BD4604B080BD80B582B000AF78600A00EA
:104AE000BB1C1A807A689023DB059A4209D1802387
:104AF000DB05DB69BA1C128813405A1E9341DBB2F6
:104B000009E08023DB05DB69BA1C1288120413401C
:104B10005A1E9341DBB2002B17D07A689023DB0535
:104B20009A4205D18023DB05BA1C1288DA6105E0C0
:104B3000BB1C1A888023DB051204DA61BB1C1A88AF
:104B40007B6811001800FEF777FDC046BD4602B035
:104B500080BD000080B582B000AF78607B68002B1C
:104B600001D101238FE07B6841229B5CDBB2002BEB
:104B700007D17B684022002199547B681800FCF71C
:104B80006DFC7B684122242199547B681B681A685C
:104B90007B681B6801218A431A607B685A687B68BE
:104BA0001B683B490A401A617B681B689A687B68EE
:104BB0001B6838490A409A607B68DB68012B08D182
:104BC0007B689A687B681B68802109020A439A60A7
:104BD00007E07B689A687B681B68842109020A43A6
:104BE0009A607B68DB68022B09D17B681B685A6876
:104BF0007B681B68802109010A435A6007E07B68D3
:104C00001B685A687B681B6823490A405A607B68A6
:104C10001B685A687B681B6820490A435A607B6896
:104C20001B68DA687B681B681A490A40DA607B688F
:104C30001A697B685B691A4311007B689B691A02D9
:104C40007B681B680A43DA607B68D9697B681A6AEB
:104C50007B681B680A431A607B681B681A687B685C
:104C60001B6801210A431A607B6800225A647B6832
:104C70004122202199547B6800221A637B684222DA
:104C80000021995400231800BD4602B080BDC046E3
:104C9000FFFFFFF0FF7FFFFFFFF7FFFF0080000235
:104CA00090B589B002AFF8600C00100019000A231B
:104CB000FB18221C1A800823FB18021C1A80BB1D3B
:104CC0000A1C1A80FB6841229B5CDBB2202B00D0BF
:104CD0000CE1BB6A002B04D02C23FB181B88002B93
:104CE00005D1FB68802292005A640123FFE0FB6833
:104CF00040229B5C012B01D10223F8E0FB6840229B
:104D000001219954FFF714FA03007B6180231902F3
:104D1000F8687B6900931923012200F00BFB031E46
:104D200001D00123E3E0FB68412221219954FB6873
:104D3000422240219954FB6800225A64FB68BA6AF7
:104D40005A62FB682C22BA1812885A85FB68002226
:104D50005A63BB1D1C880823FB181A880A23FB18FA
:104D60001988F8687B6901933B6B0093230000F07E
:104D7000F9F9031E05D0FB68402200219954012354
:104D8000B5E0FB685B8D9BB2FF2B11D9FB68FF225E
:104D90001A85FB681B8DDAB280235C040A23FB189A
:104DA0001988F86800230093230000F09DFC12E0AE
:104DB000FB685B8D9AB2FB681A85FB681B8DDAB2C3
:104DC00080239C040A23FB181988F86800230093A9
:104DD000230000F089FC7A69396BFB68180000F049
:104DE00001FB031E01D0012381E0FB685B6A1A7896
:104DF000FB681B689A62FB685B6A5A1CFB685A6214
:104E0000FB685B8D9BB2013B9AB2FB685A85FB68DD
:104E10001B8D013B9AB2FB681A85FB685B8D9BB2C8
:104E2000002B3AD0FB681B8D002B36D13A6BF8680B
:104E30007B69009313000022802100F07BFA031E9F
:104E400001D0012353E0FB685B8D9BB2FF2B11D98E
:104E5000FB68FF221A85FB681B8DDAB280235C0495
:104E60000A23FB181988F86800230093230000F038
:104E70003BFC12E0FB685B8D9AB2FB681A85FB680D
:104E80001B8DDAB280239C040A23FB181988F8686A
:104E900000230093230000F027FCFB685B8D9BB28E
:104EA000002B98D17A69396BFB68180000F0E0FAA2
:104EB000031E01D001231AE0FB681B682022DA617F
:104EC000FB681B685A68FB681B680B490A405A60FC
:104ED000FB68412220219954FB6842220021995409
:104EE000FB68402200219954002300E002231800AF
:104EF000BD4607B090BDC04600E800FE90B589B041
:104F000002AFF8600C00100019000A23FB18221CE5
:104F10001A800823FB18021C1A80BB1D0A1C1A8069
:104F2000FB6841229B5CDBB2202B00D010E1BB6A06
:104F3000002B04D02C23FB181B88002B05D1FB6809
:104F4000802292005A64012303E1FB6840229B5CAB
:104F5000012B01D10223FCE0FB684022012199547E
:104F6000FFF7E6F803007B6180231902F8687B698C
:104F700000931923012200F0DDF9031E01D0012363
:104F8000E7E0FB68412222219954FB68422240213C
:104F90009954FB6800225A64FB68BA6A5A62FB683B
:104FA0002C22BA1812885A85FB6800225A63BB1D4E
:104FB0001C880823FB181A880A23FB181988F8682C
:104FC0007B6901933B6B0093230000F02FF9031ED4
:104FD00005D0FB684022002199540123B9E0FB6809
:104FE0005B8D9BB2FF2B11D9FB68FF221A85FB68F2
:104FF0001B8DDAB280235C040A23FB181988F86839
:10500000564B0093230000F06FFB12E0FB685B8DB2
:105010009AB2FB681A85FB681B8DDAB280239C0468
:105020000A23FB181988F8684C4B0093230000F002
:105030005BFB3A6BF8687B69009313000022042144
:1050400000F078F9031E01D0012382E0FB681B68A1
:105050005A6AFB685B6AD2B21A70FB685B6A5A1CB8
:10506000FB685A62FB681B8D013B9AB2FB681A858C
:10507000FB685B8D9BB2013B9AB2FB685A85FB686B
:105080005B8D9BB2002B3AD0FB681B8D002B36D179
:105090003A6BF8687B69009313000022802100F0CE
:1050A00049F9031E01D0012353E0FB685B8D9BB2DD
:1050B000FF2B11D9FB68FF221A85FB681B8DDAB222
:1050C00080235C040A23FB181988F86800230093E6
:1050D000230000F009FB12E0FB685B8D9AB2FB68CD
:1050E0001A85FB681B8DDAB280239C040A23FB1807
:1050F0001988F86800230093230000F0F5FAFB6894
:105100005B8D9BB2002B94D17A69396BFB681800D8
:1051100000F0AEF9031E01D001231AE0FB681B6802
:105120002022DA61FB681B685A68FB681B680C491F
:105130000A405A60FB68412220219954FB684222B0
:1051400000219954FB68402200219954002300E07B
:1051500002231800BD4607B090BDC0460024008061
:1051600000E800FEB0B586B002AFF8600C00100099
:1051700019000A257B19221C1A800823FB18021C1F
:105180001A80BB1D0A1C1A80BB1D1B88DAB2802343
:105190005C047B191988F868234B0093230000F006
:1051A000A3FA7A6A396AFB68180000F01BF9031E3B
:1051B00001D0012333E0BB1D1B88012B07D108233D
:1051C000FB181B88DAB2FB681B689A6219E0082397
:1051D000FB181B881B0A9BB2DAB2FB681B689A6239
:1051E0007A6A396AFB68180000F0FCF8031E01D0E7
:1051F000012314E00823FB181B88DAB2FB681B6844
:105200009A623A6AF8687B6A009313000022802150
:1052100000F090F8031E01D0012300E000231800E5
:10522000BD4604B0B0BDC04600200080B0B586B019
:1052300002AFF8600C00100019000A257B19221C2F
:105240001A800823FB18021C1A80BB1D0A1C1A8036
:10525000BB1D1B88DAB27B191988F868234B0093B1
:10526000002300F041FA7A6A396AFB68180000F0FE
:10527000B9F8031E01D0012333E0BB1D1B88012BAD
:1052800007D10823FB181B88DAB2FB681B689A62F7
:1052900019E00823FB181B881B0A9BB2DAB2FB68D3
:1052A0001B689A627A6A396AFB68180000F09AF8FB
:1052B000031E01D0012314E00823FB181B88DAB277
:1052C000FB681B689A623A6AF8687B6A009313006D
:1052D0000022402100F02EF8031E01D0012300E03F
:1052E00000231800BD4604B0B0BDC04600200080B9
:1052F00080B582B000AF78607B681B689B69022232
:105300001340022B03D17B681B6800229A627B68E2
:105310001B689B6901221340012B07D07B681B6827
:105320009A697B681B6801210A439A61C046BD46A1
:1053300002B080BD80B584B000AFF860B9603B605A
:10534000FB1D1A703AE0BA693968FB68180000F072
:10535000D3F8031E01D0012340E03B6801332DD078
:10536000FEF7E6FE0200BB69D31A3A689A4202D3FE
:105370003B68002B22D1FB681B689B69BA6813400D
:10538000BA68D31A5A425341DBB21A00FB1D1B788C
:105390009A4213D1FB685B6C20221A43FB685A6463
:1053A000FB68412220219954FB6842220021995434
:1053B000FB6840220021995401230FE0FB681B6821
:1053C0009B69BA681340BA68D31A5A425341DBB298
:1053D0001A00FB1D1B789A42B5D000231800BD4669
:1053E00004B080BD80B584B000AFF860B9607A6069
:1053F00032E07A68B968FB68180000F07DF8031E97
:1054000001D0012330E0BB68013325D0FEF790FEC8
:1054100002007B68D31ABA689A4202D3BB68002B99
:105420001AD1FB681B689B6902221340022B13D020
:10543000FB685B6C20221A43FB685A64FB684122BC
:1054400020219954FB68422200219954FB68402294
:1054500000219954012307E0FB681B689B69022225
:105460001340022BC5D100231800BD4604B080BDF7
:1054700080B584B000AFF860B9607A602FE07A68D8
:10548000B968FB68180000F037F8031E01D001234B
:105490002DE0FEF74DFE02007B68D31ABA689A42EF
:1054A00002D3BB68002B1AD1FB681B689B692022C2
:1054B0001340202B13D0FB685B6C20221A43FB683F
:1054C0005A64FB68412220219954FB684222002142
:1054D0009954FB68402200219954012307E0FB689E
:1054E0001B689B6920221340202BC8D10023180081
:1054F000BD4604B080BD000080B58AB000AFF86042
:10550000B9607A602723FB1800221A70FB681B68B9
:105510009B69BB6100233B627B68FB61BB69102216
:10552000134000D179E0FB681B681022DA6157E074
:105530002722BB18BA1812781A70BB6801334FD0F3
:10554000FEF7F6FD0200FB69D31ABA689A4202D34D
:10555000BB68002B44D1FB681B685A688023DB01C1
:1055600013407B6113203B18FA684221525C1A7089
:10557000FB681B689A6980231B021A4080231B0268
:105580009A4226D17A698023DB019A4221D03B18C6
:105590001B78202B1DD0FB681B685A68FB681B68B2
:1055A0008021C9010A435A60FEF7C2FD0300FB6176
:1055B0000FE0FEF7BDFD0200FB69D31A192B08D9D5
:1055C0003B6A202213433B622723FB1801221A70F7
:1055D00006E0FB681B689B6920221340202BE8D162
:1055E000FB681B689B6920221340202B04D02723D3
:1055F000FB181B78002B9BD02723FB181B78002B54
:1056000003D1FB681B682022DA613B6A0422134342
:105610003B622723FB1801221A70FB681B689B69F9
:10562000BB61BA6980235B0013400CD03B6A012246
:1056300013433B62FB681B6880225200DA61272318
:10564000FB1801221A70BA698023DB0013400CD0CA
:105650003B6A082213433B62FB681B688022D2002E
:10566000DA612723FB1801221A70BA6980239B0094
:1056700013400CD03B6A022213433B62FB681B6859
:1056800080229200DA612723FB1801221A70272357
:10569000FB181B78002B1DD0FB681800FFF728FEB5
:1056A000FB681B685A68FB681B680E490A405A6011
:1056B000FB685A6C3B6A1A43FB685A64FB684122D8
:1056C00020219954FB68422200219954FB68402212
:1056D000002199542723FB181B781800BD460AB0F7
:1056E00080BDC04600E800FE90B587B000AFF8600E
:1056F000080011007B600A243B19021C1A80092053
:105700003B180A1C1A703B191B889B059A0D3B1805
:105710001B781904FF231B040B401A437B681A43B0
:10572000BB6A13435B005B087B61FB681B685B68BB
:10573000BA6A510D8022D2000A4007490A43D24377
:105740001A401100FB681B687A690A435A60C04618
:10575000BD4607B090BDC046FF63FF0380B582B071
:1057600000AF786039607B6841229B5CDBB2202B04
:1057700038D17B6840229B5C012B01D1022332E0AF
:105780007B684022012199547B684122242199544D
:105790007B681B681A687B681B6801218A431A6052
:1057A0007B681B681A687B681B6811490A401A608D
:1057B0007B681B6819687B681B683A680A431A6033
:1057C0007B681B681A687B681B6801210A431A60A2
:1057D0007B684122202199547B6840220021995402
:1057E000002300E002231800BD4602B080BDC04681
:1057F000FFEFFFFF80B584B000AF786039607B6851
:1058000041229B5CDBB2202B39D17B6840229B5C20
:10581000012B01D1022333E07B68402201219954FE
:105820007B684122242199547B681B681A687B6835
:105830001B6801218A431A607B681B681B68FB6038
:10584000FB68114A1340FB603B681B02FA68134374
:10585000FB607B681B68FA681A607B681B681A68C3
:105860007B681B6801210A431A607B684122202162
:1058700099547B68402200219954002300E00223C0
:105880001800BD4604B080BDFFF0FFFF80B584B0B6
:1058900000AF78600F23FB1800221A707B68002B82
:1058A00032D07B681B79DBB2002B03D17B681800F8
:1058B000FDF760FF7B6802221A717B681B681A681B
:1058C0007B681B6880210A431A607B681B681A6822
:1058D0007B681B6880218A431A607B681B685A6852
:1058E0007B681B680D210A435A607B681B685A68F5
:1058F0007B681B680D218A435A607B6800229A608E
:105900007B6801221A7103E00F23FB1801221A7031
:105910000F23FB181B781800BD4604B080BD80B56E
:1059200084B000AF78607B681B689B68FB607B6815
:105930001B685B68BB60FB680822134019D0BB681A
:105940000822134015D07B689B6801221A437B68AC
:105950009A607B681B685A687B681B6808210A4349
:105960005A607B681B685A687B681B6808218A43F9
:105970005A60FB680422134019D0BB68042213400C
:1059800015D07B689B6802221A437B689A607B680B
:105990001B685A687B681B6804210A435A607B684D
:1059A0001B685A687B681B6804218A435A607B68BD
:1059B0009B68002B03D07B68180004F0C3FAFB68D7
:1059C000012213401AD0BB680122134016D07B6815
:1059D0001B685A687B681B6801210A435A607B6810
:1059E0001B685A687B681B6801218A435A607B6880
:1059F00001221A717B68180004F096FAC046BD4671
:105A000004B080BD80B500AF044B1A69034B04217C
:105A10008A431A6130BFC046BD4680BD00ED00E03C
:105A200080B584B000AF786039600F23FB18002286
:105A30001A707B68002B03D07B68012B0ED01BE013
:105A4000134B196A124B3A680A431A62104B5A6A8E
:105A50003B68D9430E4B0A405A6212E00C4B996ADC
:105A60000B4B3A680A439A62094BDA6A3B68D9439E
:105A7000074B0A40DA6204E00F23FB1801221A7078
:105A8000C0460F23FB181B781800BD4604B080BD2C
:105A90000000504880B584B000AF786039600F23B3
:105AA000FB1800221A707B68002B03D07B68012B47
:105AB00008D00FE00D4B1A6A3B68D9430B4B0A40E4
:105AC0001A620CE0094B9A6A3B68D943074B0A40BB
:105AD0009A6204E00F23FB1801221A70C0460F23BC
