:020000041004E6
:1000000000000120DD060410750304107D030410B8
:1000100000000000000000000000000000000000E0
:100020000000000000000000000000008503041034
:1000300000000000000000008F030410990304106A
:100040004107041041070410410704104107041040
:100050004107041041070410410704104107041030
:100060004107041041070410410704104107041020
:10007000410704104107041000000000410704106C
:10008000410704104107041041070410000000005C
:1000900041070410000000000000000041070410A8
:1000A0004107041041070410000000000000000098
:1000B0000000000000000000000000000000000040
:1000C000002243088B4274D303098B425FD3030A97
:1000D0008B4244D3030B8B4228D3030C8B420DD3AA
:1000E000FF22090212BA030C8B4202D31212090238
:1000F00065D0030B8B4219D300E0090AC30B8B4276
:1001000001D3CB03C01A5241830B8B4201D38B0323
:10011000C01A5241430B8B4201D34B03C01A5241C8
:10012000030B8B4201D30B03C01A5241C30A8B420B
:1001300001D3CB02C01A5241830A8B4201D38B02F6
:10014000C01A5241430A8B4201D34B02C01A52419A
:10015000030A8B4201D30B02C01A5241CDD2C3090C
:100160008B4201D3CB01C01A524183098B4201D388
:100170008B01C01A524143098B4201D34B01C01A73
:10018000524103098B4201D30B01C01A5241C308EB
:100190008B4201D3CB00C01A524183088B4201D35A
:1001A0008B00C01A524143088B4201D34B00C01A46
:1001B0005241411A00D20146524110467047FFE7B2
:1001C00001B5002000F006F802BDC0460029F7D0B6
:1001D00076E770477047C04680B584B000AF78605E
:1001E000074B196D064B7A680A431A65044B1B6D61
:1001F0007A681340FB60FB68C046BD4604B080BD12
:100200000000404880B500AF00F09BFA00F01EF8F7
:1002100000F039F800F054F80B4B002208211800C8
:1002200000F091FDFA235B00180000F00FFB064B75
:1002300001220821180000F086FDFA235B00180057
:1002400000F004FBC046E7E70000104880B582B02C
:1002500000AF3B00180008231A00002100F0F1FF56
:100260003B0002221A603B0000225A603B00102132
:10027000180000F089FE031E01D000F055F8C046BA
:10028000BD4602B080BD80B586B000AF3B0018000F
:1002900018231A00002100F0D4FF3B0002221A604C
:1002A0003B00802252015A613B00180000F08EFF93
:1002B000031E01D000F038F8C046BD4606B080BD30
:1002C00080B586B000AF3B1D180014231A00002132
:1002D00000F0B7FF0820FFF77FFF124B0022082134
:1002E000180000F030FD3B1D08221A603B1D012262
:1002F0005A603B1D00229A603B1D0022DA603B1DC4
:10030000084A1900100000F079FB0821012000F0D4
:1003100037FD0821012000F061FDC046BD4606B052
:1003200080BDC0460000104880B500AF72B6C04620
:10033000C046FDE780B584B000AF7860074B596DCB
:10034000064B7A680A435A65044B5B6D7A68134022
:10035000FB60FB68C046BD4604B080BD000040485D
:1003600080B500AF80235B001800FFF7E3FFC046B5
:10037000BD4680BD80B500AFC046FDE780B500AF8B
:10038000C046FDE780B500AFC046BD4680BD80B524
:1003900000AFC046BD4680BD80B500AF00F030FA6A
:1003A000C046BD4680BD000090B583B000AF0200DE
:1003B0003960FB1D1A70FB1D1B787F2B28D82F4A34
:1003C000FB1D1B785BB29B08C0339B009B58FA1D3A
:1003D0001278110003220A40D200FF2191400A0046
:1003E000D2431A4011003B689B01FF221A40FB1DBB
:1003F0001B78180003230340DB009A401F48FB1DB5
:100400001B785BB29B080A43C0339B001A5031E053
:100410001B4AFB1D1B7819000F230B40083B9B0850
:1004200006339B00D31804331B68FA1D12781100A1
:1004300003220A40D200FF2191400A00D2431A4011
:1004400011003B689B01FF221A40FB1D1B7818001E
:1004500003230340DB009A400948FB1D1B781C0066
:100460000F232340083B9B080A4306339B00C31815
:1004700004331A60C046BD4603B090BD00E100E001
:1004800000ED00E080B500AFBFF34F8FC046044BD6
:10049000044ADA60BFF34F8FC046C046FDE7C0464E
:1004A00000ED00E00400FA0590B587B000AF644AA3
:1004B0009423D358002B0ED1624B1B69002B03D120
:1004C000604B9B6B002B06D05F4B01229A6000F0C3
:1004D000FFF8FFF7D7FF5D4B5D4A9A605B4B9A6868
:1004E000594B1A61574B5A68564B20210A435A60A0
:1004F000544B5A68534B40210A435A60514B5A6837
:10050000504B80210A435A60C0464E4B5B6904221F
:100510001340042BF9D14B4BDB69302293431A0073
:10052000484B20210A43DA61464BDA69454B494979
:100530000A40DA61434BDA69424B802149000A43A1
:10054000DA61454B1B68454A93425BD01E233B61F1
:100550000823FB600323BB6008237B60394A942394
:10056000D3581E2293431A007B685B001E210B4068
:100570003449134394228B50324A9423D35831493F
:100580000122134394228B502D4BDB68344A1340D5
:1005900019003B691A062A4B0A43DA60284BDA68CD
:1005A000274B802109040A43DA60264A9423D35852
:1005B0002C4A1A40FB689901F0239B000B4021490B
:1005C000134394228B501F4A9423D3581D49202251
:1005D000134394228B501B4A9423D358224A1A4027
:1005E000BB68D902E0239B010B40164913439422B8
:1005F0008B50144A9423D35812498022D2001343BB
:1006000094228B501723FB1800221A700DE0172438
:100610003B191B785BB203211800FFF7C5FE2100D0
:100620007B181A787B1801321A701723FB181B7875
:100630001F2BECD962B6C046C046BD4607B090BD80
:1006400000004048000050480400002000ED00E099
:1006500000000410FFFBFFFFF81E0010CCECBCFCF8
:10066000FFFFFFC03FFCFFFFFFC7FFFF80B582B069
:1006700000AF134B9B685B08DAB2FB1D01210A40F7
:100680001A700F4B9B685B09DAB2BB1D07210A4049
:100690001A70FB1D1B78002B07D0BB1D1B78013B7C
:1006A000084ADA40084B1A6005E0BB1D1B78074A70
:1006B000DA40054B1A60C046BD4602B080BDC04658
:1006C000000040480048E801C40000200090D0032A
:1006D00080B500AFC046BD4680BD000010488546CD
:1006E000FFF7E2FE002103E00E4B5B58435004315C
:1006F0000D480E4B42189A42F6D30D4A02E00023F1
:10070000136004320B4B9A42F9D30B4A02E00023E8
:1007100013600432094B9A42F9D3FFF773FDFEE7E9
:10072000000001205C120410C4000020D000002052
:10073000C0000020C4000020C0000020C000002035
:10074000FEE780B582B000AFFB1D00221A700320C7
:1007500000F00EF8031E03D0FB1D01221A7001E009
:10076000FFF7FEFDFB1D1B781800BD4602B080BDE3
:1007700090B585B000AF78600F23FB1800221A7087
:100780001D4B1B78002B2CD000F0AAFC04001A4B48
:100790001B781900FA239800FFF792FC0300190058
:1007A0002000FFF78DFC0300180000F01AF9031E6B
:1007B00012D17B68032B0AD8796801235B4200229F
:1007C000180000F0F9F80D4B7A681A600DE00F235D
:1007D000FB1801221A7008E00F23FB1801221A707F
:1007E00003E00F23FB1801221A700F23FB181B785C
:1007F0001800BD4605B090BDCC000020C800002008
:1008000080B500AF054B1B781A00054B1B68D2184A
:10081000034B1A60C046BD4680BDC046CC000020D8
:10082000C000002080B500AF024B1B681800BD4619
:1008300080BDC046C000002080B500AF024B1B68E1
:100840001800BD4680BDC046C800002080B584B0F9
:1008500000AF7860FFF7E6FF0300BB607B68FB60DA
:10086000FB68013305D00A4B1B781A00FB689B1804
:10087000FB60C046FFF7D6FF0200BB68D31AFA68D8
:100880009A42F7D8C046C046BD4604B080BDC046B7
:10089000CC00002090B583B000AF02003960FB1D92
:1008A0001A70FB1D1B787F2B28D82F4AFB1D1B7845
:1008B0005BB29B08C0339B009B58FA1D1278110055
:1008C00003220A40D200FF2191400A00D2431A407D
:1008D00011003B689B01FF221A40FB1D1B7818008A
:1008E00003230340DB009A401F48FB1D1B785BB2CB
:1008F0009B080A43C0339B001A5031E01B4AFB1D82
:100900001B7819000F230B40083B9B0806339B0004
:10091000D31804331B68FA1D1278110003220A4011
:10092000D200FF2191400A00D2431A4011003B68D7
:100930009B01FF221A40FB1D1B7818000323034074
:10094000DB009A400948FB1D1B781C000F23234045
:10095000083B9B080A4306339B00C31804331A6004
:10096000C046BD4603B090BD00E100E000ED00E0F0
:1009700080B582B000AF78607B685A1E80235B042C
:100980009A4201D3012310E00A4B7A68013A5A6077
:1009900001235B4203211800FFF77CFF054B002277
:1009A0009A60044B07221A6000231800BD4602B06B
:1009B00080BDC04610E000E080B584B000AFB960F3
:1009C0007A600F217B18021C1A70BA687B181B789A
:1009D0005BB211001800FFF75DFFC046BD4604B0D2
:1009E00080BD80B582B000AF78607B681800FFF7EB
:1009F000BFFF03001800BD4602B080BD80B586B0C1
:100A000000AF7860396000237B6190E13B681B6830
:100A100001217A6991400A001340FB60FB68002BBA
:100A200000D181E13B685B6803221340012B05D0B4
:100A30003B685B6803221340022B30D17B689B68C4
:100A40003B617B695B0003229A401300DA433B69F8
:100A500013403B613B68DA687B695B009A40130096
:100A60003A6913433B617B683A699A607B685B68CB
:100A70003B6101227B699A401300DA433B691340D2
:100A80003B613B685B681B0901221A407B699A4005
:100A900013003A6913433B617B683A695A603B68CB
:100AA0005B6803221340032B17D07B68DB683B6134
:100AB0007B695B0003229A401300DA433B691340D1
:100AC0003B613B689A687B695B009A4013003A6916
:100AD00013433B617B683A69DA603B685B680322D9
:100AE0001340022B23D17B69DA087B68083292001D
:100AF000D3583B617B69072213409B000F229A4029
:100B00001300DA433B6913403B613B681A697B6918
:100B100007210B409B009A4013003A6913433B6145
:100B20007B69DA087B68083292003969D1507B68AA
:100B30001B683B617B695B0003229A401300DA4328
:100B40003B6913403B613B685B6803221A407B6949
:100B50005B009A4013003A6913433B617B683A6932
:100B60001A603B685A68C0239B02134000D1DBE047
:100B70003B685A688023DB02134030D08023DB05BA
:100B8000DB683B617A689023DB059A4211D1012230
:100B90007B699A401300DB431A003B6913403B61B9
:100BA00001227B699A4013001A003B6913433B61A1
:100BB00011E001227B699A4013001B04DB431A00F9
:100BC0003B6913403B6101227B699A4013001B047F
:100BD0003A6913433B618023DB053A69DA603B687D
:100BE0005A6880235B03134030D08023DB051B69E8
:100BF0003B617A689023DB059A4211D101227B691F
:100C00009A401300DB431A003B6913403B61012209
:100C10007B699A4013001A003B6913433B6111E062
:100C200001227B699A4013001B04DB431A003B69D5
:100C300013403B6101227B699A4013001B043A690F
:100C400013433B618023DB053A691A613B685A68AC
:100C50008023DB03134030D08023DB055B693B61DD
:100C60007A689023DB059A4211D101227B699A4070
:100C70001300DB431A003B6913403B6101227B698F
:100C80009A4013001A003B6913433B6111E00122B3
:100C90007B699A4013001B04DB431A003B69134035
:100CA0003B6101227B699A4013001B043A6913439C
:100CB0003B618023DB053A695A613B685A688023AF
:100CC0005B02134030D08023DB059B693B617A686F
:100CD0009023DB059A4211D101227B699A401300CF
:100CE000DB431A003B6913403B6101227B699A4058
:100CF00013001A003B6913433B6111E001227B6939
:100D00009A4013001B04DB431A003B6913403B610C
:100D100001227B699A4013001B043A6913433B612B
:100D20008023DB053A699A617B6901337B613B680B
:100D30001A687B69DA40131E00D067E6C046C046D9
:100D4000BD4606B080BD80B582B000AF78600800B7
:100D50001100BB1C021C1A807B1C0A1C1A707B1C15
:100D60001B78002B04D0BB1C1A887B689A6103E0B7
:100D7000BB1C1A887B689A62C046BD4602B080BD23
:100D800080B584B000AF786039600F23FB18002273
:100D90001A707B68002B03D07B68012B08D00FE012
:100DA0000D4B1A6A3B68D9430B4B0A401A620CE0A0
:100DB000094B9A6A3B68D943074B0A409A6204E0A0
:100DC0000F23FB1801221A70C0460F23FB181B7853
:100DD0001800BD4604B080BD0000504880B584B006
:100DE00000AF786039600F23FB1800221A707B680F
:100DF000002B03D07B68012B08D00FE00D4B5A6A03
:100E00003B68D9430B4B0A405A620CE0094BDA6A43
:100E10003B68D943074B0A40DA6204E00F23FB1812
:100E200001221A70C0460F23FB181B781800BD461C
:100E300004B080BD0000504880B500AF074B1A6871
:100E400080239B021A4080239B029A4201D10123F6
:100E500000E000231800BD4680BDC04600004048A9
:100E600080B500AF074B9A68064B04218A439A600D
:100E7000044B9A68034B02218A439A60C046BD46E0
:100E800080BDC0460000404880B500AF074B1A68DF
:100E90008023DB001A408023DB009A4201D101232A
:100EA00000E000231800BD4680BDC0460000404859
:100EB00080B582B000AFC0460F4B1A6880239B02FA
:100EC0001340F9D00C4B9A680B4B02210A439A60ED
:100ED00000237B6003E0C0467B6801337B607B6856
:100EE000052BF8DD044B9A68034B04210A439A60F2
:100EF000C046BD4602B080BD0000404880B500AF8E
:100F0000044B1A68034B802189010A431A60C046CA
:100F1000BD4680BD0000404880B500AF044B1A6854
:100F2000034B04490A401A60C046BD4680BDC04616
:100F300000004048FFDFFFFF80B500AF074B1A6895
:100F40008023DB011A408023DB019A4201D1012377
:100F500000E000231800BD4680BDC04600004048A8
:100F600080B582B000AF7860064B9B68E022934367
:100F70001900044B7A680A439A60C046BD4602B025
:100F800080BDC0460000404880B584B000AF7860A6
:100F900039607B68002B01D1012398E04E4B5B68E0
:100FA0003022934319004C4B3A680A435A607B68DD
:100FB0001B68022B0ED1FFF753FFFFF765FF031EDF
:100FC00001D1012383E0FFF7A7FF7B685B6818006E
:100FD000FFF7C6FF7B681B68002B24D1FFF754FF87
:100FE000031E01D1012372E0FFF726FF031E01D18A
:100FF00001236CE0FFF782FFFFF714FC0300FB60A6
:1010000008E0FFF70FFC0200FB68D31A022B01D99E
:1010100003235CE0FFF790FF031EF2D07B685B6860
:101020001800FFF79DFF7B681B68012B17D1FFF7A6
:101030003FFFFFF729FF031E01D0012347E0FFF721
:10104000FBFE031E01D1012341E0244B9B68E022FB
:10105000934319007B685A68204B0A439A601E4BE1
:101060005B68302213403A689A421DD01A4B5B6885
:10107000302293431900184B3A680A435A60FFF72D
:10108000D1FB0300FB6008E0FFF7CCFB0200FB682C
:10109000D31A022B01D9032319E00F4B5B683022CE
:1010A00013403A689A42EFD10023BB6003E0C04688
:1010B000BB680133BB60BB68052BF8DDFFF7D6FAD0
:1010C000FFF7BAFB03001800FFF752FB03001800FC
:1010D000BD4604B080BDC04600100040000040483E
:1010E00080B500AF024B1B681800BD4680BDC046EE
:1010F000C400002080B582B000AF7860064B9B68CA
:10110000064A13401900044B7A680A439A60C046A5
:10111000BD4602B080BDC04600004048FF7FFEFFD4
:1011200080B582B000AF7860064B1B6E06229343F9
:101130001900044B7A680A431A66C046BD4602B0DD
:1011400080BDC0460000404880B582B000AF7860E6
:10115000064B9B68064A13401900044B7A680A4301
:101160009A60C046BD4602B080BDC04600004048FF
:10117000FFEFFFFF80B582B000AF7860064B9B6841
:10118000064A13401900044B7A680A439A60C04625
:10119000BD4602B080BDC04600004048FFFF7FFF53
:1011A00080B582B000AF7860064B9B68064A13405A
:1011B0001900044B7A680A439A60C046BD4602B0E3
:1011C00080BDC04600004048FFFFBFFF80B582B031
:1011D00000AF78607B681B680122134004D07B68F5
:1011E0001B691800FFF79CFF7B681B6802221340F5
:1011F00004D07B685B691800FFF7A6FF7B681B685B
:101200000422134004D07B685B681800FFF7B2FF2C
:101210007B681B680822134004D07B689B68180019
:10122000FFF7BEFF7B68DB682022134004D07B6899
:10123000DB681800FFF75EFF00231800BD4602B010
:1012400080BD03008218934200D1704719700133AA
:04125000F9E70000BA
:04125400F8B5C046E3
:04125800F8B5C046DF
:0C125C000024F400040000000100000069
:04000005100406DD00
:00000001FF
